{
  "contractName": "PriceTraceV1",
  "abi": [
    {
      "inputs": [
        {
          "internalType": "uint256",
          "name": "",
          "type": "uint256"
        }
      ],
      "name": "allCategories",
      "outputs": [
        {
          "internalType": "uint256",
          "name": "category_id",
          "type": "uint256"
        },
        {
          "internalType": "string",
          "name": "name",
          "type": "string"
        },
        {
          "internalType": "string",
          "name": "description",
          "type": "string"
        }
      ],
      "stateMutability": "view",
      "type": "function"
    },
    {
      "inputs": [
        {
          "internalType": "uint256",
          "name": "",
          "type": "uint256"
        }
      ],
      "name": "allPriceStatus",
      "outputs": [
        {
          "internalType": "uint256",
          "name": "status_id",
          "type": "uint256"
        },
        {
          "internalType": "string",
          "name": "name",
          "type": "string"
        },
        {
          "internalType": "uint256",
          "name": "date",
          "type": "uint256"
        },
        {
          "internalType": "uint256",
          "name": "avg_price",
          "type": "uint256"
        },
        {
          "internalType": "uint256",
          "name": "category_id",
          "type": "uint256"
        },
        {
          "internalType": "uint256",
          "name": "store_id",
          "type": "uint256"
        }
      ],
      "stateMutability": "view",
      "type": "function"
    },
    {
      "inputs": [
        {
          "internalType": "uint256",
          "name": "",
          "type": "uint256"
        }
      ],
      "name": "allPrizeUsers",
      "outputs": [
        {
          "internalType": "uint256",
          "name": "prize_id",
          "type": "uint256"
        },
        {
          "internalType": "uint256",
          "name": "user_id",
          "type": "uint256"
        },
        {
          "internalType": "uint256",
          "name": "date",
          "type": "uint256"
        }
      ],
      "stateMutability": "view",
      "type": "function"
    },
    {
      "inputs": [
        {
          "internalType": "uint256",
          "name": "",
          "type": "uint256"
        }
      ],
      "name": "allPrizes",
      "outputs": [
        {
          "internalType": "uint256",
          "name": "prize_id",
          "type": "uint256"
        },
        {
          "internalType": "string",
          "name": "name",
          "type": "string"
        },
        {
          "internalType": "string",
          "name": "description",
          "type": "string"
        },
        {
          "internalType": "uint256",
          "name": "date",
          "type": "uint256"
        }
      ],
      "stateMutability": "view",
      "type": "function"
    },
    {
      "inputs": [
        {
          "internalType": "uint256",
          "name": "",
          "type": "uint256"
        }
      ],
      "name": "allProducts",
      "outputs": [
        {
          "internalType": "uint256",
          "name": "product_id",
          "type": "uint256"
        },
        {
          "internalType": "string",
          "name": "name",
          "type": "string"
        },
        {
          "internalType": "uint256",
          "name": "price",
          "type": "uint256"
        },
        {
          "internalType": "uint256",
          "name": "store_id",
          "type": "uint256"
        },
        {
          "internalType": "uint256",
          "name": "price_date",
          "type": "uint256"
        },
        {
          "internalType": "string",
          "name": "description",
          "type": "string"
        },
        {
          "internalType": "string",
          "name": "url",
          "type": "string"
        }
      ],
      "stateMutability": "view",
      "type": "function"
    },
    {
      "inputs": [
        {
          "internalType": "uint256",
          "name": "",
          "type": "uint256"
        }
      ],
      "name": "allStores",
      "outputs": [
        {
          "internalType": "string",
          "name": "name",
          "type": "string"
        },
        {
          "internalType": "string",
          "name": "url",
          "type": "string"
        },
        {
          "internalType": "uint256",
          "name": "store_id",
          "type": "uint256"
        },
        {
          "internalType": "uint256",
          "name": "user_id",
          "type": "uint256"
        }
      ],
      "stateMutability": "view",
      "type": "function"
    },
    {
      "inputs": [],
      "name": "lastCategoryId",
      "outputs": [
        {
          "internalType": "uint256",
          "name": "",
          "type": "uint256"
        }
      ],
      "stateMutability": "view",
      "type": "function"
    },
    {
      "inputs": [],
      "name": "lastPriceStatusId",
      "outputs": [
        {
          "internalType": "uint256",
          "name": "",
          "type": "uint256"
        }
      ],
      "stateMutability": "view",
      "type": "function"
    },
    {
      "inputs": [],
      "name": "lastPrizeId",
      "outputs": [
        {
          "internalType": "uint256",
          "name": "",
          "type": "uint256"
        }
      ],
      "stateMutability": "view",
      "type": "function"
    },
    {
      "inputs": [],
      "name": "lastProductId",
      "outputs": [
        {
          "internalType": "uint256",
          "name": "",
          "type": "uint256"
        }
      ],
      "stateMutability": "view",
      "type": "function"
    },
    {
      "inputs": [],
      "name": "lastStoreId",
      "outputs": [
        {
          "internalType": "uint256",
          "name": "",
          "type": "uint256"
        }
      ],
      "stateMutability": "view",
      "type": "function"
    },
    {
      "inputs": [],
      "name": "lastUserId",
      "outputs": [
        {
          "internalType": "uint256",
          "name": "",
          "type": "uint256"
        }
      ],
      "stateMutability": "view",
      "type": "function"
    },
    {
      "inputs": [],
      "name": "getNewUserId",
      "outputs": [
        {
          "internalType": "uint256",
          "name": "",
          "type": "uint256"
        }
      ],
      "stateMutability": "nonpayable",
      "type": "function"
    },
    {
      "inputs": [],
      "name": "getNewPriceStatusId",
      "outputs": [
        {
          "internalType": "uint256",
          "name": "",
          "type": "uint256"
        }
      ],
      "stateMutability": "nonpayable",
      "type": "function"
    },
    {
      "inputs": [],
      "name": "getNewStoreId",
      "outputs": [
        {
          "internalType": "uint256",
          "name": "",
          "type": "uint256"
        }
      ],
      "stateMutability": "nonpayable",
      "type": "function"
    },
    {
      "inputs": [],
      "name": "getNewPrizeId",
      "outputs": [
        {
          "internalType": "uint256",
          "name": "",
          "type": "uint256"
        }
      ],
      "stateMutability": "nonpayable",
      "type": "function"
    },
    {
      "inputs": [],
      "name": "getNewCategoryId",
      "outputs": [
        {
          "internalType": "uint256",
          "name": "",
          "type": "uint256"
        }
      ],
      "stateMutability": "nonpayable",
      "type": "function"
    },
    {
      "inputs": [],
      "name": "getNewProductId",
      "outputs": [
        {
          "internalType": "uint256",
          "name": "",
          "type": "uint256"
        }
      ],
      "stateMutability": "nonpayable",
      "type": "function"
    },
    {
      "inputs": [
        {
          "internalType": "address",
          "name": "_add",
          "type": "address"
        }
      ],
      "name": "createUser",
      "outputs": [
        {
          "internalType": "uint256",
          "name": "",
          "type": "uint256"
        }
      ],
      "stateMutability": "nonpayable",
      "type": "function"
    },
    {
      "inputs": [
        {
          "internalType": "address",
          "name": "_add",
          "type": "address"
        }
      ],
      "name": "getUser",
      "outputs": [
        {
          "internalType": "uint256",
          "name": "",
          "type": "uint256"
        }
      ],
      "stateMutability": "view",
      "type": "function"
    },
    {
      "inputs": [
        {
          "internalType": "address",
          "name": "_add",
          "type": "address"
        }
      ],
      "name": "getUserStore",
      "outputs": [
        {
          "internalType": "uint256",
          "name": "",
          "type": "uint256"
        },
        {
          "internalType": "string",
          "name": "",
          "type": "string"
        }
      ],
      "stateMutability": "view",
      "type": "function"
    },
    {
      "inputs": [
        {
          "internalType": "uint256",
          "name": "_id",
          "type": "uint256"
        }
      ],
      "name": "getUserStoreById",
      "outputs": [
        {
          "internalType": "string",
          "name": "",
          "type": "string"
        },
        {
          "internalType": "string",
          "name": "",
          "type": "string"
        }
      ],
      "stateMutability": "view",
      "type": "function"
    },
    {
      "inputs": [
        {
          "internalType": "string",
          "name": "_name",
          "type": "string"
        },
        {
          "internalType": "uint256",
          "name": "_date",
          "type": "uint256"
        },
        {
          "internalType": "uint256",
          "name": "_avg_price",
          "type": "uint256"
        },
        {
          "internalType": "uint256",
          "name": "_categoty",
          "type": "uint256"
        },
        {
          "internalType": "uint256",
          "name": "_store",
          "type": "uint256"
        }
      ],
      "name": "createPriceStatus",
      "outputs": [],
      "stateMutability": "nonpayable",
      "type": "function"
    },
    {
      "inputs": [
        {
          "internalType": "string",
          "name": "_name",
          "type": "string"
        },
        {
          "internalType": "string",
          "name": "_url",
          "type": "string"
        },
        {
          "internalType": "address",
          "name": "_add",
          "type": "address"
        }
      ],
      "name": "createStore",
      "outputs": [],
      "stateMutability": "nonpayable",
      "type": "function"
    },
    {
      "inputs": [
        {
          "internalType": "string",
          "name": "_name",
          "type": "string"
        },
        {
          "internalType": "string",
          "name": "_description",
          "type": "string"
        },
        {
          "internalType": "uint256",
          "name": "_date",
          "type": "uint256"
        }
      ],
      "name": "createPrize",
      "outputs": [],
      "stateMutability": "nonpayable",
      "type": "function"
    },
    {
      "inputs": [
        {
          "internalType": "uint256",
          "name": "_prize_id",
          "type": "uint256"
        },
        {
          "internalType": "uint256",
          "name": "_user_id",
          "type": "uint256"
        },
        {
          "internalType": "uint256",
          "name": "_date",
          "type": "uint256"
        }
      ],
      "name": "createPrizeUser",
      "outputs": [],
      "stateMutability": "nonpayable",
      "type": "function"
    },
    {
      "inputs": [
        {
          "internalType": "string",
          "name": "_name",
          "type": "string"
        },
        {
          "internalType": "string",
          "name": "_description",
          "type": "string"
        }
      ],
      "name": "createCategory",
      "outputs": [],
      "stateMutability": "nonpayable",
      "type": "function"
    },
    {
      "inputs": [
        {
          "internalType": "string",
          "name": "_name",
          "type": "string"
        },
        {
          "internalType": "uint256",
          "name": "_price",
          "type": "uint256"
        },
        {
          "internalType": "uint256",
          "name": "_price_date",
          "type": "uint256"
        },
        {
          "internalType": "string",
          "name": "_description",
          "type": "string"
        },
        {
          "internalType": "string",
          "name": "_url",
          "type": "string"
        },
        {
          "internalType": "address",
          "name": "_add",
          "type": "address"
        }
      ],
      "name": "createProduct",
      "outputs": [],
      "stateMutability": "nonpayable",
      "type": "function"
    },
    {
      "inputs": [],
      "name": "getProducts",
      "outputs": [
        {
          "components": [
            {
              "internalType": "uint256",
              "name": "product_id",
              "type": "uint256"
            },
            {
              "internalType": "string",
              "name": "name",
              "type": "string"
            },
            {
              "internalType": "uint256",
              "name": "price",
              "type": "uint256"
            },
            {
              "internalType": "uint256",
              "name": "store_id",
              "type": "uint256"
            },
            {
              "internalType": "uint256",
              "name": "price_date",
              "type": "uint256"
            },
            {
              "internalType": "string",
              "name": "description",
              "type": "string"
            },
            {
              "internalType": "string",
              "name": "url",
              "type": "string"
            }
          ],
          "internalType": "struct PriceTraceV1.Product[]",
          "name": "",
          "type": "tuple[]"
        }
      ],
      "stateMutability": "view",
      "type": "function"
    },
    {
      "inputs": [
        {
          "internalType": "uint256",
          "name": "_category",
          "type": "uint256"
        },
        {
          "internalType": "uint256",
          "name": "_start_date",
          "type": "uint256"
        }
      ],
      "name": "getAveragePriceByCategory",
      "outputs": [
        {
          "internalType": "uint256",
          "name": "",
          "type": "uint256"
        }
      ],
      "stateMutability": "view",
      "type": "function"
    },
    {
      "inputs": [
        {
          "internalType": "uint256",
          "name": "_store",
          "type": "uint256"
        },
        {
          "internalType": "uint256",
          "name": "_start_date",
          "type": "uint256"
        }
      ],
      "name": "getAveragePriceByStore",
      "outputs": [
        {
          "internalType": "uint256",
          "name": "",
          "type": "uint256"
        },
        {
          "internalType": "uint256[]",
          "name": "",
          "type": "uint256[]"
        },
        {
          "internalType": "string[]",
          "name": "",
          "type": "string[]"
        },
        {
          "internalType": "uint256[]",
          "name": "",
          "type": "uint256[]"
        },
        {
          "internalType": "uint256[]",
          "name": "",
          "type": "uint256[]"
        },
        {
          "internalType": "uint256[]",
          "name": "",
          "type": "uint256[]"
        }
      ],
      "stateMutability": "view",
      "type": "function"
    }
  ],
  "bytecode": "0x608060405234801561001057600080fd5b50612f7c806100206000396000f3fe608060405234801561001057600080fd5b50600436106101e55760003560e01c8063911a3e321161010f578063c29b2f20116100a2578063cfaaef5611610071578063cfaaef56146105d4578063db6f1b8d1461060a578063ef21b12b14610628578063f4ac57cf14610658576101e5565b8063c29b2f2014610537578063c36d35af14610555578063cb62137314610588578063cdd87618146105a4576101e5565b8063b000378e116100de578063b000378e146104ac578063b0e92ddc146104c8578063b224b4e9146104fd578063b3af979b14610519576101e5565b8063911a3e32146104345780639b8529ee146104525780639d2fc5f014610470578063a0c684f31461048e576101e5565b8063348d44871161018757806368aa8dca1161015657806368aa8dca146103ac5780636f77926b146103ca5780638cabb529146103fa5780638dff9f9214610416576101e5565b8063348d44871461030e57806341b1991f1461032c5780635350954014610348578063685496f01461037a576101e5565b806322b2708b116101c357806322b2708b1461025757806323ca679d14610288578063298e113e146102bd57806332cfc484146102db576101e5565b8063018a3b23146101ea5780630c559cb31461021b5780631abe696214610239575b600080fd5b61020460048036038101906101ff91906126ac565b610674565b604051610212929190612a44565b60405180910390f35b610223610867565b6040516102309190612ace565b60405180910390f35b61024161086d565b60405161024e9190612ace565b60405180910390f35b610271600480360381019061026c91906123b9565b610885565b60405161027f929190612b6d565b60405180910390f35b6102a2600480360381019061029d91906126d5565b6109b3565b6040516102b496959493929190612ae9565b60405180910390f35b6102c5610dca565b6040516102d29190612ace565b60405180910390f35b6102f560048036038101906102f091906126ac565b610de2565b6040516103059493929190612a7b565b60405180910390f35b610316610f4f565b6040516103239190612ace565b60405180910390f35b6103466004803603810190610341919061254c565b610f55565b005b610362600480360381019061035d91906126ac565b611091565b60405161037193929190612d21565b60405180910390f35b610394600480360381019061038f91906126ac565b6110c8565b6040516103a393929190612b9d565b60405180910390f35b6103b461122f565b6040516103c19190612ace565b60405180910390f35b6103e460048036038101906103df91906123b9565b611247565b6040516103f19190612ace565b60405180910390f35b610414600480360381019061040f91906124cd565b611332565b005b61041e6113e6565b60405161042b9190612ace565b60405180910390f35b61043c6113ec565b6040516104499190612ace565b60405180910390f35b61045a611404565b6040516104679190612ace565b60405180910390f35b61047861140a565b6040516104859190612ace565b60405180910390f35b610496611410565b6040516104a39190612ace565b60405180910390f35b6104c660048036038101906104c19190612711565b611428565b005b6104e260048036038101906104dd91906126ac565b61149f565b6040516104f496959493929190612cb9565b60405180910390f35b610517600480360381019061051291906123e2565b611580565b005b610521611623565b60405161052e9190612ace565b60405180910390f35b61053f611629565b60405161054c9190612a22565b60405180910390f35b61056f600480360381019061056a91906126ac565b6118f5565b60405161057f9493929190612be2565b60405180910390f35b6105a2600480360381019061059d919061261d565b611a62565b005b6105be60048036038101906105b991906123b9565b611b25565b6040516105cb9190612ace565b60405180910390f35b6105ee60048036038101906105e991906126ac565b611cf5565b6040516106019796959493929190612c35565b60405180910390f35b610612611f0c565b60405161061f9190612ace565b60405180910390f35b610642600480360381019061063d91906126d5565b611f24565b60405161064f9190612ace565b60405180910390f35b610672600480360381019061066d919061244e565b611fdb565b005b60608060005b60085481101561083c5760006001828154811061069357fe5b90600052602060002090600402019050848160020154141561082e57600182815481106106bc57fe5b9060005260206000209060040201600001600183815481106106da57fe5b9060005260206000209060040201600101818054600181600116156101000203166002900480601f0160208091040260200160405190810160405280929190818152602001828054600181600116156101000203166002900480156107805780601f1061075557610100808354040283529160200191610780565b820191906000526020600020905b81548152906001019060200180831161076357829003601f168201915b50505050509150808054600181600116156101000203166002900480601f01602080910402602001604051908101604052809291908181526020018280546001816001161561010002031660029004801561081c5780601f106107f15761010080835404028352916020019161081c565b820191906000526020600020905b8154815290600101906020018083116107ff57829003601f168201915b50505050509050935093505050610862565b50808060010191505061067a565b506040518060200160405280600081525060405180602001604052806000815250915091505b915091565b60085481565b6000600b600081548092919060010191905055905090565b60006060600d60008473ffffffffffffffffffffffffffffffffffffffff1673ffffffffffffffffffffffffffffffffffffffff16815260200190815260200160002060020154600d60008573ffffffffffffffffffffffffffffffffffffffff1673ffffffffffffffffffffffffffffffffffffffff168152602001908152602001600020600001808054600181600116156101000203166002900480601f0160208091040260200160405190810160405280929190818152602001828054600181600116156101000203166002900480156109a35780601f10610978576101008083540402835291602001916109a3565b820191906000526020600020905b81548152906001019060200180831161098657829003601f168201915b5050505050905091509150915091565b600060608060608060606000606060008054905067ffffffffffffffff811180156109dd57600080fd5b50604051908082528060200260200182016040528015610a0c5781602001602082028036833780820191505090505b509050606060008054905067ffffffffffffffff81118015610a2d57600080fd5b50604051908082528060200260200182016040528015610a6157816020015b6060815260200190600190039081610a4c5790505b509050606060008054905067ffffffffffffffff81118015610a8257600080fd5b50604051908082528060200260200182016040528015610ab15781602001602082028036833780820191505090505b509050606060008054905067ffffffffffffffff81118015610ad257600080fd5b50604051908082528060200260200182016040528015610b015781602001602082028036833780820191505090505b509050606060008054905067ffffffffffffffff81118015610b2257600080fd5b50604051908082528060200260200182016040528015610b515781602001602082028036833780820191505090505b509050600080600090505b600080549050811015610d9a578f60008281548110610b7757fe5b906000526020600020906006020160050154148015610bb457508e60008281548110610b9f57fe5b90600052602060002090600602016002015410155b15610d8d5760008181548110610bc657fe5b906000526020600020906006020160000154878381518110610be457fe5b60200260200101818152505060008181548110610bfd57fe5b90600052602060002090600602016001018054600181600116156101000203166002900480601f016020809104026020016040519081016040528092919081815260200182805460018160011615610100020316600290048015610ca25780601f10610c7757610100808354040283529160200191610ca2565b820191906000526020600020905b815481529060010190602001808311610c8557829003601f168201915b5050505050868381518110610cb357fe5b602002602001018190525060008181548110610ccb57fe5b906000526020600020906006020160020154858381518110610ce957fe5b60200260200101818152505060008181548110610d0257fe5b906000526020600020906006020160030154848381518110610d2057fe5b60200260200101818152505060008181548110610d3957fe5b906000526020600020906006020160040154838381518110610d5757fe5b60200260200101818152505060008181548110610d7057fe5b906000526020600020906006020160030154880197506001820191505b8080600101915050610b5c565b50808781610da457fe5b0496508686868686869c509c509c509c509c509c50505050505050509295509295509295565b60006009600081548092919060010191905055905090565b60018181548110610def57fe5b9060005260206000209060040201600091509050806000018054600181600116156101000203166002900480601f016020809104026020016040519081016040528092919081815260200182805460018160011615610100020316600290048015610e9b5780601f10610e7057610100808354040283529160200191610e9b565b820191906000526020600020905b815481529060010190602001808311610e7e57829003601f168201915b505050505090806001018054600181600116156101000203166002900480601f016020809104026020016040519081016040528092919081815260200182805460018160011615610100020316600290048015610f395780601f10610f0e57610100808354040283529160200191610f39565b820191906000526020600020905b815481529060010190602001808311610f1c57829003601f168201915b5050505050908060020154908060030154905084565b60065481565b610f5d612162565b6040518060e00160405280610f7061086d565b8152602001888152602001878152602001600d60008573ffffffffffffffffffffffffffffffffffffffff1673ffffffffffffffffffffffffffffffffffffffff168152602001908152602001600020600201548152602001868152602001858152602001848152509050600581908060018154018082558091505060019003906000526020600020906007020160009091909190915060008201518160000155602082015181600101908051906020019061102d92919061219f565b5060408201518160020155606082015181600301556080820151816004015560a082015181600501908051906020019061106892919061219f565b5060c082015181600601908051906020019061108592919061219f565b50505050505050505050565b6003818154811061109e57fe5b90600052602060002090600302016000915090508060000154908060010154908060020154905083565b600481815481106110d557fe5b9060005260206000209060030201600091509050806000015490806001018054600181600116156101000203166002900480601f0160208091040260200160405190810160405280929190818152602001828054600181600116156101000203166002900480156111875780601f1061115c57610100808354040283529160200191611187565b820191906000526020600020905b81548152906001019060200180831161116a57829003601f168201915b505050505090806002018054600181600116156101000203166002900480601f0160208091040260200160405190810160405280929190818152602001828054600181600116156101000203166002900480156112255780601f106111fa57610100808354040283529160200191611225565b820191906000526020600020905b81548152906001019060200180831161120857829003601f168201915b5050505050905083565b6000600a600081548092919060010191905055905090565b60008173ffffffffffffffffffffffffffffffffffffffff16600c60008473ffffffffffffffffffffffffffffffffffffffff1673ffffffffffffffffffffffffffffffffffffffff16815260200190815260200160002060000160009054906101000a900473ffffffffffffffffffffffffffffffffffffffff1673ffffffffffffffffffffffffffffffffffffffff16146112e7576000905061132d565b600c60008373ffffffffffffffffffffffffffffffffffffffff1673ffffffffffffffffffffffffffffffffffffffff1681526020019081526020016000206001015490505b919050565b61133a61221f565b604051806080016040528061134d610dca565b815260200185815260200184815260200183815250905060028190806001815401808255809150506001900390600052602060002090600402016000909190919091506000820151816000015560208201518160010190805190602001906113b692919061219f565b5060408201518160020190805190602001906113d392919061219f565b5060608201518160030155505050505050565b600b5481565b60006008600081548092919060010191905055905090565b600a5481565b60095481565b60006006600081548092919060010191905055905090565b611430612247565b60405180606001604052808581526020018481526020018381525090506003819080600181540180825580915050600190039060005260206000209060030201600090919091909150600082015181600001556020820151816001015560408201518160020155505050505050565b600081815481106114ac57fe5b9060005260206000209060060201600091509050806000015490806001018054600181600116156101000203166002900480601f01602080910402602001604051908101604052809291908181526020018280546001816001161561010002031660029004801561155e5780601f106115335761010080835404028352916020019161155e565b820191906000526020600020905b81548152906001019060200180831161154157829003601f168201915b5050505050908060020154908060030154908060040154908060050154905086565b611588612268565b604051806060016040528061159b61122f565b815260200184815260200183815250905060048190806001815401808255809150506001900390600052602060002090600302016000909190919091506000820151816000015560208201518160010190805190602001906115fe92919061219f565b50604082015181600201908051906020019061161b92919061219f565b505050505050565b60075481565b606080600b5467ffffffffffffffff8111801561164557600080fd5b5060405190808252806020026020018201604052801561167f57816020015b61166c612162565b8152602001906001900390816116645790505b50905060005b600b548110156118ed5760006005828154811061169e57fe5b90600052602060002090600702019050806040518060e001604052908160008201548152602001600182018054600181600116156101000203166002900480601f01602080910402602001604051908101604052809291908181526020018280546001816001161561010002031660029004801561175d5780601f106117325761010080835404028352916020019161175d565b820191906000526020600020905b81548152906001019060200180831161174057829003601f168201915b50505050508152602001600282015481526020016003820154815260200160048201548152602001600582018054600181600116156101000203166002900480601f01602080910402602001604051908101604052809291908181526020018280546001816001161561010002031660029004801561181d5780601f106117f25761010080835404028352916020019161181d565b820191906000526020600020905b81548152906001019060200180831161180057829003601f168201915b50505050508152602001600682018054600181600116156101000203166002900480601f0160208091040260200160405190810160405280929190818152602001828054600181600116156101000203166002900480156118bf5780601f10611894576101008083540402835291602001916118bf565b820191906000526020600020905b8154815290600101906020018083116118a257829003601f168201915b5050505050815250508383815181106118d457fe5b6020026020010181905250508080600101915050611685565b508091505090565b6002818154811061190257fe5b9060005260206000209060040201600091509050806000015490806001018054600181600116156101000203166002900480601f0160208091040260200160405190810160405280929190818152602001828054600181600116156101000203166002900480156119b45780601f10611989576101008083540402835291602001916119b4565b820191906000526020600020905b81548152906001019060200180831161199757829003601f168201915b505050505090806002018054600181600116156101000203166002900480601f016020809104026020016040519081016040528092919081815260200182805460018160011615610100020316600290048015611a525780601f10611a2757610100808354040283529160200191611a52565b820191906000526020600020905b815481529060010190602001808311611a3557829003601f168201915b5050505050908060030154905084565b611a6a612289565b6040518060c00160405280611a7d611f0c565b81526020018781526020018681526020018581526020018481526020018381525090506000819080600181540180825580915050600190039060005260206000209060060201600090919091909150600082015181600001556020820151816001019080519060200190611af292919061219f565b5060408201518160020155606082015181600301556080820151816004015560a082015181600501555050505050505050565b60008173ffffffffffffffffffffffffffffffffffffffff16600c60008473ffffffffffffffffffffffffffffffffffffffff1673ffffffffffffffffffffffffffffffffffffffff16815260200190815260200160002060000160009054906101000a900473ffffffffffffffffffffffffffffffffffffffff1673ffffffffffffffffffffffffffffffffffffffff1614611caa57611bc46122bf565b60405180606001604052808473ffffffffffffffffffffffffffffffffffffffff16815260200160018152602001611bfa611410565b815250905080600c60008573ffffffffffffffffffffffffffffffffffffffff1673ffffffffffffffffffffffffffffffffffffffff16815260200190815260200160002060008201518160000160006101000a81548173ffffffffffffffffffffffffffffffffffffffff021916908373ffffffffffffffffffffffffffffffffffffffff16021790555060208201518160010155604082015181600201559050508060200151915050611cf0565b600c60008373ffffffffffffffffffffffffffffffffffffffff1673ffffffffffffffffffffffffffffffffffffffff1681526020019081526020016000206001015490505b919050565b60058181548110611d0257fe5b9060005260206000209060070201600091509050806000015490806001018054600181600116156101000203166002900480601f016020809104026020016040519081016040528092919081815260200182805460018160011615610100020316600290048015611db45780601f10611d8957610100808354040283529160200191611db4565b820191906000526020600020905b815481529060010190602001808311611d9757829003601f168201915b505050505090806002015490806003015490806004015490806005018054600181600116156101000203166002900480601f016020809104026020016040519081016040528092919081815260200182805460018160011615610100020316600290048015611e645780601f10611e3957610100808354040283529160200191611e64565b820191906000526020600020905b815481529060010190602001808311611e4757829003601f168201915b505050505090806006018054600181600116156101000203166002900480601f016020809104026020016040519081016040528092919081815260200182805460018160011615610100020316600290048015611f025780601f10611ed757610100808354040283529160200191611f02565b820191906000526020600020905b815481529060010190602001808311611ee557829003601f168201915b5050505050905087565b60006007600081548092919060010191905055905090565b600080600080600090505b600080549050811015611fc3578560008281548110611f4a57fe5b906000526020600020906006020160040154148015611f8757508460008281548110611f7257fe5b90600052602060002090600602016002015410155b15611fb65760008181548110611f9957fe5b906000526020600020906006020160030154830192506001820191505b8080600101915050611f2f565b50808281611fcd57fe5b049150819250505092915050565b611fe36122f6565b60405180608001604052808581526020018481526020016120026113ec565b8152602001600c60008573ffffffffffffffffffffffffffffffffffffffff1673ffffffffffffffffffffffffffffffffffffffff1681526020019081526020016000206002015481525090506001819080600181540180825580915050600190039060005260206000209060040201600090919091909150600082015181600001908051906020019061209792919061219f565b5060208201518160010190805190602001906120b492919061219f565b506040820151816002015560608201518160030155505080600d60008473ffffffffffffffffffffffffffffffffffffffff1673ffffffffffffffffffffffffffffffffffffffff168152602001908152602001600020600082015181600001908051906020019061212792919061219f565b50602082015181600101908051906020019061214492919061219f565b50604082015181600201556060820151816003015590505050505050565b6040518060e00160405280600081526020016060815260200160008152602001600081526020016000815260200160608152602001606081525090565b828054600181600116156101000203166002900490600052602060002090601f016020900481019282601f106121e057805160ff191683800117855561220e565b8280016001018555821561220e579182015b8281111561220d5782518255916020019190600101906121f2565b5b50905061221b919061231e565b5090565b6040518060800160405280600081526020016060815260200160608152602001600081525090565b60405180606001604052806000815260200160008152602001600081525090565b60405180606001604052806000815260200160608152602001606081525090565b6040518060c001604052806000815260200160608152602001600081526020016000815260200160008152602001600081525090565b6040518060600160405280600073ffffffffffffffffffffffffffffffffffffffff16815260200160008152602001600081525090565b6040518060800160405280606081526020016060815260200160008152602001600081525090565b5b8082111561233757600081600090555060010161231f565b5090565b60008135905061234a81612f18565b92915050565b600082601f83011261236157600080fd5b813561237461236f82612d85565b612d58565b9150808252602083016020830185838301111561239057600080fd5b61239b838284612ec5565b50505092915050565b6000813590506123b381612f2f565b92915050565b6000602082840312156123cb57600080fd5b60006123d98482850161233b565b91505092915050565b600080604083850312156123f557600080fd5b600083013567ffffffffffffffff81111561240f57600080fd5b61241b85828601612350565b925050602083013567ffffffffffffffff81111561243857600080fd5b61244485828601612350565b9150509250929050565b60008060006060848603121561246357600080fd5b600084013567ffffffffffffffff81111561247d57600080fd5b61248986828701612350565b935050602084013567ffffffffffffffff8111156124a657600080fd5b6124b286828701612350565b92505060406124c38682870161233b565b9150509250925092565b6000806000606084860312156124e257600080fd5b600084013567ffffffffffffffff8111156124fc57600080fd5b61250886828701612350565b935050602084013567ffffffffffffffff81111561252557600080fd5b61253186828701612350565b9250506040612542868287016123a4565b9150509250925092565b60008060008060008060c0878903121561256557600080fd5b600087013567ffffffffffffffff81111561257f57600080fd5b61258b89828a01612350565b965050602061259c89828a016123a4565b95505060406125ad89828a016123a4565b945050606087013567ffffffffffffffff8111156125ca57600080fd5b6125d689828a01612350565b935050608087013567ffffffffffffffff8111156125f357600080fd5b6125ff89828a01612350565b92505060a061261089828a0161233b565b9150509295509295509295565b600080600080600060a0868803121561263557600080fd5b600086013567ffffffffffffffff81111561264f57600080fd5b61265b88828901612350565b955050602061266c888289016123a4565b945050604061267d888289016123a4565b935050606061268e888289016123a4565b925050608061269f888289016123a4565b9150509295509295909350565b6000602082840312156126be57600080fd5b60006126cc848285016123a4565b91505092915050565b600080604083850312156126e857600080fd5b60006126f6858286016123a4565b9250506020612707858286016123a4565b9150509250929050565b60008060006060848603121561272657600080fd5b6000612734868287016123a4565b9350506020612745868287016123a4565b9250506040612756868287016123a4565b9150509250925092565b600061276c83836128e8565b905092915050565b6000612780838361295a565b905092915050565b60006127948383612a04565b60208301905092915050565b60006127ab82612de1565b6127b58185612e34565b9350836020820285016127c785612db1565b8060005b8581101561280357848403895281516127e48582612760565b94506127ef83612e0d565b925060208a019950506001810190506127cb565b50829750879550505050505092915050565b600061282082612dec565b61282a8185612e45565b93508360208202850161283c85612dc1565b8060005b8581101561287857848403895281516128598582612774565b945061286483612e1a565b925060208a01995050600181019050612840565b50829750879550505050505092915050565b600061289582612df7565b61289f8185612e56565b93506128aa83612dd1565b8060005b838110156128db5781516128c28882612788565b97506128cd83612e27565b9250506001810190506128ae565b5085935050505092915050565b60006128f382612e02565b6128fd8185612e67565b935061290d818560208601612ed4565b61291681612f07565b840191505092915050565b600061292c82612e02565b6129368185612e78565b9350612946818560208601612ed4565b61294f81612f07565b840191505092915050565b600060e0830160008301516129726000860182612a04565b506020830151848203602086015261298a82826128e8565b915050604083015161299f6040860182612a04565b5060608301516129b26060860182612a04565b5060808301516129c56080860182612a04565b5060a083015184820360a08601526129dd82826128e8565b91505060c083015184820360c08601526129f782826128e8565b9150508091505092915050565b612a0d81612ebb565b82525050565b612a1c81612ebb565b82525050565b60006020820190508181036000830152612a3c8184612815565b905092915050565b60006040820190508181036000830152612a5e8185612921565b90508181036020830152612a728184612921565b90509392505050565b60006080820190508181036000830152612a958187612921565b90508181036020830152612aa98186612921565b9050612ab86040830185612a13565b612ac56060830184612a13565b95945050505050565b6000602082019050612ae36000830184612a13565b92915050565b600060c082019050612afe6000830189612a13565b8181036020830152612b10818861288a565b90508181036040830152612b2481876127a0565b90508181036060830152612b38818661288a565b90508181036080830152612b4c818561288a565b905081810360a0830152612b60818461288a565b9050979650505050505050565b6000604082019050612b826000830185612a13565b8181036020830152612b948184612921565b90509392505050565b6000606082019050612bb26000830186612a13565b8181036020830152612bc48185612921565b90508181036040830152612bd88184612921565b9050949350505050565b6000608082019050612bf76000830187612a13565b8181036020830152612c098186612921565b90508181036040830152612c1d8185612921565b9050612c2c6060830184612a13565b95945050505050565b600060e082019050612c4a600083018a612a13565b8181036020830152612c5c8189612921565b9050612c6b6040830188612a13565b612c786060830187612a13565b612c856080830186612a13565b81810360a0830152612c978185612921565b905081810360c0830152612cab8184612921565b905098975050505050505050565b600060c082019050612cce6000830189612a13565b8181036020830152612ce08188612921565b9050612cef6040830187612a13565b612cfc6060830186612a13565b612d096080830185612a13565b612d1660a0830184612a13565b979650505050505050565b6000606082019050612d366000830186612a13565b612d436020830185612a13565b612d506040830184612a13565b949350505050565b6000604051905081810181811067ffffffffffffffff82111715612d7b57600080fd5b8060405250919050565b600067ffffffffffffffff821115612d9c57600080fd5b601f19601f8301169050602081019050919050565b6000819050602082019050919050565b6000819050602082019050919050565b6000819050602082019050919050565b600081519050919050565b600081519050919050565b600081519050919050565b600081519050919050565b6000602082019050919050565b6000602082019050919050565b6000602082019050919050565b600082825260208201905092915050565b600082825260208201905092915050565b600082825260208201905092915050565b600082825260208201905092915050565b600082825260208201905092915050565b6000612e9482612e9b565b9050919050565b600073ffffffffffffffffffffffffffffffffffffffff82169050919050565b6000819050919050565b82818337600083830152505050565b60005b83811015612ef2578082015181840152602081019050612ed7565b83811115612f01576000848401525b50505050565b6000601f19601f8301169050919050565b612f2181612e89565b8114612f2c57600080fd5b50565b612f3881612ebb565b8114612f4357600080fd5b5056fea264697066735822122099950365e2c44cbb25ba0d22836f7eee8d5746f211ff2b395b3322d7851c7b9064736f6c63430007000033",
  "immutableReferences": {},
  "source": "// SPDX-License-Identifier: GPL-3.0\r\n\r\npragma solidity >=0.7.0 <0.9.0;\r\npragma experimental ABIEncoderV2;\r\n\r\ncontract PriceTraceV1 {\r\n\r\n    struct PriceStatus{\r\n        uint status_id;\r\n        string name;\r\n        uint date;\r\n        uint avg_price;\r\n        uint category_id;\r\n        uint store_id;\r\n    }\r\n\r\n    struct Store {\r\n        string name;\r\n        string url;\r\n        uint store_id;\r\n        uint user_id;\r\n    }\r\n\r\n    struct User {\r\n        address userAddress;\r\n        uint level;\r\n        uint id_user;\r\n    }\r\n\r\n\r\n    struct Prize {\r\n        uint prize_id;\r\n        string name;\r\n        string description;\r\n        uint date;\r\n    }\r\n\r\n    struct PrizeUser{\r\n        uint prize_id;\r\n        uint user_id;\r\n        uint date;\r\n    }\r\n\r\n    struct Category {\r\n        uint category_id;\r\n        string name;\r\n        string description;\r\n    }\r\n\r\n    struct Product {\r\n        uint product_id;\r\n        string name;\r\n        uint price;\r\n        uint store_id;\r\n        uint price_date;\r\n        string description;\r\n        string url;\r\n    }\r\n\r\n    PriceStatus[] public allPriceStatus;\r\n    Store[] public allStores;\r\n    Prize[] public allPrizes;\r\n    PrizeUser[] public allPrizeUsers;\r\n    Category[] public allCategories;\r\n    Product[] public allProducts;\r\n\r\n    uint public lastUserId;\r\n    uint public lastPriceStatusId;\r\n    uint public lastStoreId;\r\n    uint public lastPrizeId;\r\n    uint public lastCategoryId;\r\n    uint public lastProductId;\r\n    mapping(address => User) users;\r\n    mapping(address => Store) user_stores;\r\n\r\n    function getNewUserId() public returns (uint) {\r\n        return lastUserId++;\r\n    }\r\n\r\n    function getNewPriceStatusId() public returns (uint) {\r\n        return lastPriceStatusId++;\r\n    }\r\n\r\n    function getNewStoreId() public returns (uint) {\r\n        return lastStoreId++;\r\n    }\r\n\r\n    function getNewPrizeId() public returns (uint) {\r\n        return lastPrizeId++;\r\n    }\r\n\r\n\r\n    function getNewCategoryId() public returns (uint) {\r\n        return lastCategoryId++;\r\n    }\r\n\r\n    function getNewProductId() public returns (uint) {\r\n        return lastProductId++;\r\n    }\r\n\r\n\r\n    function createUser(address _add) public returns (uint){\r\n        if(users[_add].userAddress != _add){\r\n            User memory user = User({\r\n                level: 1,\r\n                userAddress: _add,\r\n                id_user: getNewUserId()\r\n            });\r\n        \r\n            users[_add] = user;\r\n            return user.level;\r\n        } else {\r\n            return users[_add].level;\r\n        }\r\n        \r\n   \r\n    }\r\n\r\n    function getUser(address _add) public view returns (uint){\r\n        if(users[_add].userAddress != _add){\r\n            return 0;\r\n        }\r\n        return users[_add].level;\r\n    }\r\n\r\n    function getUserStore(address _add) public view returns (uint, string memory){\r\n        return (user_stores[_add].store_id, user_stores[_add].name);\r\n    }\r\n\r\n     function getUserStoreById(uint _id) public view returns (string memory, string memory){\r\n        for (uint i = 0; i < lastStoreId; i++) {\r\n          Store storage p = allStores[i];\r\n          if (p.store_id == _id) {\r\n            return (allStores[i].name, allStores[i].url);\r\n          }\r\n        }\r\n        return ('', '');\r\n    }\r\n\r\n    function createPriceStatus(string memory _name, uint _date, uint _avg_price, uint _categoty, uint _store) public {\r\n        PriceStatus memory price = PriceStatus({\r\n          name: _name,\r\n          date: _date,\r\n          avg_price: _avg_price,\r\n          category_id: _categoty,\r\n          store_id: _store,\r\n          status_id: getNewPriceStatusId()\r\n        });\r\n        allPriceStatus.push(price);\r\n    }\r\n\r\n    function createStore(string memory _name, string memory _url, address _add) public {\r\n        \r\n        Store memory store = Store({\r\n            name: _name,\r\n            url: _url,\r\n            user_id: users[_add].id_user,\r\n            store_id: getNewStoreId()\r\n        });\r\n        allStores.push(store);\r\n        user_stores[_add] = store;\r\n        \r\n    }\r\n\r\n    function createPrize(string memory _name, string memory _description, uint _date) public {\r\n        Prize memory prize = Prize({\r\n            name: _name,\r\n            description: _description,\r\n            date: _date,\r\n            prize_id: getNewPrizeId()\r\n        });\r\n        allPrizes.push(prize);\r\n    }\r\n\r\n    function createPrizeUser(uint _prize_id, uint _user_id, uint _date) public {\r\n        PrizeUser memory prizeuser = PrizeUser({\r\n            prize_id: _prize_id,\r\n            user_id: _user_id,\r\n            date: _date\r\n        });\r\n        allPrizeUsers.push(prizeuser);\r\n    }\r\n\r\n    function createCategory(string memory _name, string memory _description) public {\r\n        Category memory category = Category({\r\n            category_id: getNewCategoryId(),\r\n            name: _name,\r\n            description: _description\r\n        });\r\n        allCategories.push(category);\r\n    }\r\n\r\n    function createProduct(string memory _name, uint _price, uint _price_date, string memory _description, string memory _url, address _add) public {\r\n        Product memory product = Product({\r\n            product_id: getNewProductId(),\r\n            name:_name,\r\n            price:_price,\r\n            store_id:user_stores[_add].store_id,\r\n            price_date: _price_date,\r\n            description:_description,\r\n            url:_url\r\n        });\r\n        allProducts.push(product);\r\n    }\r\n\r\n    function getProducts() public view returns (Product[] memory){\r\n      Product[] memory id = new Product[](lastProductId);\r\n      for (uint i = 0; i < lastProductId; i++) {\r\n          Product storage p = allProducts[i];\r\n          id[i] = p;\r\n      }\r\n      return id;\r\n    }\r\n  \r\n\r\n\r\n    function getAveragePriceByCategory(uint _category, uint _start_date) public view returns (uint) {\r\n\r\n        uint average_return;\r\n        uint total;\r\n\r\n        for (uint i = 0; i < allPriceStatus.length; i++) {\r\n            if( allPriceStatus[i].category_id == _category && allPriceStatus[i].date >= _start_date) {\r\n                average_return = average_return + allPriceStatus[i].avg_price;\r\n                total = total + 1;\r\n            }\r\n        }\r\n        average_return = average_return/total;\r\n        return average_return;\r\n\r\n    }\r\n\r\n    function getAveragePriceByStore(uint _store, uint _start_date) public view returns (uint, uint[] memory, string[] memory, uint[] memory, uint[] memory, uint[] memory) {\r\n\r\n        uint average_return;\r\n        uint[] memory status_id = new uint[](allPriceStatus.length);\r\n        string[] memory name = new string[](allPriceStatus.length);\r\n        uint[] memory date= new uint[](allPriceStatus.length);\r\n        uint[] memory avg_price = new uint[](allPriceStatus.length);\r\n        uint[] memory category_id = new uint[](allPriceStatus.length);\r\n\r\n        uint total;\r\n        for (uint i = 0; i < allPriceStatus.length; i++) {\r\n            if( allPriceStatus[i].store_id == _store && allPriceStatus[i].date >= _start_date) {\r\n                status_id[total] = allPriceStatus[i].status_id;\r\n                name[total] = allPriceStatus[i].name;\r\n                date[total] = allPriceStatus[i].date;\r\n                avg_price[total] = allPriceStatus[i].avg_price;\r\n                category_id[total] = allPriceStatus[i].category_id;\r\n                average_return = average_return + allPriceStatus[i].avg_price;\r\n                total = total + 1;\r\n\r\n            }\r\n        }\r\n        average_return = average_return/total;\r\n        return (average_return, status_id, name, date, avg_price, category_id);\r\n\r\n    }\r\n\r\n\r\n\r\n\r\n}\r\n",
  "sourcePath": "C:\\Programao\\JS\\blockchain\\PriceTrace\\truffle\\contracts\\PriceTraceV1.sol",
  "compiler": {
    "name": "solc",
    "version": "0.7.0+commit.9e61f92b.Emscripten.clang"
  },
  "schemaVersion": "3.4.11",
  "updatedAt": "2022-12-13T21:55:27.712Z",
  "devdoc": {
    "kind": "dev",
    "methods": {},
    "version": 1
  },
  "userdoc": {
    "kind": "user",
    "methods": {},
    "version": 1
  }
}