{
  "contractName": "PriceTraceV1",
  "abi": [
    {
      "inputs": [
        {
          "internalType": "uint256",
          "name": "",
          "type": "uint256"
        }
      ],
      "name": "allCategories",
      "outputs": [
        {
          "internalType": "uint256",
          "name": "category_id",
          "type": "uint256"
        },
        {
          "internalType": "string",
          "name": "name",
          "type": "string"
        },
        {
          "internalType": "string",
          "name": "description",
          "type": "string"
        }
      ],
      "stateMutability": "view",
      "type": "function",
      "constant": true
    },
    {
      "inputs": [
        {
          "internalType": "uint256",
          "name": "",
          "type": "uint256"
        }
      ],
      "name": "allPriceStatus",
      "outputs": [
        {
          "internalType": "uint256",
          "name": "status_id",
          "type": "uint256"
        },
        {
          "internalType": "string",
          "name": "name",
          "type": "string"
        },
        {
          "internalType": "uint256",
          "name": "date",
          "type": "uint256"
        },
        {
          "internalType": "uint256",
          "name": "avg_price",
          "type": "uint256"
        },
        {
          "internalType": "uint256",
          "name": "category_id",
          "type": "uint256"
        },
        {
          "internalType": "uint256",
          "name": "store_id",
          "type": "uint256"
        }
      ],
      "stateMutability": "view",
      "type": "function",
      "constant": true
    },
    {
      "inputs": [
        {
          "internalType": "uint256",
          "name": "",
          "type": "uint256"
        }
      ],
      "name": "allPrizeUsers",
      "outputs": [
        {
          "internalType": "uint256",
          "name": "prize_id",
          "type": "uint256"
        },
        {
          "internalType": "uint256",
          "name": "user_id",
          "type": "uint256"
        },
        {
          "internalType": "uint256",
          "name": "date",
          "type": "uint256"
        }
      ],
      "stateMutability": "view",
      "type": "function",
      "constant": true
    },
    {
      "inputs": [
        {
          "internalType": "uint256",
          "name": "",
          "type": "uint256"
        }
      ],
      "name": "allPrizes",
      "outputs": [
        {
          "internalType": "uint256",
          "name": "prize_id",
          "type": "uint256"
        },
        {
          "internalType": "string",
          "name": "name",
          "type": "string"
        },
        {
          "internalType": "string",
          "name": "description",
          "type": "string"
        },
        {
          "internalType": "uint256",
          "name": "date",
          "type": "uint256"
        }
      ],
      "stateMutability": "view",
      "type": "function",
      "constant": true
    },
    {
      "inputs": [
        {
          "internalType": "uint256",
          "name": "",
          "type": "uint256"
        }
      ],
      "name": "allProducts",
      "outputs": [
        {
          "internalType": "uint256",
          "name": "product_id",
          "type": "uint256"
        },
        {
          "internalType": "string",
          "name": "name",
          "type": "string"
        },
        {
          "internalType": "uint256",
          "name": "price",
          "type": "uint256"
        },
        {
          "internalType": "uint256",
          "name": "store_id",
          "type": "uint256"
        },
        {
          "internalType": "uint256",
          "name": "price_date",
          "type": "uint256"
        },
        {
          "internalType": "string",
          "name": "description",
          "type": "string"
        },
        {
          "internalType": "string",
          "name": "url",
          "type": "string"
        },
        {
          "internalType": "string",
          "name": "imageurl",
          "type": "string"
        }
      ],
      "stateMutability": "view",
      "type": "function",
      "constant": true
    },
    {
      "inputs": [
        {
          "internalType": "uint256",
          "name": "",
          "type": "uint256"
        }
      ],
      "name": "allStores",
      "outputs": [
        {
          "internalType": "string",
          "name": "name",
          "type": "string"
        },
        {
          "internalType": "string",
          "name": "url",
          "type": "string"
        },
        {
          "internalType": "uint256",
          "name": "store_id",
          "type": "uint256"
        },
        {
          "internalType": "address",
          "name": "userAddress",
          "type": "address"
        },
        {
          "internalType": "uint256",
          "name": "level",
          "type": "uint256"
        }
      ],
      "stateMutability": "view",
      "type": "function",
      "constant": true
    },
    {
      "inputs": [],
      "name": "lastCategoryId",
      "outputs": [
        {
          "internalType": "uint256",
          "name": "",
          "type": "uint256"
        }
      ],
      "stateMutability": "view",
      "type": "function",
      "constant": true
    },
    {
      "inputs": [],
      "name": "lastPriceStatusId",
      "outputs": [
        {
          "internalType": "uint256",
          "name": "",
          "type": "uint256"
        }
      ],
      "stateMutability": "view",
      "type": "function",
      "constant": true
    },
    {
      "inputs": [],
      "name": "lastPrizeId",
      "outputs": [
        {
          "internalType": "uint256",
          "name": "",
          "type": "uint256"
        }
      ],
      "stateMutability": "view",
      "type": "function",
      "constant": true
    },
    {
      "inputs": [],
      "name": "lastProductId",
      "outputs": [
        {
          "internalType": "uint256",
          "name": "",
          "type": "uint256"
        }
      ],
      "stateMutability": "view",
      "type": "function",
      "constant": true
    },
    {
      "inputs": [],
      "name": "lastStoreId",
      "outputs": [
        {
          "internalType": "uint256",
          "name": "",
          "type": "uint256"
        }
      ],
      "stateMutability": "view",
      "type": "function",
      "constant": true
    },
    {
      "inputs": [],
      "name": "getNewPriceStatusId",
      "outputs": [
        {
          "internalType": "uint256",
          "name": "",
          "type": "uint256"
        }
      ],
      "stateMutability": "nonpayable",
      "type": "function"
    },
    {
      "inputs": [],
      "name": "getNewStoreId",
      "outputs": [
        {
          "internalType": "uint256",
          "name": "",
          "type": "uint256"
        }
      ],
      "stateMutability": "nonpayable",
      "type": "function"
    },
    {
      "inputs": [],
      "name": "getNewPrizeId",
      "outputs": [
        {
          "internalType": "uint256",
          "name": "",
          "type": "uint256"
        }
      ],
      "stateMutability": "nonpayable",
      "type": "function"
    },
    {
      "inputs": [],
      "name": "getNewCategoryId",
      "outputs": [
        {
          "internalType": "uint256",
          "name": "",
          "type": "uint256"
        }
      ],
      "stateMutability": "nonpayable",
      "type": "function"
    },
    {
      "inputs": [],
      "name": "getNewProductId",
      "outputs": [
        {
          "internalType": "uint256",
          "name": "",
          "type": "uint256"
        }
      ],
      "stateMutability": "nonpayable",
      "type": "function"
    },
    {
      "inputs": [
        {
          "internalType": "address",
          "name": "_add",
          "type": "address"
        }
      ],
      "name": "getUserStore",
      "outputs": [
        {
          "internalType": "uint256",
          "name": "",
          "type": "uint256"
        },
        {
          "internalType": "string",
          "name": "",
          "type": "string"
        }
      ],
      "stateMutability": "view",
      "type": "function",
      "constant": true
    },
    {
      "inputs": [
        {
          "internalType": "string",
          "name": "_name",
          "type": "string"
        },
        {
          "internalType": "uint256",
          "name": "_date",
          "type": "uint256"
        },
        {
          "internalType": "uint256",
          "name": "_avg_price",
          "type": "uint256"
        },
        {
          "internalType": "uint256",
          "name": "_categoty",
          "type": "uint256"
        },
        {
          "internalType": "uint256",
          "name": "_store",
          "type": "uint256"
        }
      ],
      "name": "createPriceStatus",
      "outputs": [],
      "stateMutability": "nonpayable",
      "type": "function"
    },
    {
      "inputs": [
        {
          "internalType": "string",
          "name": "_name",
          "type": "string"
        },
        {
          "internalType": "string",
          "name": "_url",
          "type": "string"
        },
        {
          "internalType": "address",
          "name": "_add",
          "type": "address"
        }
      ],
      "name": "createStore",
      "outputs": [],
      "stateMutability": "nonpayable",
      "type": "function"
    },
    {
      "inputs": [
        {
          "internalType": "string",
          "name": "_name",
          "type": "string"
        },
        {
          "internalType": "string",
          "name": "_description",
          "type": "string"
        },
        {
          "internalType": "uint256",
          "name": "_date",
          "type": "uint256"
        }
      ],
      "name": "createPrize",
      "outputs": [],
      "stateMutability": "nonpayable",
      "type": "function"
    },
    {
      "inputs": [
        {
          "internalType": "uint256",
          "name": "_prize_id",
          "type": "uint256"
        },
        {
          "internalType": "uint256",
          "name": "_user_id",
          "type": "uint256"
        },
        {
          "internalType": "uint256",
          "name": "_date",
          "type": "uint256"
        }
      ],
      "name": "createPrizeUser",
      "outputs": [],
      "stateMutability": "nonpayable",
      "type": "function"
    },
    {
      "inputs": [
        {
          "internalType": "string",
          "name": "_name",
          "type": "string"
        },
        {
          "internalType": "string",
          "name": "_description",
          "type": "string"
        }
      ],
      "name": "createCategory",
      "outputs": [],
      "stateMutability": "nonpayable",
      "type": "function"
    },
    {
      "inputs": [
        {
          "internalType": "string",
          "name": "_imageurl",
          "type": "string"
        },
        {
          "internalType": "string",
          "name": "_name",
          "type": "string"
        },
        {
          "internalType": "uint256",
          "name": "_price",
          "type": "uint256"
        },
        {
          "internalType": "uint256",
          "name": "_price_date",
          "type": "uint256"
        },
        {
          "internalType": "string",
          "name": "_description",
          "type": "string"
        },
        {
          "internalType": "string",
          "name": "_url",
          "type": "string"
        },
        {
          "internalType": "address",
          "name": "_add",
          "type": "address"
        }
      ],
      "name": "createProduct",
      "outputs": [],
      "stateMutability": "nonpayable",
      "type": "function"
    },
    {
      "inputs": [],
      "name": "getProducts",
      "outputs": [
        {
          "components": [
            {
              "internalType": "uint256",
              "name": "product_id",
              "type": "uint256"
            },
            {
              "internalType": "string",
              "name": "name",
              "type": "string"
            },
            {
              "internalType": "uint256",
              "name": "price",
              "type": "uint256"
            },
            {
              "internalType": "uint256",
              "name": "store_id",
              "type": "uint256"
            },
            {
              "internalType": "uint256",
              "name": "price_date",
              "type": "uint256"
            },
            {
              "internalType": "string",
              "name": "description",
              "type": "string"
            },
            {
              "internalType": "string",
              "name": "url",
              "type": "string"
            },
            {
              "internalType": "string",
              "name": "imageurl",
              "type": "string"
            }
          ],
          "internalType": "struct PriceTraceV1.Product[]",
          "name": "",
          "type": "tuple[]"
        },
        {
          "components": [
            {
              "internalType": "string",
              "name": "name",
              "type": "string"
            },
            {
              "internalType": "string",
              "name": "url",
              "type": "string"
            },
            {
              "internalType": "uint256",
              "name": "store_id",
              "type": "uint256"
            },
            {
              "internalType": "address",
              "name": "userAddress",
              "type": "address"
            },
            {
              "internalType": "uint256",
              "name": "level",
              "type": "uint256"
            }
          ],
          "internalType": "struct PriceTraceV1.Store[]",
          "name": "",
          "type": "tuple[]"
        }
      ],
      "stateMutability": "view",
      "type": "function",
      "constant": true
    },
    {
      "inputs": [
        {
          "internalType": "uint256",
          "name": "_id",
          "type": "uint256"
        }
      ],
      "name": "getStoreById",
      "outputs": [
        {
          "components": [
            {
              "internalType": "string",
              "name": "name",
              "type": "string"
            },
            {
              "internalType": "string",
              "name": "url",
              "type": "string"
            },
            {
              "internalType": "uint256",
              "name": "store_id",
              "type": "uint256"
            },
            {
              "internalType": "address",
              "name": "userAddress",
              "type": "address"
            },
            {
              "internalType": "uint256",
              "name": "level",
              "type": "uint256"
            }
          ],
          "internalType": "struct PriceTraceV1.Store",
          "name": "",
          "type": "tuple"
        }
      ],
      "stateMutability": "view",
      "type": "function",
      "constant": true
    },
    {
      "inputs": [
        {
          "internalType": "uint256",
          "name": "_category",
          "type": "uint256"
        },
        {
          "internalType": "uint256",
          "name": "_start_date",
          "type": "uint256"
        }
      ],
      "name": "getAveragePriceByCategory",
      "outputs": [
        {
          "internalType": "uint256",
          "name": "",
          "type": "uint256"
        }
      ],
      "stateMutability": "view",
      "type": "function",
      "constant": true
    },
    {
      "inputs": [
        {
          "internalType": "uint256",
          "name": "_store",
          "type": "uint256"
        },
        {
          "internalType": "uint256",
          "name": "_start_date",
          "type": "uint256"
        }
      ],
      "name": "getAveragePriceByStore",
      "outputs": [
        {
          "internalType": "uint256[]",
          "name": "",
          "type": "uint256[]"
        },
        {
          "internalType": "string[]",
          "name": "",
          "type": "string[]"
        },
        {
          "internalType": "uint256[]",
          "name": "",
          "type": "uint256[]"
        },
        {
          "internalType": "uint256[]",
          "name": "",
          "type": "uint256[]"
        },
        {
          "internalType": "uint256[]",
          "name": "",
          "type": "uint256[]"
        }
      ],
      "stateMutability": "view",
      "type": "function",
      "constant": true
    }
  ],
  "bytecode": "0x608060405234801561001057600080fd5b5061371a806100206000396000f3fe608060405234801561001057600080fd5b50600436106101a95760003560e01c80639d2fc5f0116100f9578063cb62137311610097578063ef21b12b11610071578063ef21b12b14610505578063f4ac57cf14610535578063f9d3b97f14610551578063feab409014610581576101a9565b8063cb62137314610494578063cfaaef56146104b0578063db6f1b8d146104e7576101a9565b8063b224b4e9116100d3578063b224b4e914610408578063b3af979b14610424578063c29b2f2014610442578063c36d35af14610461576101a9565b80639d2fc5f014610399578063b000378e146103b7578063b0e92ddc146103d3576101a9565b806353509540116101665780638cabb529116101405780638cabb529146103235780638dff9f921461033f578063911a3e321461035d5780639b8529ee1461037b576101a9565b806353509540146102a1578063685496f0146102d357806368aa8dca14610305576101a9565b80630c559cb3146101ae5780631abe6962146101cc57806322b2708b146101ea57806323ca679d1461021b578063298e113e1461024f57806332cfc4841461026d575b600080fd5b6101b661059d565b6040516101c391906130b5565b60405180910390f35b6101d46105a3565b6040516101e191906130b5565b60405180910390f35b61020460048036038101906101ff9190612733565b6105c1565b6040516102129291906130d0565b60405180910390f35b61023560048036038101906102309190612a7c565b6106df565b604051610246959493929190612fbc565b60405180910390f35b610257610d99565b60405161026491906130b5565b60405180910390f35b61028760048036038101906102829190612a53565b610db7565b604051610298959493929190613032565b60405180910390f35b6102bb60048036038101906102b69190612a53565b610f2d565b6040516102ca9392919061329a565b60405180910390f35b6102ed60048036038101906102e89190612a53565b610f67565b6040516102fc93929190613100565b60405180910390f35b61030d6110b1565b60405161031a91906130b5565b60405180910390f35b61033d60048036038101906103389190612847565b6110cf565b005b61034761117d565b60405161035491906130b5565b60405180910390f35b610365611183565b60405161037291906130b5565b60405180910390f35b6103836111a1565b60405161039091906130b5565b60405180910390f35b6103a16111a7565b6040516103ae91906130b5565b60405180910390f35b6103d160048036038101906103cc9190612ab8565b6111ad565b005b6103ed60048036038101906103e89190612a53565b61121e565b6040516103ff96959493929190613232565b60405180910390f35b610422600480360381019061041d919061275c565b6112f2565b005b61042c61138f565b60405161043991906130b5565b60405180910390f35b61044a611395565b604051610458929190612f85565b60405180910390f35b61047b60048036038101906104769190612a53565b6119c7565b60405161048b9493929190613145565b60405180910390f35b6104ae60048036038101906104a991906129c4565b611b17565b005b6104ca60048036038101906104c59190612a53565b611bd4565b6040516104de989796959493929190613198565b60405180910390f35b6104ef611e4c565b6040516104fc91906130b5565b60405180910390f35b61051f600480360381019061051a9190612a7c565b611e6a565b60405161052c91906130b5565b60405180910390f35b61054f600480360381019061054a91906127c8565b611fc2565b005b61056b60048036038101906105669190612a53565b61225e565b6040516105789190613093565b60405180910390f35b61059b600480360381019061059691906128c6565b612419565b005b60075481565b6000600a60008154809291906105b8906135a0565b91905055905090565b60006060600b60008473ffffffffffffffffffffffffffffffffffffffff1673ffffffffffffffffffffffffffffffffffffffff16815260200190815260200160002060020154600b60008573ffffffffffffffffffffffffffffffffffffffff1673ffffffffffffffffffffffffffffffffffffffff1681526020019081526020016000206000018080546106569061353d565b80601f01602080910402602001604051908101604052809291908181526020018280546106829061353d565b80156106cf5780601f106106a4576101008083540402835291602001916106cf565b820191906000526020600020905b8154815290600101906020018083116106b257829003601f168201915b5050505050905091509150915091565b60608060608060606000808054905067ffffffffffffffff81111561072d577f4e487b7100000000000000000000000000000000000000000000000000000000600052604160045260246000fd5b60405190808252806020026020018201604052801561075b5781602001602082028036833780820191505090505b5090506000808054905067ffffffffffffffff8111156107a4577f4e487b7100000000000000000000000000000000000000000000000000000000600052604160045260246000fd5b6040519080825280602002602001820160405280156107d757816020015b60608152602001906001900390816107c25790505b5090506000808054905067ffffffffffffffff811115610820577f4e487b7100000000000000000000000000000000000000000000000000000000600052604160045260246000fd5b60405190808252806020026020018201604052801561084e5781602001602082028036833780820191505090505b5090506000808054905067ffffffffffffffff811115610897577f4e487b7100000000000000000000000000000000000000000000000000000000600052604160045260246000fd5b6040519080825280602002602001820160405280156108c55781602001602082028036833780820191505090505b5090506000808054905067ffffffffffffffff81111561090e577f4e487b7100000000000000000000000000000000000000000000000000000000600052604160045260246000fd5b60405190808252806020026020018201604052801561093c5781602001602082028036833780820191505090505b5090506000805b600080549050811015610d79578d6000828154811061098b577f4e487b7100000000000000000000000000000000000000000000000000000000600052603260045260246000fd5b9060005260206000209060060201600501541480156109f557508c600082815481106109e0577f4e487b7100000000000000000000000000000000000000000000000000000000600052603260045260246000fd5b90600052602060002090600602016002015410155b15610d665760008181548110610a34577f4e487b7100000000000000000000000000000000000000000000000000000000600052603260045260246000fd5b906000526020600020906006020160000154878381518110610a7f577f4e487b7100000000000000000000000000000000000000000000000000000000600052603260045260246000fd5b60200260200101818152505060008181548110610ac5577f4e487b7100000000000000000000000000000000000000000000000000000000600052603260045260246000fd5b90600052602060002090600602016001018054610ae19061353d565b80601f0160208091040260200160405190810160405280929190818152602001828054610b0d9061353d565b8015610b5a5780601f10610b2f57610100808354040283529160200191610b5a565b820191906000526020600020905b815481529060010190602001808311610b3d57829003601f168201915b5050505050868381518110610b98577f4e487b7100000000000000000000000000000000000000000000000000000000600052603260045260246000fd5b602002602001018190525060008181548110610bdd577f4e487b7100000000000000000000000000000000000000000000000000000000600052603260045260246000fd5b906000526020600020906006020160020154858381518110610c28577f4e487b7100000000000000000000000000000000000000000000000000000000600052603260045260246000fd5b60200260200101818152505060008181548110610c6e577f4e487b7100000000000000000000000000000000000000000000000000000000600052603260045260246000fd5b906000526020600020906006020160030154848381518110610cb9577f4e487b7100000000000000000000000000000000000000000000000000000000600052603260045260246000fd5b60200260200101818152505060008181548110610cff577f4e487b7100000000000000000000000000000000000000000000000000000000600052603260045260246000fd5b906000526020600020906006020160040154838381518110610d4a577f4e487b7100000000000000000000000000000000000000000000000000000000600052603260045260246000fd5b602002602001018181525050600182610d639190613438565b91505b8080610d71906135a0565b915050610943565b5085858585859a509a509a509a509a505050505050509295509295909350565b600060086000815480929190610dae906135a0565b91905055905090565b60018181548110610dc757600080fd5b9060005260206000209060050201600091509050806000018054610dea9061353d565b80601f0160208091040260200160405190810160405280929190818152602001828054610e169061353d565b8015610e635780601f10610e3857610100808354040283529160200191610e63565b820191906000526020600020905b815481529060010190602001808311610e4657829003601f168201915b505050505090806001018054610e789061353d565b80601f0160208091040260200160405190810160405280929190818152602001828054610ea49061353d565b8015610ef15780601f10610ec657610100808354040283529160200191610ef1565b820191906000526020600020905b815481529060010190602001808311610ed457829003601f168201915b5050505050908060020154908060030160009054906101000a900473ffffffffffffffffffffffffffffffffffffffff16908060040154905085565b60038181548110610f3d57600080fd5b90600052602060002090600302016000915090508060000154908060010154908060020154905083565b60048181548110610f7757600080fd5b9060005260206000209060030201600091509050806000015490806001018054610fa09061353d565b80601f0160208091040260200160405190810160405280929190818152602001828054610fcc9061353d565b80156110195780601f10610fee57610100808354040283529160200191611019565b820191906000526020600020905b815481529060010190602001808311610ffc57829003601f168201915b50505050509080600201805461102e9061353d565b80601f016020809104026020016040519081016040528092919081815260200182805461105a9061353d565b80156110a75780601f1061107c576101008083540402835291602001916110a7565b820191906000526020600020905b81548152906001019060200180831161108a57829003601f168201915b5050505050905083565b6000600960008154809291906110c6906135a0565b91905055905090565b600060405180608001604052806110e4610d99565b8152602001858152602001848152602001838152509050600281908060018154018082558091505060019003906000526020600020906004020160009091909190915060008201518160000155602082015181600101908051906020019061114d929190612574565b50604082015181600201908051906020019061116a929190612574565b5060608201518160030155505050505050565b600a5481565b600060076000815480929190611198906135a0565b91905055905090565b60095481565b60085481565b600060405180606001604052808581526020018481526020018381525090506003819080600181540180825580915050600190039060005260206000209060030201600090919091909150600082015181600001556020820151816001015560408201518160020155505050505050565b6000818154811061122e57600080fd5b90600052602060002090600602016000915090508060000154908060010180546112579061353d565b80601f01602080910402602001604051908101604052809291908181526020018280546112839061353d565b80156112d05780601f106112a5576101008083540402835291602001916112d0565b820191906000526020600020905b8154815290600101906020018083116112b357829003601f168201915b5050505050908060020154908060030154908060040154908060050154905086565b600060405180606001604052806113076110b1565b8152602001848152602001838152509050600481908060018154018082558091505060019003906000526020600020906003020160009091909190915060008201518160000155602082015181600101908051906020019061136a929190612574565b506040820151816002019080519060200190611387929190612574565b505050505050565b60065481565b6060806000600a5467ffffffffffffffff8111156113dc577f4e487b7100000000000000000000000000000000000000000000000000000000600052604160045260246000fd5b60405190808252806020026020018201604052801561141557816020015b6114026125fa565b8152602001906001900390816113fa5790505b5090506000600a5467ffffffffffffffff81111561145c577f4e487b7100000000000000000000000000000000000000000000000000000000600052604160045260246000fd5b60405190808252806020026020018201604052801561149557816020015b61148261263f565b81526020019060019003908161147a5790505b50905060005b600a548110156119ba576000600582815481106114e1577f4e487b7100000000000000000000000000000000000000000000000000000000600052603260045260246000fd5b906000526020600020906008020190508060405180610100016040529081600082015481526020016001820180546115189061353d565b80601f01602080910402602001604051908101604052809291908181526020018280546115449061353d565b80156115915780601f1061156657610100808354040283529160200191611591565b820191906000526020600020905b81548152906001019060200180831161157457829003601f168201915b505050505081526020016002820154815260200160038201548152602001600482015481526020016005820180546115c89061353d565b80601f01602080910402602001604051908101604052809291908181526020018280546115f49061353d565b80156116415780601f1061161657610100808354040283529160200191611641565b820191906000526020600020905b81548152906001019060200180831161162457829003601f168201915b5050505050815260200160068201805461165a9061353d565b80601f01602080910402602001604051908101604052809291908181526020018280546116869061353d565b80156116d35780601f106116a8576101008083540402835291602001916116d3565b820191906000526020600020905b8154815290600101906020018083116116b657829003601f168201915b505050505081526020016007820180546116ec9061353d565b80601f01602080910402602001604051908101604052809291908181526020018280546117189061353d565b80156117655780601f1061173a57610100808354040283529160200191611765565b820191906000526020600020905b81548152906001019060200180831161174857829003601f168201915b5050505050815250508483815181106117a7577f4e487b7100000000000000000000000000000000000000000000000000000000600052603260045260246000fd5b6020026020010181905250600c6000826003015481526020019081526020016000206040518060a00160405290816000820180546117e49061353d565b80601f01602080910402602001604051908101604052809291908181526020018280546118109061353d565b801561185d5780601f106118325761010080835404028352916020019161185d565b820191906000526020600020905b81548152906001019060200180831161184057829003601f168201915b505050505081526020016001820180546118769061353d565b80601f01602080910402602001604051908101604052809291908181526020018280546118a29061353d565b80156118ef5780601f106118c4576101008083540402835291602001916118ef565b820191906000526020600020905b8154815290600101906020018083116118d257829003601f168201915b50505050508152602001600282015481526020016003820160009054906101000a900473ffffffffffffffffffffffffffffffffffffffff1673ffffffffffffffffffffffffffffffffffffffff1673ffffffffffffffffffffffffffffffffffffffff16815260200160048201548152505083838151811061199b577f4e487b7100000000000000000000000000000000000000000000000000000000600052603260045260246000fd5b60200260200101819052505080806119b2906135a0565b91505061149b565b5081819350935050509091565b600281815481106119d757600080fd5b9060005260206000209060040201600091509050806000015490806001018054611a009061353d565b80601f0160208091040260200160405190810160405280929190818152602001828054611a2c9061353d565b8015611a795780601f10611a4e57610100808354040283529160200191611a79565b820191906000526020600020905b815481529060010190602001808311611a5c57829003601f168201915b505050505090806002018054611a8e9061353d565b80601f0160208091040260200160405190810160405280929190818152602001828054611aba9061353d565b8015611b075780601f10611adc57610100808354040283529160200191611b07565b820191906000526020600020905b815481529060010190602001808311611aea57829003601f168201915b5050505050908060030154905084565b60006040518060c00160405280611b2c611e4c565b81526020018781526020018681526020018581526020018481526020018381525090506000819080600181540180825580915050600190039060005260206000209060060201600090919091909150600082015181600001556020820151816001019080519060200190611ba1929190612574565b5060408201518160020155606082015181600301556080820151816004015560a082015181600501555050505050505050565b60058181548110611be457600080fd5b9060005260206000209060080201600091509050806000015490806001018054611c0d9061353d565b80601f0160208091040260200160405190810160405280929190818152602001828054611c399061353d565b8015611c865780601f10611c5b57610100808354040283529160200191611c86565b820191906000526020600020905b815481529060010190602001808311611c6957829003601f168201915b505050505090806002015490806003015490806004015490806005018054611cad9061353d565b80601f0160208091040260200160405190810160405280929190818152602001828054611cd99061353d565b8015611d265780601f10611cfb57610100808354040283529160200191611d26565b820191906000526020600020905b815481529060010190602001808311611d0957829003601f168201915b505050505090806006018054611d3b9061353d565b80601f0160208091040260200160405190810160405280929190818152602001828054611d679061353d565b8015611db45780601f10611d8957610100808354040283529160200191611db4565b820191906000526020600020905b815481529060010190602001808311611d9757829003601f168201915b505050505090806007018054611dc99061353d565b80601f0160208091040260200160405190810160405280929190818152602001828054611df59061353d565b8015611e425780601f10611e1757610100808354040283529160200191611e42565b820191906000526020600020905b815481529060010190602001808311611e2557829003601f168201915b5050505050905088565b600060066000815480929190611e61906135a0565b91905055905090565b600080600080600090505b600080549050811015611fa8578560008281548110611ebd577f4e487b7100000000000000000000000000000000000000000000000000000000600052603260045260246000fd5b906000526020600020906006020160040154148015611f2757508460008281548110611f12577f4e487b7100000000000000000000000000000000000000000000000000000000600052603260045260246000fd5b90600052602060002090600602016002015410155b15611f955760008181548110611f66577f4e487b7100000000000000000000000000000000000000000000000000000000600052603260045260246000fd5b90600052602060002090600602016003015483611f839190613438565b9250600182611f929190613438565b91505b8080611fa0906135a0565b915050611e75565b508082611fb5919061348e565b9150819250505092915050565b6000611fcc611183565b905060006040518060a001604052808681526020018581526020018381526020018473ffffffffffffffffffffffffffffffffffffffff1681526020016001815250905060018190806001815401808255809150506001900390600052602060002090600502016000909190919091506000820151816000019080519060200190612058929190612574565b506020820151816001019080519060200190612075929190612574565b506040820151816002015560608201518160030160006101000a81548173ffffffffffffffffffffffffffffffffffffffff021916908373ffffffffffffffffffffffffffffffffffffffff16021790555060808201518160040155505080600b60008573ffffffffffffffffffffffffffffffffffffffff1673ffffffffffffffffffffffffffffffffffffffff168152602001908152602001600020600082015181600001908051906020019061212f929190612574565b50602082015181600101908051906020019061214c929190612574565b506040820151816002015560608201518160030160006101000a81548173ffffffffffffffffffffffffffffffffffffffff021916908373ffffffffffffffffffffffffffffffffffffffff1602179055506080820151816004015590505080600c600084815260200190815260200160002060008201518160000190805190602001906121db929190612574565b5060208201518160010190805190602001906121f8929190612574565b506040820151816002015560608201518160030160006101000a81548173ffffffffffffffffffffffffffffffffffffffff021916908373ffffffffffffffffffffffffffffffffffffffff160217905550608082015181600401559050505050505050565b61226661263f565b600c60008381526020019081526020016000206040518060a00160405290816000820180546122949061353d565b80601f01602080910402602001604051908101604052809291908181526020018280546122c09061353d565b801561230d5780601f106122e25761010080835404028352916020019161230d565b820191906000526020600020905b8154815290600101906020018083116122f057829003601f168201915b505050505081526020016001820180546123269061353d565b80601f01602080910402602001604051908101604052809291908181526020018280546123529061353d565b801561239f5780601f106123745761010080835404028352916020019161239f565b820191906000526020600020905b81548152906001019060200180831161238257829003601f168201915b50505050508152602001600282015481526020016003820160009054906101000a900473ffffffffffffffffffffffffffffffffffffffff1673ffffffffffffffffffffffffffffffffffffffff1673ffffffffffffffffffffffffffffffffffffffff1681526020016004820154815250509050919050565b600060405180610100016040528061242f6105a3565b8152602001888152602001878152602001600b60008573ffffffffffffffffffffffffffffffffffffffff1673ffffffffffffffffffffffffffffffffffffffff16815260200190815260200160002060020154815260200186815260200185815260200184815260200189815250905060058190806001815401808255809150506001900390600052602060002090600802016000909190919091506000820151816000015560208201518160010190805190602001906124f2929190612574565b5060408201518160020155606082015181600301556080820151816004015560a082015181600501908051906020019061252d929190612574565b5060c082015181600601908051906020019061254a929190612574565b5060e0820151816007019080519060200190612567929190612574565b5050505050505050505050565b8280546125809061353d565b90600052602060002090601f0160209004810192826125a257600085556125e9565b82601f106125bb57805160ff19168380011785556125e9565b828001600101855582156125e9579182015b828111156125e85782518255916020019190600101906125cd565b5b5090506125f69190612684565b5090565b60405180610100016040528060008152602001606081526020016000815260200160008152602001600081526020016060815260200160608152602001606081525090565b6040518060a00160405280606081526020016060815260200160008152602001600073ffffffffffffffffffffffffffffffffffffffff168152602001600081525090565b5b8082111561269d576000816000905550600101612685565b5090565b60006126b46126af846132f6565b6132d1565b9050828152602081018484840111156126cc57600080fd5b6126d78482856134fb565b509392505050565b6000813590506126ee816136b6565b92915050565b600082601f83011261270557600080fd5b81356127158482602086016126a1565b91505092915050565b60008135905061272d816136cd565b92915050565b60006020828403121561274557600080fd5b6000612753848285016126df565b91505092915050565b6000806040838503121561276f57600080fd5b600083013567ffffffffffffffff81111561278957600080fd5b612795858286016126f4565b925050602083013567ffffffffffffffff8111156127b257600080fd5b6127be858286016126f4565b9150509250929050565b6000806000606084860312156127dd57600080fd5b600084013567ffffffffffffffff8111156127f757600080fd5b612803868287016126f4565b935050602084013567ffffffffffffffff81111561282057600080fd5b61282c868287016126f4565b925050604061283d868287016126df565b9150509250925092565b60008060006060848603121561285c57600080fd5b600084013567ffffffffffffffff81111561287657600080fd5b612882868287016126f4565b935050602084013567ffffffffffffffff81111561289f57600080fd5b6128ab868287016126f4565b92505060406128bc8682870161271e565b9150509250925092565b600080600080600080600060e0888a0312156128e157600080fd5b600088013567ffffffffffffffff8111156128fb57600080fd5b6129078a828b016126f4565b975050602088013567ffffffffffffffff81111561292457600080fd5b6129308a828b016126f4565b96505060406129418a828b0161271e565b95505060606129528a828b0161271e565b945050608088013567ffffffffffffffff81111561296f57600080fd5b61297b8a828b016126f4565b93505060a088013567ffffffffffffffff81111561299857600080fd5b6129a48a828b016126f4565b92505060c06129b58a828b016126df565b91505092959891949750929550565b600080600080600060a086880312156129dc57600080fd5b600086013567ffffffffffffffff8111156129f657600080fd5b612a02888289016126f4565b9550506020612a138882890161271e565b9450506040612a248882890161271e565b9350506060612a358882890161271e565b9250506080612a468882890161271e565b9150509295509295909350565b600060208284031215612a6557600080fd5b6000612a738482850161271e565b91505092915050565b60008060408385031215612a8f57600080fd5b6000612a9d8582860161271e565b9250506020612aae8582860161271e565b9150509250929050565b600080600060608486031215612acd57600080fd5b6000612adb8682870161271e565b9350506020612aec8682870161271e565b9250506040612afd8682870161271e565b9150509250925092565b6000612b138383612d36565b905092915050565b6000612b278383612da8565b905092915050565b6000612b3b8383612e6d565b905092915050565b6000612b4f8383612f67565b60208301905092915050565b612b64816134bf565b82525050565b612b73816134bf565b82525050565b6000612b8482613367565b612b8e81856133d2565b935083602082028501612ba085613327565b8060005b85811015612bdc5784840389528151612bbd8582612b07565b9450612bc88361339e565b925060208a01995050600181019050612ba4565b50829750879550505050505092915050565b6000612bf982613372565b612c0381856133e3565b935083602082028501612c1585613337565b8060005b85811015612c515784840389528151612c328582612b1b565b9450612c3d836133ab565b925060208a01995050600181019050612c19565b50829750879550505050505092915050565b6000612c6e8261337d565b612c7881856133f4565b935083602082028501612c8a85613347565b8060005b85811015612cc65784840389528151612ca78582612b2f565b9450612cb2836133b8565b925060208a01995050600181019050612c8e565b50829750879550505050505092915050565b6000612ce382613388565b612ced8185613405565b9350612cf883613357565b8060005b83811015612d29578151612d108882612b43565b9750612d1b836133c5565b925050600181019050612cfc565b5085935050505092915050565b6000612d4182613393565b612d4b8185613416565b9350612d5b81856020860161350a565b612d64816136a5565b840191505092915050565b6000612d7a82613393565b612d848185613427565b9350612d9481856020860161350a565b612d9d816136a5565b840191505092915050565b600061010083016000830151612dc16000860182612f67565b5060208301518482036020860152612dd98282612d36565b9150506040830151612dee6040860182612f67565b506060830151612e016060860182612f67565b506080830151612e146080860182612f67565b5060a083015184820360a0860152612e2c8282612d36565b91505060c083015184820360c0860152612e468282612d36565b91505060e083015184820360e0860152612e608282612d36565b9150508091505092915050565b600060a0830160008301518482036000860152612e8a8282612d36565b91505060208301518482036020860152612ea48282612d36565b9150506040830151612eb96040860182612f67565b506060830151612ecc6060860182612b5b565b506080830151612edf6080860182612f67565b508091505092915050565b600060a0830160008301518482036000860152612f078282612d36565b91505060208301518482036020860152612f218282612d36565b9150506040830151612f366040860182612f67565b506060830151612f496060860182612b5b565b506080830151612f5c6080860182612f67565b508091505092915050565b612f70816134f1565b82525050565b612f7f816134f1565b82525050565b60006040820190508181036000830152612f9f8185612bee565b90508181036020830152612fb38184612c63565b90509392505050565b600060a0820190508181036000830152612fd68188612cd8565b90508181036020830152612fea8187612b79565b90508181036040830152612ffe8186612cd8565b905081810360608301526130128185612cd8565b905081810360808301526130268184612cd8565b90509695505050505050565b600060a082019050818103600083015261304c8188612d6f565b905081810360208301526130608187612d6f565b905061306f6040830186612f76565b61307c6060830185612b6a565b6130896080830184612f76565b9695505050505050565b600060208201905081810360008301526130ad8184612eea565b905092915050565b60006020820190506130ca6000830184612f76565b92915050565b60006040820190506130e56000830185612f76565b81810360208301526130f78184612d6f565b90509392505050565b60006060820190506131156000830186612f76565b81810360208301526131278185612d6f565b9050818103604083015261313b8184612d6f565b9050949350505050565b600060808201905061315a6000830187612f76565b818103602083015261316c8186612d6f565b905081810360408301526131808185612d6f565b905061318f6060830184612f76565b95945050505050565b6000610100820190506131ae600083018b612f76565b81810360208301526131c0818a612d6f565b90506131cf6040830189612f76565b6131dc6060830188612f76565b6131e96080830187612f76565b81810360a08301526131fb8186612d6f565b905081810360c083015261320f8185612d6f565b905081810360e08301526132238184612d6f565b90509998505050505050505050565b600060c0820190506132476000830189612f76565b81810360208301526132598188612d6f565b90506132686040830187612f76565b6132756060830186612f76565b6132826080830185612f76565b61328f60a0830184612f76565b979650505050505050565b60006060820190506132af6000830186612f76565b6132bc6020830185612f76565b6132c96040830184612f76565b949350505050565b60006132db6132ec565b90506132e7828261356f565b919050565b6000604051905090565b600067ffffffffffffffff82111561331157613310613676565b5b61331a826136a5565b9050602081019050919050565b6000819050602082019050919050565b6000819050602082019050919050565b6000819050602082019050919050565b6000819050602082019050919050565b600081519050919050565b600081519050919050565b600081519050919050565b600081519050919050565b600081519050919050565b6000602082019050919050565b6000602082019050919050565b6000602082019050919050565b6000602082019050919050565b600082825260208201905092915050565b600082825260208201905092915050565b600082825260208201905092915050565b600082825260208201905092915050565b600082825260208201905092915050565b600082825260208201905092915050565b6000613443826134f1565b915061344e836134f1565b9250827fffffffffffffffffffffffffffffffffffffffffffffffffffffffffffffffff03821115613483576134826135e9565b5b828201905092915050565b6000613499826134f1565b91506134a4836134f1565b9250826134b4576134b3613618565b5b828204905092915050565b60006134ca826134d1565b9050919050565b600073ffffffffffffffffffffffffffffffffffffffff82169050919050565b6000819050919050565b82818337600083830152505050565b60005b8381101561352857808201518184015260208101905061350d565b83811115613537576000848401525b50505050565b6000600282049050600182168061355557607f821691505b6020821081141561356957613568613647565b5b50919050565b613578826136a5565b810181811067ffffffffffffffff8211171561359757613596613676565b5b80604052505050565b60006135ab826134f1565b91507fffffffffffffffffffffffffffffffffffffffffffffffffffffffffffffffff8214156135de576135dd6135e9565b5b600182019050919050565b7f4e487b7100000000000000000000000000000000000000000000000000000000600052601160045260246000fd5b7f4e487b7100000000000000000000000000000000000000000000000000000000600052601260045260246000fd5b7f4e487b7100000000000000000000000000000000000000000000000000000000600052602260045260246000fd5b7f4e487b7100000000000000000000000000000000000000000000000000000000600052604160045260246000fd5b6000601f19601f8301169050919050565b6136bf816134bf565b81146136ca57600080fd5b50565b6136d6816134f1565b81146136e157600080fd5b5056fea2646970667358221220590abea509d6e3df8e1fcd0656a12fb3e57f5ba9d4305bffb3d09e693d42bb8d64736f6c63430008010033",
  "immutableReferences": {},
  "source": "// SPDX-License-Identifier: GPL-3.0\r\n\r\npragma solidity >=0.7.0 <0.9.0;\r\npragma experimental ABIEncoderV2;\r\n\r\ncontract PriceTraceV1 {\r\n\r\n    struct PriceStatus{\r\n        uint status_id;\r\n        string name;\r\n        uint date;\r\n        uint avg_price;\r\n        uint category_id;\r\n        uint store_id;\r\n    }\r\n\r\n    struct Store {\r\n        string name;\r\n        string url;\r\n        uint store_id;\r\n        address userAddress;\r\n        uint level;\r\n    }\r\n\r\n    \r\n    struct Prize {\r\n        uint prize_id;\r\n        string name;\r\n        string description;\r\n        uint date;\r\n    }\r\n\r\n    struct PrizeUser{\r\n        uint prize_id;\r\n        uint user_id;\r\n        uint date;\r\n    }\r\n\r\n    struct Category {\r\n        uint category_id;\r\n        string name;\r\n        string description;\r\n    }\r\n\r\n    struct Product {\r\n        uint product_id;\r\n        string name;\r\n        uint price;\r\n        uint store_id;\r\n        uint price_date;\r\n        string description;\r\n        string url;\r\n        string imageurl;\r\n    }\r\n\r\n    PriceStatus[] public allPriceStatus;\r\n    Store[] public allStores;\r\n    Prize[] public allPrizes;\r\n    PrizeUser[] public allPrizeUsers;\r\n    Category[] public allCategories;\r\n    Product[] public allProducts;\r\n\r\n    \r\n    uint public lastPriceStatusId;\r\n    uint public lastStoreId;\r\n    uint public lastPrizeId;\r\n    uint public lastCategoryId;\r\n    uint public lastProductId;\r\n    mapping(address => Store) user_stores;\r\n    mapping(uint => Store) byid_stores;\r\n\r\n    \r\n    function getNewPriceStatusId() public returns (uint) {\r\n        return lastPriceStatusId++;\r\n    }\r\n\r\n    function getNewStoreId() public returns (uint) {\r\n        return lastStoreId++;\r\n    }\r\n\r\n    function getNewPrizeId() public returns (uint) {\r\n        return lastPrizeId++;\r\n    }\r\n\r\n\r\n    function getNewCategoryId() public returns (uint) {\r\n        return lastCategoryId++;\r\n    }\r\n\r\n    function getNewProductId() public returns (uint) {\r\n        return lastProductId++;\r\n    }\r\n\r\n\r\n    \r\n\r\n    function getUserStore(address _add) public view returns (uint, string memory){\r\n        return (user_stores[_add].store_id, user_stores[_add].name);\r\n    }\r\n\r\n    function createPriceStatus(string memory _name, uint _date, uint _avg_price, uint _categoty, uint _store) public {\r\n        PriceStatus memory price = PriceStatus({\r\n          name: _name,\r\n          date: _date,\r\n          avg_price: _avg_price,\r\n          category_id: _categoty,\r\n          store_id: _store,\r\n          status_id: getNewPriceStatusId()\r\n        });\r\n        allPriceStatus.push(price);\r\n    }\r\n\r\n    function createStore(string memory _name, string memory _url, address _add) public {\r\n        uint store_id = getNewStoreId();\r\n        Store memory store = Store({\r\n            name: _name,\r\n            url: _url,\r\n            level: 1,\r\n            userAddress: _add,\r\n            store_id: store_id\r\n        });\r\n        allStores.push(store);\r\n        user_stores[_add] = store;\r\n        byid_stores[store_id] = store;\r\n         \r\n    }\r\n\r\n    function createPrize(string memory _name, string memory _description, uint _date) public {\r\n        Prize memory prize = Prize({\r\n            name: _name,\r\n            description: _description,\r\n            date: _date,\r\n            prize_id: getNewPrizeId()\r\n        });\r\n        allPrizes.push(prize);\r\n    }\r\n\r\n    function createPrizeUser(uint _prize_id, uint _user_id, uint _date) public {\r\n        PrizeUser memory prizeuser = PrizeUser({\r\n            prize_id: _prize_id,\r\n            user_id: _user_id,\r\n            date: _date\r\n        });\r\n        allPrizeUsers.push(prizeuser);\r\n    }\r\n\r\n    function createCategory(string memory _name, string memory _description) public {\r\n        Category memory category = Category({\r\n            category_id: getNewCategoryId(),\r\n            name: _name,\r\n            description: _description\r\n        });\r\n        allCategories.push(category);\r\n    }\r\n\r\n    function createProduct(string memory _imageurl, string memory _name, uint _price, uint _price_date, string memory _description, string memory _url, address _add) public {\r\n        Product memory product = Product({\r\n            product_id: getNewProductId(),\r\n            name:_name,\r\n            price:_price,\r\n            store_id:user_stores[_add].store_id,\r\n            price_date: _price_date,\r\n            description:_description,\r\n            url:_url,\r\n            imageurl:_imageurl\r\n        });\r\n        allProducts.push(product);\r\n    }\r\n\r\n    function getProducts() public view returns (Product[] memory, Store[] memory){\r\n      Product[] memory id = new Product[](lastProductId);\r\n      Store[] memory id_store = new Store[](lastProductId);\r\n      for (uint i = 0; i < lastProductId; i++) {\r\n          Product storage p = allProducts[i];\r\n          id[i] = p;\r\n          id_store[i] = byid_stores[p.store_id];\r\n      }\r\n      return (id, id_store);\r\n    }\r\n\r\n    function getStoreById(uint _id) public view returns (Store memory){\r\n      return byid_stores[_id];\r\n    }\r\n  \r\n\r\n\r\n    function getAveragePriceByCategory(uint _category, uint _start_date) public view returns (uint) {\r\n\r\n        uint average_return;\r\n        uint total;\r\n\r\n        for (uint i = 0; i < allPriceStatus.length; i++) {\r\n            if( allPriceStatus[i].category_id == _category && allPriceStatus[i].date >= _start_date) {\r\n                average_return = average_return + allPriceStatus[i].avg_price;\r\n                total = total + 1;\r\n            }\r\n        }\r\n        average_return = average_return/total;\r\n        return average_return;\r\n\r\n    }\r\n\r\n    function getAveragePriceByStore(uint _store, uint _start_date) public view returns (uint[] memory, string[] memory, uint[] memory, uint[] memory, uint[] memory) {\r\n\r\n      \r\n        uint[] memory status_id = new uint[](allPriceStatus.length);\r\n        string[] memory name = new string[](allPriceStatus.length);\r\n        uint[] memory date= new uint[](allPriceStatus.length);\r\n        uint[] memory avg_price = new uint[](allPriceStatus.length);\r\n        uint[] memory category_id = new uint[](allPriceStatus.length);\r\n\r\n        uint total = 0;\r\n        for (uint i = 0; i < allPriceStatus.length; i++) {\r\n            if( allPriceStatus[i].store_id == _store && allPriceStatus[i].date >= _start_date) {\r\n                status_id[total] = allPriceStatus[i].status_id;\r\n                name[total] = allPriceStatus[i].name;\r\n                date[total] = allPriceStatus[i].date;\r\n                avg_price[total] = allPriceStatus[i].avg_price;\r\n                category_id[total] = allPriceStatus[i].category_id;\r\n                total = total + 1;\r\n\r\n            }\r\n        }\r\n        return (status_id, name, date, avg_price, category_id);\r\n\r\n    }\r\n\r\n\r\n\r\n\r\n}\r\n",
  "sourcePath": "/home/larissagr/Documentos/UFSC2022/PriceTrace/truffle/contracts/PriceTraceV1.sol",
  "compiler": {
    "name": "solc",
    "version": "0.8.1+commit.df193b15.Emscripten.clang"
  },
  "schemaVersion": "3.4.11",
  "updatedAt": "2022-12-14T10:26:40.308Z",
  "networkType": "ethereum",
  "devdoc": {
    "kind": "dev",
    "methods": {},
    "version": 1
  },
  "userdoc": {
    "kind": "user",
    "methods": {},
    "version": 1
  }
}