{
  "contractName": "PriceTraceV1",
  "abi": [
    {
      "inputs": [
        {
          "internalType": "uint256",
          "name": "",
          "type": "uint256"
        }
      ],
      "name": "allCategories",
      "outputs": [
        {
          "internalType": "uint256",
          "name": "category_id",
          "type": "uint256"
        },
        {
          "internalType": "string",
          "name": "name",
          "type": "string"
        },
        {
          "internalType": "string",
          "name": "description",
          "type": "string"
        }
      ],
      "stateMutability": "view",
      "type": "function",
      "constant": true
    },
    {
      "inputs": [
        {
          "internalType": "uint256",
          "name": "",
          "type": "uint256"
        }
      ],
      "name": "allPriceStatus",
      "outputs": [
        {
          "internalType": "uint256",
          "name": "status_id",
          "type": "uint256"
        },
        {
          "internalType": "string",
          "name": "name",
          "type": "string"
        },
        {
          "internalType": "uint256",
          "name": "date",
          "type": "uint256"
        },
        {
          "internalType": "uint256",
          "name": "avg_price",
          "type": "uint256"
        },
        {
          "internalType": "uint256",
          "name": "category_id",
          "type": "uint256"
        },
        {
          "internalType": "uint256",
          "name": "store_id",
          "type": "uint256"
        }
      ],
      "stateMutability": "view",
      "type": "function",
      "constant": true
    },
    {
      "inputs": [
        {
          "internalType": "uint256",
          "name": "",
          "type": "uint256"
        }
      ],
      "name": "allPrizeUsers",
      "outputs": [
        {
          "internalType": "uint256",
          "name": "prize_id",
          "type": "uint256"
        },
        {
          "internalType": "uint256",
          "name": "user_id",
          "type": "uint256"
        },
        {
          "internalType": "uint256",
          "name": "date",
          "type": "uint256"
        }
      ],
      "stateMutability": "view",
      "type": "function",
      "constant": true
    },
    {
      "inputs": [
        {
          "internalType": "uint256",
          "name": "",
          "type": "uint256"
        }
      ],
      "name": "allPrizes",
      "outputs": [
        {
          "internalType": "uint256",
          "name": "prize_id",
          "type": "uint256"
        },
        {
          "internalType": "string",
          "name": "name",
          "type": "string"
        },
        {
          "internalType": "string",
          "name": "description",
          "type": "string"
        },
        {
          "internalType": "uint256",
          "name": "date",
          "type": "uint256"
        }
      ],
      "stateMutability": "view",
      "type": "function",
      "constant": true
    },
    {
      "inputs": [
        {
          "internalType": "uint256",
          "name": "",
          "type": "uint256"
        }
      ],
      "name": "allProducts",
      "outputs": [
        {
          "internalType": "uint256",
          "name": "product_id",
          "type": "uint256"
        },
        {
          "internalType": "string",
          "name": "name",
          "type": "string"
        },
        {
          "internalType": "uint256",
          "name": "price",
          "type": "uint256"
        },
        {
          "internalType": "uint256",
          "name": "store_id",
          "type": "uint256"
        },
        {
          "internalType": "uint256",
          "name": "price_date",
          "type": "uint256"
        },
        {
          "internalType": "string",
          "name": "description",
          "type": "string"
        },
        {
          "internalType": "string",
          "name": "url",
          "type": "string"
        }
      ],
      "stateMutability": "view",
      "type": "function",
      "constant": true
    },
    {
      "inputs": [
        {
          "internalType": "uint256",
          "name": "",
          "type": "uint256"
        }
      ],
      "name": "allStores",
      "outputs": [
        {
          "internalType": "string",
          "name": "name",
          "type": "string"
        },
        {
          "internalType": "string",
          "name": "url",
          "type": "string"
        },
        {
          "internalType": "uint256",
          "name": "store_id",
          "type": "uint256"
        },
        {
          "internalType": "uint256",
          "name": "user_id",
          "type": "uint256"
        }
      ],
      "stateMutability": "view",
      "type": "function",
      "constant": true
    },
    {
      "inputs": [],
      "name": "lastCategoryId",
      "outputs": [
        {
          "internalType": "uint256",
          "name": "",
          "type": "uint256"
        }
      ],
      "stateMutability": "view",
      "type": "function",
      "constant": true
    },
    {
      "inputs": [],
      "name": "lastPriceStatusId",
      "outputs": [
        {
          "internalType": "uint256",
          "name": "",
          "type": "uint256"
        }
      ],
      "stateMutability": "view",
      "type": "function",
      "constant": true
    },
    {
      "inputs": [],
      "name": "lastPrizeId",
      "outputs": [
        {
          "internalType": "uint256",
          "name": "",
          "type": "uint256"
        }
      ],
      "stateMutability": "view",
      "type": "function",
      "constant": true
    },
    {
      "inputs": [],
      "name": "lastProductId",
      "outputs": [
        {
          "internalType": "uint256",
          "name": "",
          "type": "uint256"
        }
      ],
      "stateMutability": "view",
      "type": "function",
      "constant": true
    },
    {
      "inputs": [],
      "name": "lastStoreId",
      "outputs": [
        {
          "internalType": "uint256",
          "name": "",
          "type": "uint256"
        }
      ],
      "stateMutability": "view",
      "type": "function",
      "constant": true
    },
    {
      "inputs": [],
      "name": "lastUserId",
      "outputs": [
        {
          "internalType": "uint256",
          "name": "",
          "type": "uint256"
        }
      ],
      "stateMutability": "view",
      "type": "function",
      "constant": true
    },
    {
      "inputs": [],
      "name": "getNewUserId",
      "outputs": [
        {
          "internalType": "uint256",
          "name": "",
          "type": "uint256"
        }
      ],
      "stateMutability": "nonpayable",
      "type": "function"
    },
    {
      "inputs": [],
      "name": "getNewPriceStatusId",
      "outputs": [
        {
          "internalType": "uint256",
          "name": "",
          "type": "uint256"
        }
      ],
      "stateMutability": "nonpayable",
      "type": "function"
    },
    {
      "inputs": [],
      "name": "getNewStoreId",
      "outputs": [
        {
          "internalType": "uint256",
          "name": "",
          "type": "uint256"
        }
      ],
      "stateMutability": "nonpayable",
      "type": "function"
    },
    {
      "inputs": [],
      "name": "getNewPrizeId",
      "outputs": [
        {
          "internalType": "uint256",
          "name": "",
          "type": "uint256"
        }
      ],
      "stateMutability": "nonpayable",
      "type": "function"
    },
    {
      "inputs": [],
      "name": "getNewCategoryId",
      "outputs": [
        {
          "internalType": "uint256",
          "name": "",
          "type": "uint256"
        }
      ],
      "stateMutability": "nonpayable",
      "type": "function"
    },
    {
      "inputs": [],
      "name": "getNewProductId",
      "outputs": [
        {
          "internalType": "uint256",
          "name": "",
          "type": "uint256"
        }
      ],
      "stateMutability": "nonpayable",
      "type": "function"
    },
    {
      "inputs": [
        {
          "internalType": "address",
          "name": "_add",
          "type": "address"
        }
      ],
      "name": "createUser",
      "outputs": [
        {
          "internalType": "uint256",
          "name": "",
          "type": "uint256"
        }
      ],
      "stateMutability": "nonpayable",
      "type": "function"
    },
    {
      "inputs": [
        {
          "internalType": "address",
          "name": "_add",
          "type": "address"
        }
      ],
      "name": "getUser",
      "outputs": [
        {
          "internalType": "uint256",
          "name": "",
          "type": "uint256"
        }
      ],
      "stateMutability": "view",
      "type": "function",
      "constant": true
    },
    {
      "inputs": [
        {
          "internalType": "address",
          "name": "_add",
          "type": "address"
        }
      ],
      "name": "getUserStore",
      "outputs": [
        {
          "internalType": "uint256",
          "name": "",
          "type": "uint256"
        },
        {
          "internalType": "string",
          "name": "",
          "type": "string"
        }
      ],
      "stateMutability": "view",
      "type": "function",
      "constant": true
    },
    {
      "inputs": [
        {
          "internalType": "string",
          "name": "_name",
          "type": "string"
        },
        {
          "internalType": "uint256",
          "name": "_date",
          "type": "uint256"
        },
        {
          "internalType": "uint256",
          "name": "_avg_price",
          "type": "uint256"
        },
        {
          "internalType": "uint256",
          "name": "_categoty",
          "type": "uint256"
        },
        {
          "internalType": "uint256",
          "name": "_store",
          "type": "uint256"
        }
      ],
      "name": "createPriceStatus",
      "outputs": [],
      "stateMutability": "nonpayable",
      "type": "function"
    },
    {
      "inputs": [
        {
          "internalType": "string",
          "name": "_name",
          "type": "string"
        },
        {
          "internalType": "string",
          "name": "_url",
          "type": "string"
        },
        {
          "internalType": "address",
          "name": "_add",
          "type": "address"
        }
      ],
      "name": "createStore",
      "outputs": [],
      "stateMutability": "nonpayable",
      "type": "function"
    },
    {
      "inputs": [
        {
          "internalType": "string",
          "name": "_name",
          "type": "string"
        },
        {
          "internalType": "string",
          "name": "_description",
          "type": "string"
        },
        {
          "internalType": "uint256",
          "name": "_date",
          "type": "uint256"
        }
      ],
      "name": "createPrize",
      "outputs": [],
      "stateMutability": "nonpayable",
      "type": "function"
    },
    {
      "inputs": [
        {
          "internalType": "uint256",
          "name": "_prize_id",
          "type": "uint256"
        },
        {
          "internalType": "uint256",
          "name": "_user_id",
          "type": "uint256"
        },
        {
          "internalType": "uint256",
          "name": "_date",
          "type": "uint256"
        }
      ],
      "name": "createPrizeUser",
      "outputs": [],
      "stateMutability": "nonpayable",
      "type": "function"
    },
    {
      "inputs": [
        {
          "internalType": "string",
          "name": "_name",
          "type": "string"
        },
        {
          "internalType": "string",
          "name": "_description",
          "type": "string"
        }
      ],
      "name": "createCategory",
      "outputs": [],
      "stateMutability": "nonpayable",
      "type": "function"
    },
    {
      "inputs": [
        {
          "internalType": "string",
          "name": "_name",
          "type": "string"
        },
        {
          "internalType": "uint256",
          "name": "_price",
          "type": "uint256"
        },
        {
          "internalType": "uint256",
          "name": "_price_date",
          "type": "uint256"
        },
        {
          "internalType": "string",
          "name": "_description",
          "type": "string"
        },
        {
          "internalType": "string",
          "name": "_url",
          "type": "string"
        },
        {
          "internalType": "address",
          "name": "_add",
          "type": "address"
        }
      ],
      "name": "createProduct",
      "outputs": [],
      "stateMutability": "nonpayable",
      "type": "function"
    },
    {
      "inputs": [],
      "name": "getProducts",
      "outputs": [
        {
          "components": [
            {
              "internalType": "uint256",
              "name": "product_id",
              "type": "uint256"
            },
            {
              "internalType": "string",
              "name": "name",
              "type": "string"
            },
            {
              "internalType": "uint256",
              "name": "price",
              "type": "uint256"
            },
            {
              "internalType": "uint256",
              "name": "store_id",
              "type": "uint256"
            },
            {
              "internalType": "uint256",
              "name": "price_date",
              "type": "uint256"
            },
            {
              "internalType": "string",
              "name": "description",
              "type": "string"
            },
            {
              "internalType": "string",
              "name": "url",
              "type": "string"
            }
          ],
          "internalType": "struct PriceTraceV1.Product[]",
          "name": "",
          "type": "tuple[]"
        }
      ],
      "stateMutability": "view",
      "type": "function",
      "constant": true
    },
    {
      "inputs": [
        {
          "internalType": "uint256",
          "name": "_category",
          "type": "uint256"
        },
        {
          "internalType": "uint256",
          "name": "_start_date",
          "type": "uint256"
        }
      ],
      "name": "getAveragePriceByCategory",
      "outputs": [
        {
          "internalType": "uint256",
          "name": "",
          "type": "uint256"
        }
      ],
      "stateMutability": "view",
      "type": "function",
      "constant": true
    },
    {
      "inputs": [
        {
          "internalType": "uint256",
          "name": "_store",
          "type": "uint256"
        },
        {
          "internalType": "uint256",
          "name": "_start_date",
          "type": "uint256"
        }
      ],
      "name": "getAveragePriceByStore",
      "outputs": [
        {
          "internalType": "uint256",
          "name": "",
          "type": "uint256"
        },
        {
          "internalType": "uint256[]",
          "name": "",
          "type": "uint256[]"
        },
        {
          "internalType": "string[]",
          "name": "",
          "type": "string[]"
        },
        {
          "internalType": "uint256[]",
          "name": "",
          "type": "uint256[]"
        },
        {
          "internalType": "uint256[]",
          "name": "",
          "type": "uint256[]"
        },
        {
          "internalType": "uint256[]",
          "name": "",
          "type": "uint256[]"
        }
      ],
      "stateMutability": "view",
      "type": "function",
      "constant": true
    }
  ],
  "bytecode": "0x608060405234801561001057600080fd5b50612d16806100206000396000f3fe608060405234801561001057600080fd5b50600436106101da5760003560e01c80639b8529ee11610104578063c29b2f20116100a2578063cfaaef5611610071578063cfaaef5614610598578063db6f1b8d146105ce578063ef21b12b146105ec578063f4ac57cf1461061c576101da565b8063c29b2f20146104fb578063c36d35af14610519578063cb6213731461054c578063cdd8761814610568576101da565b8063b000378e116100de578063b000378e14610470578063b0e92ddc1461048c578063b224b4e9146104c1578063b3af979b146104dd576101da565b80639b8529ee146104165780639d2fc5f014610434578063a0c684f314610452576101da565b806341b1991f1161017c5780636f77926b1161014b5780636f77926b1461038e5780638cabb529146103be5780638dff9f92146103da578063911a3e32146103f8576101da565b806341b1991f146102f0578063535095401461030c578063685496f01461033e57806368aa8dca14610370576101da565b806323ca679d116101b857806323ca679d1461024c578063298e113e1461028157806332cfc4841461029f578063348d4487146102d2576101da565b80630c559cb3146101df5780631abe6962146101fd57806322b2708b1461021b575b600080fd5b6101e7610638565b6040516101f49190612868565b60405180910390f35b61020561063e565b6040516102129190612868565b60405180910390f35b6102356004803603810190610230919061218a565b610656565b604051610243929190612907565b60405180910390f35b610266600480360381019061026191906124a6565b610784565b60405161027896959493929190612883565b60405180910390f35b610289610b9b565b6040516102969190612868565b60405180910390f35b6102b960048036038101906102b4919061247d565b610bb3565b6040516102c99493929190612815565b60405180910390f35b6102da610d20565b6040516102e79190612868565b60405180910390f35b61030a6004803603810190610305919061231d565b610d26565b005b6103266004803603810190610321919061247d565b610e62565b60405161033593929190612abb565b60405180910390f35b6103586004803603810190610353919061247d565b610e99565b60405161036793929190612937565b60405180910390f35b610378611000565b6040516103859190612868565b60405180910390f35b6103a860048036038101906103a3919061218a565b611018565b6040516103b59190612868565b60405180910390f35b6103d860048036038101906103d3919061229e565b611103565b005b6103e26111b7565b6040516103ef9190612868565b60405180910390f35b6104006111bd565b60405161040d9190612868565b60405180910390f35b61041e6111d5565b60405161042b9190612868565b60405180910390f35b61043c6111db565b6040516104499190612868565b60405180910390f35b61045a6111e1565b6040516104679190612868565b60405180910390f35b61048a600480360381019061048591906124e2565b6111f9565b005b6104a660048036038101906104a1919061247d565b611270565b6040516104b896959493929190612a53565b60405180910390f35b6104db60048036038101906104d691906121b3565b611351565b005b6104e56113f4565b6040516104f29190612868565b60405180910390f35b6105036113fa565b60405161051091906127f3565b60405180910390f35b610533600480360381019061052e919061247d565b6116c6565b604051610543949392919061297c565b60405180910390f35b610566600480360381019061056191906123ee565b611833565b005b610582600480360381019061057d919061218a565b6118f6565b60405161058f9190612868565b60405180910390f35b6105b260048036038101906105ad919061247d565b611ac6565b6040516105c597969594939291906129cf565b60405180910390f35b6105d6611cdd565b6040516105e39190612868565b60405180910390f35b610606600480360381019061060191906124a6565b611cf5565b6040516106139190612868565b60405180910390f35b6106366004803603810190610631919061221f565b611dac565b005b60085481565b6000600b600081548092919060010191905055905090565b60006060600d60008473ffffffffffffffffffffffffffffffffffffffff1673ffffffffffffffffffffffffffffffffffffffff16815260200190815260200160002060020154600d60008573ffffffffffffffffffffffffffffffffffffffff1673ffffffffffffffffffffffffffffffffffffffff168152602001908152602001600020600001808054600181600116156101000203166002900480601f0160208091040260200160405190810160405280929190818152602001828054600181600116156101000203166002900480156107745780601f1061074957610100808354040283529160200191610774565b820191906000526020600020905b81548152906001019060200180831161075757829003601f168201915b5050505050905091509150915091565b600060608060608060606000606060008054905067ffffffffffffffff811180156107ae57600080fd5b506040519080825280602002602001820160405280156107dd5781602001602082028036833780820191505090505b509050606060008054905067ffffffffffffffff811180156107fe57600080fd5b5060405190808252806020026020018201604052801561083257816020015b606081526020019060019003908161081d5790505b509050606060008054905067ffffffffffffffff8111801561085357600080fd5b506040519080825280602002602001820160405280156108825781602001602082028036833780820191505090505b509050606060008054905067ffffffffffffffff811180156108a357600080fd5b506040519080825280602002602001820160405280156108d25781602001602082028036833780820191505090505b509050606060008054905067ffffffffffffffff811180156108f357600080fd5b506040519080825280602002602001820160405280156109225781602001602082028036833780820191505090505b509050600080600090505b600080549050811015610b6b578f6000828154811061094857fe5b90600052602060002090600602016005015414801561098557508e6000828154811061097057fe5b90600052602060002090600602016002015410155b15610b5e576000818154811061099757fe5b9060005260206000209060060201600001548783815181106109b557fe5b602002602001018181525050600081815481106109ce57fe5b90600052602060002090600602016001018054600181600116156101000203166002900480601f016020809104026020016040519081016040528092919081815260200182805460018160011615610100020316600290048015610a735780601f10610a4857610100808354040283529160200191610a73565b820191906000526020600020905b815481529060010190602001808311610a5657829003601f168201915b5050505050868381518110610a8457fe5b602002602001018190525060008181548110610a9c57fe5b906000526020600020906006020160020154858381518110610aba57fe5b60200260200101818152505060008181548110610ad357fe5b906000526020600020906006020160030154848381518110610af157fe5b60200260200101818152505060008181548110610b0a57fe5b906000526020600020906006020160040154838381518110610b2857fe5b60200260200101818152505060008181548110610b4157fe5b906000526020600020906006020160030154880197506001820191505b808060010191505061092d565b50808781610b7557fe5b0496508686868686869c509c509c509c509c509c50505050505050509295509295509295565b60006009600081548092919060010191905055905090565b60018181548110610bc057fe5b9060005260206000209060040201600091509050806000018054600181600116156101000203166002900480601f016020809104026020016040519081016040528092919081815260200182805460018160011615610100020316600290048015610c6c5780601f10610c4157610100808354040283529160200191610c6c565b820191906000526020600020905b815481529060010190602001808311610c4f57829003601f168201915b505050505090806001018054600181600116156101000203166002900480601f016020809104026020016040519081016040528092919081815260200182805460018160011615610100020316600290048015610d0a5780601f10610cdf57610100808354040283529160200191610d0a565b820191906000526020600020905b815481529060010190602001808311610ced57829003601f168201915b5050505050908060020154908060030154905084565b60065481565b610d2e611f33565b6040518060e00160405280610d4161063e565b8152602001888152602001878152602001600d60008573ffffffffffffffffffffffffffffffffffffffff1673ffffffffffffffffffffffffffffffffffffffff1681526020019081526020016000206002015481526020018681526020018581526020018481525090506005819080600181540180825580915050600190039060005260206000209060070201600090919091909150600082015181600001556020820151816001019080519060200190610dfe929190611f70565b5060408201518160020155606082015181600301556080820151816004015560a0820151816005019080519060200190610e39929190611f70565b5060c0820151816006019080519060200190610e56929190611f70565b50505050505050505050565b60038181548110610e6f57fe5b90600052602060002090600302016000915090508060000154908060010154908060020154905083565b60048181548110610ea657fe5b9060005260206000209060030201600091509050806000015490806001018054600181600116156101000203166002900480601f016020809104026020016040519081016040528092919081815260200182805460018160011615610100020316600290048015610f585780601f10610f2d57610100808354040283529160200191610f58565b820191906000526020600020905b815481529060010190602001808311610f3b57829003601f168201915b505050505090806002018054600181600116156101000203166002900480601f016020809104026020016040519081016040528092919081815260200182805460018160011615610100020316600290048015610ff65780601f10610fcb57610100808354040283529160200191610ff6565b820191906000526020600020905b815481529060010190602001808311610fd957829003601f168201915b5050505050905083565b6000600a600081548092919060010191905055905090565b60008173ffffffffffffffffffffffffffffffffffffffff16600c60008473ffffffffffffffffffffffffffffffffffffffff1673ffffffffffffffffffffffffffffffffffffffff16815260200190815260200160002060000160009054906101000a900473ffffffffffffffffffffffffffffffffffffffff1673ffffffffffffffffffffffffffffffffffffffff16146110b857600090506110fe565b600c60008373ffffffffffffffffffffffffffffffffffffffff1673ffffffffffffffffffffffffffffffffffffffff1681526020019081526020016000206001015490505b919050565b61110b611ff0565b604051806080016040528061111e610b9b565b81526020018581526020018481526020018381525090506002819080600181540180825580915050600190039060005260206000209060040201600090919091909150600082015181600001556020820151816001019080519060200190611187929190611f70565b5060408201518160020190805190602001906111a4929190611f70565b5060608201518160030155505050505050565b600b5481565b60006008600081548092919060010191905055905090565b600a5481565b60095481565b60006006600081548092919060010191905055905090565b611201612018565b60405180606001604052808581526020018481526020018381525090506003819080600181540180825580915050600190039060005260206000209060030201600090919091909150600082015181600001556020820151816001015560408201518160020155505050505050565b6000818154811061127d57fe5b9060005260206000209060060201600091509050806000015490806001018054600181600116156101000203166002900480601f01602080910402602001604051908101604052809291908181526020018280546001816001161561010002031660029004801561132f5780601f106113045761010080835404028352916020019161132f565b820191906000526020600020905b81548152906001019060200180831161131257829003601f168201915b5050505050908060020154908060030154908060040154908060050154905086565b611359612039565b604051806060016040528061136c611000565b815260200184815260200183815250905060048190806001815401808255809150506001900390600052602060002090600302016000909190919091506000820151816000015560208201518160010190805190602001906113cf929190611f70565b5060408201518160020190805190602001906113ec929190611f70565b505050505050565b60075481565b606080600b5467ffffffffffffffff8111801561141657600080fd5b5060405190808252806020026020018201604052801561145057816020015b61143d611f33565b8152602001906001900390816114355790505b50905060005b600b548110156116be5760006005828154811061146f57fe5b90600052602060002090600702019050806040518060e001604052908160008201548152602001600182018054600181600116156101000203166002900480601f01602080910402602001604051908101604052809291908181526020018280546001816001161561010002031660029004801561152e5780601f106115035761010080835404028352916020019161152e565b820191906000526020600020905b81548152906001019060200180831161151157829003601f168201915b50505050508152602001600282015481526020016003820154815260200160048201548152602001600582018054600181600116156101000203166002900480601f0160208091040260200160405190810160405280929190818152602001828054600181600116156101000203166002900480156115ee5780601f106115c3576101008083540402835291602001916115ee565b820191906000526020600020905b8154815290600101906020018083116115d157829003601f168201915b50505050508152602001600682018054600181600116156101000203166002900480601f0160208091040260200160405190810160405280929190818152602001828054600181600116156101000203166002900480156116905780601f1061166557610100808354040283529160200191611690565b820191906000526020600020905b81548152906001019060200180831161167357829003601f168201915b5050505050815250508383815181106116a557fe5b6020026020010181905250508080600101915050611456565b508091505090565b600281815481106116d357fe5b9060005260206000209060040201600091509050806000015490806001018054600181600116156101000203166002900480601f0160208091040260200160405190810160405280929190818152602001828054600181600116156101000203166002900480156117855780601f1061175a57610100808354040283529160200191611785565b820191906000526020600020905b81548152906001019060200180831161176857829003601f168201915b505050505090806002018054600181600116156101000203166002900480601f0160208091040260200160405190810160405280929190818152602001828054600181600116156101000203166002900480156118235780601f106117f857610100808354040283529160200191611823565b820191906000526020600020905b81548152906001019060200180831161180657829003601f168201915b5050505050908060030154905084565b61183b61205a565b6040518060c0016040528061184e611cdd565b815260200187815260200186815260200185815260200184815260200183815250905060008190806001815401808255809150506001900390600052602060002090600602016000909190919091506000820151816000015560208201518160010190805190602001906118c3929190611f70565b5060408201518160020155606082015181600301556080820151816004015560a082015181600501555050505050505050565b60008173ffffffffffffffffffffffffffffffffffffffff16600c60008473ffffffffffffffffffffffffffffffffffffffff1673ffffffffffffffffffffffffffffffffffffffff16815260200190815260200160002060000160009054906101000a900473ffffffffffffffffffffffffffffffffffffffff1673ffffffffffffffffffffffffffffffffffffffff1614611a7b57611995612090565b60405180606001604052808473ffffffffffffffffffffffffffffffffffffffff168152602001600181526020016119cb6111e1565b815250905080600c60008573ffffffffffffffffffffffffffffffffffffffff1673ffffffffffffffffffffffffffffffffffffffff16815260200190815260200160002060008201518160000160006101000a81548173ffffffffffffffffffffffffffffffffffffffff021916908373ffffffffffffffffffffffffffffffffffffffff16021790555060208201518160010155604082015181600201559050508060200151915050611ac1565b600c60008373ffffffffffffffffffffffffffffffffffffffff1673ffffffffffffffffffffffffffffffffffffffff1681526020019081526020016000206001015490505b919050565b60058181548110611ad357fe5b9060005260206000209060070201600091509050806000015490806001018054600181600116156101000203166002900480601f016020809104026020016040519081016040528092919081815260200182805460018160011615610100020316600290048015611b855780601f10611b5a57610100808354040283529160200191611b85565b820191906000526020600020905b815481529060010190602001808311611b6857829003601f168201915b505050505090806002015490806003015490806004015490806005018054600181600116156101000203166002900480601f016020809104026020016040519081016040528092919081815260200182805460018160011615610100020316600290048015611c355780601f10611c0a57610100808354040283529160200191611c35565b820191906000526020600020905b815481529060010190602001808311611c1857829003601f168201915b505050505090806006018054600181600116156101000203166002900480601f016020809104026020016040519081016040528092919081815260200182805460018160011615610100020316600290048015611cd35780601f10611ca857610100808354040283529160200191611cd3565b820191906000526020600020905b815481529060010190602001808311611cb657829003601f168201915b5050505050905087565b60006007600081548092919060010191905055905090565b600080600080600090505b600080549050811015611d94578560008281548110611d1b57fe5b906000526020600020906006020160040154148015611d5857508460008281548110611d4357fe5b90600052602060002090600602016002015410155b15611d875760008181548110611d6a57fe5b906000526020600020906006020160030154830192506001820191505b8080600101915050611d00565b50808281611d9e57fe5b049150819250505092915050565b611db46120c7565b6040518060800160405280858152602001848152602001611dd36111bd565b8152602001600c60008573ffffffffffffffffffffffffffffffffffffffff1673ffffffffffffffffffffffffffffffffffffffff16815260200190815260200160002060020154815250905060018190806001815401808255809150506001900390600052602060002090600402016000909190919091506000820151816000019080519060200190611e68929190611f70565b506020820151816001019080519060200190611e85929190611f70565b506040820151816002015560608201518160030155505080600d60008473ffffffffffffffffffffffffffffffffffffffff1673ffffffffffffffffffffffffffffffffffffffff1681526020019081526020016000206000820151816000019080519060200190611ef8929190611f70565b506020820151816001019080519060200190611f15929190611f70565b50604082015181600201556060820151816003015590505050505050565b6040518060e00160405280600081526020016060815260200160008152602001600081526020016000815260200160608152602001606081525090565b828054600181600116156101000203166002900490600052602060002090601f016020900481019282601f10611fb157805160ff1916838001178555611fdf565b82800160010185558215611fdf579182015b82811115611fde578251825591602001919060010190611fc3565b5b509050611fec91906120ef565b5090565b6040518060800160405280600081526020016060815260200160608152602001600081525090565b60405180606001604052806000815260200160008152602001600081525090565b60405180606001604052806000815260200160608152602001606081525090565b6040518060c001604052806000815260200160608152602001600081526020016000815260200160008152602001600081525090565b6040518060600160405280600073ffffffffffffffffffffffffffffffffffffffff16815260200160008152602001600081525090565b6040518060800160405280606081526020016060815260200160008152602001600081525090565b5b808211156121085760008160009055506001016120f0565b5090565b60008135905061211b81612cb2565b92915050565b600082601f83011261213257600080fd5b813561214561214082612b1f565b612af2565b9150808252602083016020830185838301111561216157600080fd5b61216c838284612c5f565b50505092915050565b60008135905061218481612cc9565b92915050565b60006020828403121561219c57600080fd5b60006121aa8482850161210c565b91505092915050565b600080604083850312156121c657600080fd5b600083013567ffffffffffffffff8111156121e057600080fd5b6121ec85828601612121565b925050602083013567ffffffffffffffff81111561220957600080fd5b61221585828601612121565b9150509250929050565b60008060006060848603121561223457600080fd5b600084013567ffffffffffffffff81111561224e57600080fd5b61225a86828701612121565b935050602084013567ffffffffffffffff81111561227757600080fd5b61228386828701612121565b92505060406122948682870161210c565b9150509250925092565b6000806000606084860312156122b357600080fd5b600084013567ffffffffffffffff8111156122cd57600080fd5b6122d986828701612121565b935050602084013567ffffffffffffffff8111156122f657600080fd5b61230286828701612121565b925050604061231386828701612175565b9150509250925092565b60008060008060008060c0878903121561233657600080fd5b600087013567ffffffffffffffff81111561235057600080fd5b61235c89828a01612121565b965050602061236d89828a01612175565b955050604061237e89828a01612175565b945050606087013567ffffffffffffffff81111561239b57600080fd5b6123a789828a01612121565b935050608087013567ffffffffffffffff8111156123c457600080fd5b6123d089828a01612121565b92505060a06123e189828a0161210c565b9150509295509295509295565b600080600080600060a0868803121561240657600080fd5b600086013567ffffffffffffffff81111561242057600080fd5b61242c88828901612121565b955050602061243d88828901612175565b945050604061244e88828901612175565b935050606061245f88828901612175565b925050608061247088828901612175565b9150509295509295909350565b60006020828403121561248f57600080fd5b600061249d84828501612175565b91505092915050565b600080604083850312156124b957600080fd5b60006124c785828601612175565b92505060206124d885828601612175565b9150509250929050565b6000806000606084860312156124f757600080fd5b600061250586828701612175565b935050602061251686828701612175565b925050604061252786828701612175565b9150509250925092565b600061253d83836126b9565b905092915050565b6000612551838361272b565b905092915050565b600061256583836127d5565b60208301905092915050565b600061257c82612b7b565b6125868185612bce565b93508360208202850161259885612b4b565b8060005b858110156125d457848403895281516125b58582612531565b94506125c083612ba7565b925060208a0199505060018101905061259c565b50829750879550505050505092915050565b60006125f182612b86565b6125fb8185612bdf565b93508360208202850161260d85612b5b565b8060005b85811015612649578484038952815161262a8582612545565b945061263583612bb4565b925060208a01995050600181019050612611565b50829750879550505050505092915050565b600061266682612b91565b6126708185612bf0565b935061267b83612b6b565b8060005b838110156126ac5781516126938882612559565b975061269e83612bc1565b92505060018101905061267f565b5085935050505092915050565b60006126c482612b9c565b6126ce8185612c01565b93506126de818560208601612c6e565b6126e781612ca1565b840191505092915050565b60006126fd82612b9c565b6127078185612c12565b9350612717818560208601612c6e565b61272081612ca1565b840191505092915050565b600060e08301600083015161274360008601826127d5565b506020830151848203602086015261275b82826126b9565b915050604083015161277060408601826127d5565b50606083015161278360608601826127d5565b50608083015161279660808601826127d5565b5060a083015184820360a08601526127ae82826126b9565b91505060c083015184820360c08601526127c882826126b9565b9150508091505092915050565b6127de81612c55565b82525050565b6127ed81612c55565b82525050565b6000602082019050818103600083015261280d81846125e6565b905092915050565b6000608082019050818103600083015261282f81876126f2565b9050818103602083015261284381866126f2565b905061285260408301856127e4565b61285f60608301846127e4565b95945050505050565b600060208201905061287d60008301846127e4565b92915050565b600060c08201905061289860008301896127e4565b81810360208301526128aa818861265b565b905081810360408301526128be8187612571565b905081810360608301526128d2818661265b565b905081810360808301526128e6818561265b565b905081810360a08301526128fa818461265b565b9050979650505050505050565b600060408201905061291c60008301856127e4565b818103602083015261292e81846126f2565b90509392505050565b600060608201905061294c60008301866127e4565b818103602083015261295e81856126f2565b9050818103604083015261297281846126f2565b9050949350505050565b600060808201905061299160008301876127e4565b81810360208301526129a381866126f2565b905081810360408301526129b781856126f2565b90506129c660608301846127e4565b95945050505050565b600060e0820190506129e4600083018a6127e4565b81810360208301526129f681896126f2565b9050612a0560408301886127e4565b612a1260608301876127e4565b612a1f60808301866127e4565b81810360a0830152612a3181856126f2565b905081810360c0830152612a4581846126f2565b905098975050505050505050565b600060c082019050612a6860008301896127e4565b8181036020830152612a7a81886126f2565b9050612a8960408301876127e4565b612a9660608301866127e4565b612aa360808301856127e4565b612ab060a08301846127e4565b979650505050505050565b6000606082019050612ad060008301866127e4565b612add60208301856127e4565b612aea60408301846127e4565b949350505050565b6000604051905081810181811067ffffffffffffffff82111715612b1557600080fd5b8060405250919050565b600067ffffffffffffffff821115612b3657600080fd5b601f19601f8301169050602081019050919050565b6000819050602082019050919050565b6000819050602082019050919050565b6000819050602082019050919050565b600081519050919050565b600081519050919050565b600081519050919050565b600081519050919050565b6000602082019050919050565b6000602082019050919050565b6000602082019050919050565b600082825260208201905092915050565b600082825260208201905092915050565b600082825260208201905092915050565b600082825260208201905092915050565b600082825260208201905092915050565b6000612c2e82612c35565b9050919050565b600073ffffffffffffffffffffffffffffffffffffffff82169050919050565b6000819050919050565b82818337600083830152505050565b60005b83811015612c8c578082015181840152602081019050612c71565b83811115612c9b576000848401525b50505050565b6000601f19601f8301169050919050565b612cbb81612c23565b8114612cc657600080fd5b50565b612cd281612c55565b8114612cdd57600080fd5b5056fea26469706673582212205ab9af66f4c544e2cfb4459f91e46504e7d50f53d9b843b015aacea688470ee464736f6c63430007000033",
  "immutableReferences": {},
  "source": "// SPDX-License-Identifier: GPL-3.0\r\n\r\npragma solidity >=0.7.0 <0.9.0;\r\npragma experimental ABIEncoderV2;\r\n\r\ncontract PriceTraceV1 {\r\n\r\n    struct PriceStatus{\r\n        uint status_id;\r\n        string name;\r\n        uint date;\r\n        uint avg_price;\r\n        uint category_id;\r\n        uint store_id;\r\n    }\r\n\r\n    struct Store {\r\n        string name;\r\n        string url;\r\n        uint store_id;\r\n        uint user_id;\r\n    }\r\n\r\n    struct User {\r\n        address userAddress;\r\n        uint level;\r\n        uint id_user;\r\n    }\r\n\r\n\r\n    struct Prize {\r\n        uint prize_id;\r\n        string name;\r\n        string description;\r\n        uint date;\r\n    }\r\n\r\n    struct PrizeUser{\r\n        uint prize_id;\r\n        uint user_id;\r\n        uint date;\r\n    }\r\n\r\n    struct Category {\r\n        uint category_id;\r\n        string name;\r\n        string description;\r\n    }\r\n\r\n    struct Product {\r\n        uint product_id;\r\n        string name;\r\n        uint price;\r\n        uint store_id;\r\n        uint price_date;\r\n        string description;\r\n        string url;\r\n    }\r\n\r\n    PriceStatus[] public allPriceStatus;\r\n    Store[] public allStores;\r\n    Prize[] public allPrizes;\r\n    PrizeUser[] public allPrizeUsers;\r\n    Category[] public allCategories;\r\n    Product[] public allProducts;\r\n\r\n    uint public lastUserId;\r\n    uint public lastPriceStatusId;\r\n    uint public lastStoreId;\r\n    uint public lastPrizeId;\r\n    uint public lastCategoryId;\r\n    uint public lastProductId;\r\n    mapping(address => User) users;\r\n    mapping(address => Store) user_stores;\r\n\r\n    function getNewUserId() public returns (uint) {\r\n        return lastUserId++;\r\n    }\r\n\r\n    function getNewPriceStatusId() public returns (uint) {\r\n        return lastPriceStatusId++;\r\n    }\r\n\r\n    function getNewStoreId() public returns (uint) {\r\n        return lastStoreId++;\r\n    }\r\n\r\n    function getNewPrizeId() public returns (uint) {\r\n        return lastPrizeId++;\r\n    }\r\n\r\n\r\n    function getNewCategoryId() public returns (uint) {\r\n        return lastCategoryId++;\r\n    }\r\n\r\n    function getNewProductId() public returns (uint) {\r\n        return lastProductId++;\r\n    }\r\n\r\n\r\n    function createUser(address _add) public returns (uint){\r\n        if(users[_add].userAddress != _add){\r\n            User memory user = User({\r\n                level: 1,\r\n                userAddress: _add,\r\n                id_user: getNewUserId()\r\n            });\r\n        \r\n            users[_add] = user;\r\n            return user.level;\r\n        } else {\r\n            return users[_add].level;\r\n        }\r\n        \r\n   \r\n    }\r\n\r\n    function getUser(address _add) public view returns (uint){\r\n        if(users[_add].userAddress != _add){\r\n            return 0;\r\n        }\r\n        return users[_add].level;\r\n    }\r\n\r\n    function getUserStore(address _add) public view returns (uint, string memory){\r\n        return (user_stores[_add].store_id, user_stores[_add].name);\r\n    }\r\n\r\n    function createPriceStatus(string memory _name, uint _date, uint _avg_price, uint _categoty, uint _store) public {\r\n        PriceStatus memory price = PriceStatus({\r\n          name: _name,\r\n          date: _date,\r\n          avg_price: _avg_price,\r\n          category_id: _categoty,\r\n          store_id: _store,\r\n          status_id: getNewPriceStatusId()\r\n        });\r\n        allPriceStatus.push(price);\r\n    }\r\n\r\n    function createStore(string memory _name, string memory _url, address _add) public {\r\n        \r\n        Store memory store = Store({\r\n            name: _name,\r\n            url: _url,\r\n            user_id: users[_add].id_user,\r\n            store_id: getNewStoreId()\r\n        });\r\n        allStores.push(store);\r\n        user_stores[_add] = store;\r\n        \r\n    }\r\n\r\n    function createPrize(string memory _name, string memory _description, uint _date) public {\r\n        Prize memory prize = Prize({\r\n            name: _name,\r\n            description: _description,\r\n            date: _date,\r\n            prize_id: getNewPrizeId()\r\n        });\r\n        allPrizes.push(prize);\r\n    }\r\n\r\n    function createPrizeUser(uint _prize_id, uint _user_id, uint _date) public {\r\n        PrizeUser memory prizeuser = PrizeUser({\r\n            prize_id: _prize_id,\r\n            user_id: _user_id,\r\n            date: _date\r\n        });\r\n        allPrizeUsers.push(prizeuser);\r\n    }\r\n\r\n    function createCategory(string memory _name, string memory _description) public {\r\n        Category memory category = Category({\r\n            category_id: getNewCategoryId(),\r\n            name: _name,\r\n            description: _description\r\n        });\r\n        allCategories.push(category);\r\n    }\r\n\r\n    function createProduct(string memory _name, uint _price, uint _price_date, string memory _description, string memory _url, address _add) public {\r\n        Product memory product = Product({\r\n            product_id: getNewProductId(),\r\n            name:_name,\r\n            price:_price,\r\n            store_id:user_stores[_add].store_id,\r\n            price_date: _price_date,\r\n            description:_description,\r\n            url:_url\r\n        });\r\n        allProducts.push(product);\r\n    }\r\n\r\n    function getProducts() public view returns (Product[] memory){\r\n      Product[] memory id = new Product[](lastProductId);\r\n      for (uint i = 0; i < lastProductId; i++) {\r\n          Product storage p = allProducts[i];\r\n          id[i] = p;\r\n      }\r\n      return id;\r\n    }\r\n  \r\n\r\n\r\n    function getAveragePriceByCategory(uint _category, uint _start_date) public view returns (uint) {\r\n\r\n        uint average_return;\r\n        uint total;\r\n\r\n        for (uint i = 0; i < allPriceStatus.length; i++) {\r\n            if( allPriceStatus[i].category_id == _category && allPriceStatus[i].date >= _start_date) {\r\n                average_return = average_return + allPriceStatus[i].avg_price;\r\n                total = total + 1;\r\n            }\r\n        }\r\n        average_return = average_return/total;\r\n        return average_return;\r\n\r\n    }\r\n\r\n    function getAveragePriceByStore(uint _store, uint _start_date) public view returns (uint, uint[] memory, string[] memory, uint[] memory, uint[] memory, uint[] memory) {\r\n\r\n        uint average_return;\r\n        uint[] memory status_id = new uint[](allPriceStatus.length);\r\n        string[] memory name = new string[](allPriceStatus.length);\r\n        uint[] memory date= new uint[](allPriceStatus.length);\r\n        uint[] memory avg_price = new uint[](allPriceStatus.length);\r\n        uint[] memory category_id = new uint[](allPriceStatus.length);\r\n\r\n        uint total;\r\n        for (uint i = 0; i < allPriceStatus.length; i++) {\r\n            if( allPriceStatus[i].store_id == _store && allPriceStatus[i].date >= _start_date) {\r\n                status_id[total] = allPriceStatus[i].status_id;\r\n                name[total] = allPriceStatus[i].name;\r\n                date[total] = allPriceStatus[i].date;\r\n                avg_price[total] = allPriceStatus[i].avg_price;\r\n                category_id[total] = allPriceStatus[i].category_id;\r\n                average_return = average_return + allPriceStatus[i].avg_price;\r\n                total = total + 1;\r\n\r\n            }\r\n        }\r\n        average_return = average_return/total;\r\n        return (average_return, status_id, name, date, avg_price, category_id);\r\n\r\n    }\r\n\r\n\r\n\r\n\r\n}\r\n",
  "sourcePath": "/home/larissagr/Documentos/UFSC2022/PriceTrace/truffle/contracts/PriceTraceV1.sol",
  "compiler": {
    "name": "solc",
    "version": "0.7.0+commit.9e61f92b.Emscripten.clang"
  },
  "schemaVersion": "3.4.11",
  "updatedAt": "2022-12-12T23:27:58.072Z",
  "networkType": "ethereum",
  "devdoc": {
    "kind": "dev",
    "methods": {},
    "version": 1
  },
  "userdoc": {
    "kind": "user",
    "methods": {},
    "version": 1
  }
}