{
  "contractName": "PriceTraceV1",
  "abi": [
    {
      "inputs": [
        {
          "internalType": "uint256",
          "name": "",
          "type": "uint256"
        }
      ],
      "name": "allCategories",
      "outputs": [
        {
          "internalType": "uint256",
          "name": "category_id",
          "type": "uint256"
        },
        {
          "internalType": "string",
          "name": "name",
          "type": "string"
        },
        {
          "internalType": "string",
          "name": "description",
          "type": "string"
        }
      ],
      "stateMutability": "view",
      "type": "function",
      "constant": true
    },
    {
      "inputs": [
        {
          "internalType": "uint256",
          "name": "",
          "type": "uint256"
        }
      ],
      "name": "allPriceStatus",
      "outputs": [
        {
          "internalType": "uint256",
          "name": "status_id",
          "type": "uint256"
        },
        {
          "internalType": "string",
          "name": "name",
          "type": "string"
        },
        {
          "internalType": "uint256",
          "name": "date",
          "type": "uint256"
        },
        {
          "internalType": "uint256",
          "name": "avg_price",
          "type": "uint256"
        },
        {
          "internalType": "uint256",
          "name": "category_id",
          "type": "uint256"
        },
        {
          "internalType": "uint256",
          "name": "store_id",
          "type": "uint256"
        }
      ],
      "stateMutability": "view",
      "type": "function",
      "constant": true
    },
    {
      "inputs": [
        {
          "internalType": "uint256",
          "name": "",
          "type": "uint256"
        }
      ],
      "name": "allPrizeUsers",
      "outputs": [
        {
          "internalType": "uint256",
          "name": "prize_id",
          "type": "uint256"
        },
        {
          "internalType": "uint256",
          "name": "user_id",
          "type": "uint256"
        },
        {
          "internalType": "uint256",
          "name": "date",
          "type": "uint256"
        }
      ],
      "stateMutability": "view",
      "type": "function",
      "constant": true
    },
    {
      "inputs": [
        {
          "internalType": "uint256",
          "name": "",
          "type": "uint256"
        }
      ],
      "name": "allPrizes",
      "outputs": [
        {
          "internalType": "uint256",
          "name": "prize_id",
          "type": "uint256"
        },
        {
          "internalType": "string",
          "name": "name",
          "type": "string"
        },
        {
          "internalType": "string",
          "name": "description",
          "type": "string"
        },
        {
          "internalType": "uint256",
          "name": "date",
          "type": "uint256"
        }
      ],
      "stateMutability": "view",
      "type": "function",
      "constant": true
    },
    {
      "inputs": [
        {
          "internalType": "uint256",
          "name": "",
          "type": "uint256"
        }
      ],
      "name": "allProducts",
      "outputs": [
        {
          "internalType": "uint256",
          "name": "product_id",
          "type": "uint256"
        },
        {
          "internalType": "string",
          "name": "name",
          "type": "string"
        },
        {
          "internalType": "uint256",
          "name": "price",
          "type": "uint256"
        },
        {
          "internalType": "uint256",
          "name": "store_id",
          "type": "uint256"
        },
        {
          "internalType": "uint256",
          "name": "price_date",
          "type": "uint256"
        },
        {
          "internalType": "string",
          "name": "description",
          "type": "string"
        },
        {
          "internalType": "string",
          "name": "url",
          "type": "string"
        }
      ],
      "stateMutability": "view",
      "type": "function",
      "constant": true
    },
    {
      "inputs": [
        {
          "internalType": "uint256",
          "name": "",
          "type": "uint256"
        }
      ],
      "name": "allStores",
      "outputs": [
        {
          "internalType": "string",
          "name": "name",
          "type": "string"
        },
        {
          "internalType": "string",
          "name": "url",
          "type": "string"
        },
        {
          "internalType": "uint256",
          "name": "store_id",
          "type": "uint256"
        },
        {
          "internalType": "address",
          "name": "userAddress",
          "type": "address"
        },
        {
          "internalType": "uint256",
          "name": "level",
          "type": "uint256"
        }
      ],
      "stateMutability": "view",
      "type": "function",
      "constant": true
    },
    {
      "inputs": [],
      "name": "lastCategoryId",
      "outputs": [
        {
          "internalType": "uint256",
          "name": "",
          "type": "uint256"
        }
      ],
      "stateMutability": "view",
      "type": "function",
      "constant": true
    },
    {
      "inputs": [],
      "name": "lastPriceStatusId",
      "outputs": [
        {
          "internalType": "uint256",
          "name": "",
          "type": "uint256"
        }
      ],
      "stateMutability": "view",
      "type": "function",
      "constant": true
    },
    {
      "inputs": [],
      "name": "lastPrizeId",
      "outputs": [
        {
          "internalType": "uint256",
          "name": "",
          "type": "uint256"
        }
      ],
      "stateMutability": "view",
      "type": "function",
      "constant": true
    },
    {
      "inputs": [],
      "name": "lastProductId",
      "outputs": [
        {
          "internalType": "uint256",
          "name": "",
          "type": "uint256"
        }
      ],
      "stateMutability": "view",
      "type": "function",
      "constant": true
    },
    {
      "inputs": [],
      "name": "lastStoreId",
      "outputs": [
        {
          "internalType": "uint256",
          "name": "",
          "type": "uint256"
        }
      ],
      "stateMutability": "view",
      "type": "function",
      "constant": true
    },
    {
      "inputs": [],
      "name": "getNewPriceStatusId",
      "outputs": [
        {
          "internalType": "uint256",
          "name": "",
          "type": "uint256"
        }
      ],
      "stateMutability": "nonpayable",
      "type": "function"
    },
    {
      "inputs": [],
      "name": "getNewStoreId",
      "outputs": [
        {
          "internalType": "uint256",
          "name": "",
          "type": "uint256"
        }
      ],
      "stateMutability": "nonpayable",
      "type": "function"
    },
    {
      "inputs": [],
      "name": "getNewPrizeId",
      "outputs": [
        {
          "internalType": "uint256",
          "name": "",
          "type": "uint256"
        }
      ],
      "stateMutability": "nonpayable",
      "type": "function"
    },
    {
      "inputs": [],
      "name": "getNewCategoryId",
      "outputs": [
        {
          "internalType": "uint256",
          "name": "",
          "type": "uint256"
        }
      ],
      "stateMutability": "nonpayable",
      "type": "function"
    },
    {
      "inputs": [],
      "name": "getNewProductId",
      "outputs": [
        {
          "internalType": "uint256",
          "name": "",
          "type": "uint256"
        }
      ],
      "stateMutability": "nonpayable",
      "type": "function"
    },
    {
      "inputs": [
        {
          "internalType": "address",
          "name": "_add",
          "type": "address"
        }
      ],
      "name": "getUserStore",
      "outputs": [
        {
          "internalType": "uint256",
          "name": "",
          "type": "uint256"
        },
        {
          "internalType": "string",
          "name": "",
          "type": "string"
        }
      ],
      "stateMutability": "view",
      "type": "function",
      "constant": true
    },
    {
      "inputs": [
        {
          "internalType": "string",
          "name": "_name",
          "type": "string"
        },
        {
          "internalType": "uint256",
          "name": "_date",
          "type": "uint256"
        },
        {
          "internalType": "uint256",
          "name": "_avg_price",
          "type": "uint256"
        },
        {
          "internalType": "uint256",
          "name": "_categoty",
          "type": "uint256"
        },
        {
          "internalType": "uint256",
          "name": "_store",
          "type": "uint256"
        }
      ],
      "name": "createPriceStatus",
      "outputs": [],
      "stateMutability": "nonpayable",
      "type": "function"
    },
    {
      "inputs": [
        {
          "internalType": "string",
          "name": "_name",
          "type": "string"
        },
        {
          "internalType": "string",
          "name": "_url",
          "type": "string"
        },
        {
          "internalType": "address",
          "name": "_add",
          "type": "address"
        }
      ],
      "name": "createStore",
      "outputs": [],
      "stateMutability": "nonpayable",
      "type": "function"
    },
    {
      "inputs": [
        {
          "internalType": "string",
          "name": "_name",
          "type": "string"
        },
        {
          "internalType": "string",
          "name": "_description",
          "type": "string"
        },
        {
          "internalType": "uint256",
          "name": "_date",
          "type": "uint256"
        }
      ],
      "name": "createPrize",
      "outputs": [],
      "stateMutability": "nonpayable",
      "type": "function"
    },
    {
      "inputs": [
        {
          "internalType": "uint256",
          "name": "_prize_id",
          "type": "uint256"
        },
        {
          "internalType": "uint256",
          "name": "_user_id",
          "type": "uint256"
        },
        {
          "internalType": "uint256",
          "name": "_date",
          "type": "uint256"
        }
      ],
      "name": "createPrizeUser",
      "outputs": [],
      "stateMutability": "nonpayable",
      "type": "function"
    },
    {
      "inputs": [
        {
          "internalType": "string",
          "name": "_name",
          "type": "string"
        },
        {
          "internalType": "string",
          "name": "_description",
          "type": "string"
        }
      ],
      "name": "createCategory",
      "outputs": [],
      "stateMutability": "nonpayable",
      "type": "function"
    },
    {
      "inputs": [
        {
          "internalType": "string",
          "name": "_name",
          "type": "string"
        },
        {
          "internalType": "uint256",
          "name": "_price",
          "type": "uint256"
        },
        {
          "internalType": "uint256",
          "name": "_price_date",
          "type": "uint256"
        },
        {
          "internalType": "string",
          "name": "_description",
          "type": "string"
        },
        {
          "internalType": "string",
          "name": "_url",
          "type": "string"
        },
        {
          "internalType": "address",
          "name": "_add",
          "type": "address"
        }
      ],
      "name": "createProduct",
      "outputs": [],
      "stateMutability": "nonpayable",
      "type": "function"
    },
    {
      "inputs": [],
      "name": "getProducts",
      "outputs": [
        {
          "components": [
            {
              "internalType": "uint256",
              "name": "product_id",
              "type": "uint256"
            },
            {
              "internalType": "string",
              "name": "name",
              "type": "string"
            },
            {
              "internalType": "uint256",
              "name": "price",
              "type": "uint256"
            },
            {
              "internalType": "uint256",
              "name": "store_id",
              "type": "uint256"
            },
            {
              "internalType": "uint256",
              "name": "price_date",
              "type": "uint256"
            },
            {
              "internalType": "string",
              "name": "description",
              "type": "string"
            },
            {
              "internalType": "string",
              "name": "url",
              "type": "string"
            }
          ],
          "internalType": "struct PriceTraceV1.Product[]",
          "name": "",
          "type": "tuple[]"
        },
        {
          "components": [
            {
              "internalType": "string",
              "name": "name",
              "type": "string"
            },
            {
              "internalType": "string",
              "name": "url",
              "type": "string"
            },
            {
              "internalType": "uint256",
              "name": "store_id",
              "type": "uint256"
            },
            {
              "internalType": "address",
              "name": "userAddress",
              "type": "address"
            },
            {
              "internalType": "uint256",
              "name": "level",
              "type": "uint256"
            }
          ],
          "internalType": "struct PriceTraceV1.Store[]",
          "name": "",
          "type": "tuple[]"
        }
      ],
      "stateMutability": "view",
      "type": "function",
      "constant": true
    },
    {
      "inputs": [
        {
          "internalType": "uint256",
          "name": "_id",
          "type": "uint256"
        }
      ],
      "name": "getStoreById",
      "outputs": [
        {
          "components": [
            {
              "internalType": "string",
              "name": "name",
              "type": "string"
            },
            {
              "internalType": "string",
              "name": "url",
              "type": "string"
            },
            {
              "internalType": "uint256",
              "name": "store_id",
              "type": "uint256"
            },
            {
              "internalType": "address",
              "name": "userAddress",
              "type": "address"
            },
            {
              "internalType": "uint256",
              "name": "level",
              "type": "uint256"
            }
          ],
          "internalType": "struct PriceTraceV1.Store",
          "name": "",
          "type": "tuple"
        }
      ],
      "stateMutability": "view",
      "type": "function",
      "constant": true
    },
    {
      "inputs": [
        {
          "internalType": "uint256",
          "name": "_category",
          "type": "uint256"
        },
        {
          "internalType": "uint256",
          "name": "_start_date",
          "type": "uint256"
        }
      ],
      "name": "getAveragePriceByCategory",
      "outputs": [
        {
          "internalType": "uint256",
          "name": "",
          "type": "uint256"
        }
      ],
      "stateMutability": "view",
      "type": "function",
      "constant": true
    },
    {
      "inputs": [
        {
          "internalType": "uint256",
          "name": "_store",
          "type": "uint256"
        },
        {
          "internalType": "uint256",
          "name": "_start_date",
          "type": "uint256"
        }
      ],
      "name": "getAveragePriceByStore",
      "outputs": [
        {
          "internalType": "uint256[]",
          "name": "",
          "type": "uint256[]"
        },
        {
          "internalType": "string[]",
          "name": "",
          "type": "string[]"
        },
        {
          "internalType": "uint256[]",
          "name": "",
          "type": "uint256[]"
        },
        {
          "internalType": "uint256[]",
          "name": "",
          "type": "uint256[]"
        },
        {
          "internalType": "uint256[]",
          "name": "",
          "type": "uint256[]"
        }
      ],
      "stateMutability": "view",
      "type": "function",
      "constant": true
    }
  ],
  "bytecode": "0x608060405234801561001057600080fd5b5061356d806100206000396000f3fe608060405234801561001057600080fd5b50600436106101a95760003560e01c80639b8529ee116100f9578063c36d35af11610097578063db6f1b8d11610071578063db6f1b8d14610502578063ef21b12b14610520578063f4ac57cf14610550578063f9d3b97f1461056c576101a9565b8063c36d35af1461047d578063cb621373146104b0578063cfaaef56146104cc576101a9565b8063b0e92ddc116100d3578063b0e92ddc146103ef578063b224b4e914610424578063b3af979b14610440578063c29b2f201461045e576101a9565b80639b8529ee146103975780639d2fc5f0146103b5578063b000378e146103d3576101a9565b806341b1991f1161016657806368aa8dca1161014057806368aa8dca146103215780638cabb5291461033f5780638dff9f921461035b578063911a3e3214610379576101a9565b806341b1991f146102a157806353509540146102bd578063685496f0146102ef576101a9565b80630c559cb3146101ae5780631abe6962146101cc57806322b2708b146101ea57806323ca679d1461021b578063298e113e1461024f57806332cfc4841461026d575b600080fd5b6101b661059c565b6040516101c39190612f1e565b60405180910390f35b6101d46105a2565b6040516101e19190612f1e565b60405180910390f35b61020460048036038101906101ff91906125e4565b6105c0565b604051610212929190612f39565b60405180910390f35b61023560048036038101906102309190612900565b6106de565b604051610246959493929190612e25565b60405180910390f35b610257610d98565b6040516102649190612f1e565b60405180910390f35b610287600480360381019061028291906128d7565b610db6565b604051610298959493929190612e9b565b60405180910390f35b6102bb60048036038101906102b69190612777565b610f2c565b005b6102d760048036038101906102d291906128d7565b611062565b6040516102e6939291906130ed565b60405180910390f35b610309600480360381019061030491906128d7565b61109c565b60405161031893929190612f69565b60405180910390f35b6103296111e6565b6040516103369190612f1e565b60405180910390f35b610359600480360381019061035491906126f8565b611204565b005b6103636112b2565b6040516103709190612f1e565b60405180910390f35b6103816112b8565b60405161038e9190612f1e565b60405180910390f35b61039f6112d6565b6040516103ac9190612f1e565b60405180910390f35b6103bd6112dc565b6040516103ca9190612f1e565b60405180910390f35b6103ed60048036038101906103e8919061293c565b6112e2565b005b610409600480360381019061040491906128d7565b611353565b60405161041b96959493929190613085565b60405180910390f35b61043e6004803603810190610439919061260d565b611427565b005b6104486114c4565b6040516104559190612f1e565b60405180910390f35b6104666114ca565b604051610474929190612dee565b60405180910390f35b610497600480360381019061049291906128d7565b611a69565b6040516104a79493929190612fae565b60405180910390f35b6104ca60048036038101906104c59190612848565b611bb9565b005b6104e660048036038101906104e191906128d7565b611c76565b6040516104f99796959493929190613001565b60405180910390f35b61050a611e60565b6040516105179190612f1e565b60405180910390f35b61053a60048036038101906105359190612900565b611e7e565b6040516105479190612f1e565b60405180910390f35b61056a60048036038101906105659190612679565b611fd6565b005b610586600480360381019061058191906128d7565b612272565b6040516105939190612efc565b60405180910390f35b60075481565b6000600a60008154809291906105b7906133f3565b91905055905090565b60006060600b60008473ffffffffffffffffffffffffffffffffffffffff1673ffffffffffffffffffffffffffffffffffffffff16815260200190815260200160002060020154600b60008573ffffffffffffffffffffffffffffffffffffffff1673ffffffffffffffffffffffffffffffffffffffff16815260200190815260200160002060000180805461065590613390565b80601f016020809104026020016040519081016040528092919081815260200182805461068190613390565b80156106ce5780601f106106a3576101008083540402835291602001916106ce565b820191906000526020600020905b8154815290600101906020018083116106b157829003601f168201915b5050505050905091509150915091565b60608060608060606000808054905067ffffffffffffffff81111561072c577f4e487b7100000000000000000000000000000000000000000000000000000000600052604160045260246000fd5b60405190808252806020026020018201604052801561075a5781602001602082028036833780820191505090505b5090506000808054905067ffffffffffffffff8111156107a3577f4e487b7100000000000000000000000000000000000000000000000000000000600052604160045260246000fd5b6040519080825280602002602001820160405280156107d657816020015b60608152602001906001900390816107c15790505b5090506000808054905067ffffffffffffffff81111561081f577f4e487b7100000000000000000000000000000000000000000000000000000000600052604160045260246000fd5b60405190808252806020026020018201604052801561084d5781602001602082028036833780820191505090505b5090506000808054905067ffffffffffffffff811115610896577f4e487b7100000000000000000000000000000000000000000000000000000000600052604160045260246000fd5b6040519080825280602002602001820160405280156108c45781602001602082028036833780820191505090505b5090506000808054905067ffffffffffffffff81111561090d577f4e487b7100000000000000000000000000000000000000000000000000000000600052604160045260246000fd5b60405190808252806020026020018201604052801561093b5781602001602082028036833780820191505090505b5090506000805b600080549050811015610d78578d6000828154811061098a577f4e487b7100000000000000000000000000000000000000000000000000000000600052603260045260246000fd5b9060005260206000209060060201600501541480156109f457508c600082815481106109df577f4e487b7100000000000000000000000000000000000000000000000000000000600052603260045260246000fd5b90600052602060002090600602016002015410155b15610d655760008181548110610a33577f4e487b7100000000000000000000000000000000000000000000000000000000600052603260045260246000fd5b906000526020600020906006020160000154878381518110610a7e577f4e487b7100000000000000000000000000000000000000000000000000000000600052603260045260246000fd5b60200260200101818152505060008181548110610ac4577f4e487b7100000000000000000000000000000000000000000000000000000000600052603260045260246000fd5b90600052602060002090600602016001018054610ae090613390565b80601f0160208091040260200160405190810160405280929190818152602001828054610b0c90613390565b8015610b595780601f10610b2e57610100808354040283529160200191610b59565b820191906000526020600020905b815481529060010190602001808311610b3c57829003601f168201915b5050505050868381518110610b97577f4e487b7100000000000000000000000000000000000000000000000000000000600052603260045260246000fd5b602002602001018190525060008181548110610bdc577f4e487b7100000000000000000000000000000000000000000000000000000000600052603260045260246000fd5b906000526020600020906006020160020154858381518110610c27577f4e487b7100000000000000000000000000000000000000000000000000000000600052603260045260246000fd5b60200260200101818152505060008181548110610c6d577f4e487b7100000000000000000000000000000000000000000000000000000000600052603260045260246000fd5b906000526020600020906006020160030154848381518110610cb8577f4e487b7100000000000000000000000000000000000000000000000000000000600052603260045260246000fd5b60200260200101818152505060008181548110610cfe577f4e487b7100000000000000000000000000000000000000000000000000000000600052603260045260246000fd5b906000526020600020906006020160040154838381518110610d49577f4e487b7100000000000000000000000000000000000000000000000000000000600052603260045260246000fd5b602002602001018181525050600182610d62919061328b565b91505b8080610d70906133f3565b915050610942565b5085858585859a509a509a509a509a505050505050509295509295909350565b600060086000815480929190610dad906133f3565b91905055905090565b60018181548110610dc657600080fd5b9060005260206000209060050201600091509050806000018054610de990613390565b80601f0160208091040260200160405190810160405280929190818152602001828054610e1590613390565b8015610e625780601f10610e3757610100808354040283529160200191610e62565b820191906000526020600020905b815481529060010190602001808311610e4557829003601f168201915b505050505090806001018054610e7790613390565b80601f0160208091040260200160405190810160405280929190818152602001828054610ea390613390565b8015610ef05780601f10610ec557610100808354040283529160200191610ef0565b820191906000526020600020905b815481529060010190602001808311610ed357829003601f168201915b5050505050908060020154908060030160009054906101000a900473ffffffffffffffffffffffffffffffffffffffff16908060040154905085565b60006040518060e00160405280610f416105a2565b8152602001888152602001878152602001600b60008573ffffffffffffffffffffffffffffffffffffffff1673ffffffffffffffffffffffffffffffffffffffff1681526020019081526020016000206002015481526020018681526020018581526020018481525090506005819080600181540180825580915050600190039060005260206000209060070201600090919091909150600082015181600001556020820151816001019080519060200190610ffe92919061242d565b5060408201518160020155606082015181600301556080820151816004015560a082015181600501908051906020019061103992919061242d565b5060c082015181600601908051906020019061105692919061242d565b50505050505050505050565b6003818154811061107257600080fd5b90600052602060002090600302016000915090508060000154908060010154908060020154905083565b600481815481106110ac57600080fd5b90600052602060002090600302016000915090508060000154908060010180546110d590613390565b80601f016020809104026020016040519081016040528092919081815260200182805461110190613390565b801561114e5780601f106111235761010080835404028352916020019161114e565b820191906000526020600020905b81548152906001019060200180831161113157829003601f168201915b50505050509080600201805461116390613390565b80601f016020809104026020016040519081016040528092919081815260200182805461118f90613390565b80156111dc5780601f106111b1576101008083540402835291602001916111dc565b820191906000526020600020905b8154815290600101906020018083116111bf57829003601f168201915b5050505050905083565b6000600960008154809291906111fb906133f3565b91905055905090565b60006040518060800160405280611219610d98565b8152602001858152602001848152602001838152509050600281908060018154018082558091505060019003906000526020600020906004020160009091909190915060008201518160000155602082015181600101908051906020019061128292919061242d565b50604082015181600201908051906020019061129f92919061242d565b5060608201518160030155505050505050565b600a5481565b6000600760008154809291906112cd906133f3565b91905055905090565b60095481565b60085481565b600060405180606001604052808581526020018481526020018381525090506003819080600181540180825580915050600190039060005260206000209060030201600090919091909150600082015181600001556020820151816001015560408201518160020155505050505050565b6000818154811061136357600080fd5b906000526020600020906006020160009150905080600001549080600101805461138c90613390565b80601f01602080910402602001604051908101604052809291908181526020018280546113b890613390565b80156114055780601f106113da57610100808354040283529160200191611405565b820191906000526020600020905b8154815290600101906020018083116113e857829003601f168201915b5050505050908060020154908060030154908060040154908060050154905086565b6000604051806060016040528061143c6111e6565b8152602001848152602001838152509050600481908060018154018082558091505060019003906000526020600020906003020160009091909190915060008201518160000155602082015181600101908051906020019061149f92919061242d565b5060408201518160020190805190602001906114bc92919061242d565b505050505050565b60065481565b6060806000600a5467ffffffffffffffff811115611511577f4e487b7100000000000000000000000000000000000000000000000000000000600052604160045260246000fd5b60405190808252806020026020018201604052801561154a57816020015b6115376124b3565b81526020019060019003908161152f5790505b5090506000600a5467ffffffffffffffff811115611591577f4e487b7100000000000000000000000000000000000000000000000000000000600052604160045260246000fd5b6040519080825280602002602001820160405280156115ca57816020015b6115b76124f0565b8152602001906001900390816115af5790505b50905060005b600a54811015611a5c57600060058281548110611616577f4e487b7100000000000000000000000000000000000000000000000000000000600052603260045260246000fd5b90600052602060002090600702019050806040518060e00160405290816000820154815260200160018201805461164c90613390565b80601f016020809104026020016040519081016040528092919081815260200182805461167890613390565b80156116c55780601f1061169a576101008083540402835291602001916116c5565b820191906000526020600020905b8154815290600101906020018083116116a857829003601f168201915b505050505081526020016002820154815260200160038201548152602001600482015481526020016005820180546116fc90613390565b80601f016020809104026020016040519081016040528092919081815260200182805461172890613390565b80156117755780601f1061174a57610100808354040283529160200191611775565b820191906000526020600020905b81548152906001019060200180831161175857829003601f168201915b5050505050815260200160068201805461178e90613390565b80601f01602080910402602001604051908101604052809291908181526020018280546117ba90613390565b80156118075780601f106117dc57610100808354040283529160200191611807565b820191906000526020600020905b8154815290600101906020018083116117ea57829003601f168201915b505050505081525050848381518110611849577f4e487b7100000000000000000000000000000000000000000000000000000000600052603260045260246000fd5b6020026020010181905250600c6000826003015481526020019081526020016000206040518060a001604052908160008201805461188690613390565b80601f01602080910402602001604051908101604052809291908181526020018280546118b290613390565b80156118ff5780601f106118d4576101008083540402835291602001916118ff565b820191906000526020600020905b8154815290600101906020018083116118e257829003601f168201915b5050505050815260200160018201805461191890613390565b80601f016020809104026020016040519081016040528092919081815260200182805461194490613390565b80156119915780601f1061196657610100808354040283529160200191611991565b820191906000526020600020905b81548152906001019060200180831161197457829003601f168201915b50505050508152602001600282015481526020016003820160009054906101000a900473ffffffffffffffffffffffffffffffffffffffff1673ffffffffffffffffffffffffffffffffffffffff1673ffffffffffffffffffffffffffffffffffffffff168152602001600482015481525050838381518110611a3d577f4e487b7100000000000000000000000000000000000000000000000000000000600052603260045260246000fd5b6020026020010181905250508080611a54906133f3565b9150506115d0565b5081819350935050509091565b60028181548110611a7957600080fd5b9060005260206000209060040201600091509050806000015490806001018054611aa290613390565b80601f0160208091040260200160405190810160405280929190818152602001828054611ace90613390565b8015611b1b5780601f10611af057610100808354040283529160200191611b1b565b820191906000526020600020905b815481529060010190602001808311611afe57829003601f168201915b505050505090806002018054611b3090613390565b80601f0160208091040260200160405190810160405280929190818152602001828054611b5c90613390565b8015611ba95780601f10611b7e57610100808354040283529160200191611ba9565b820191906000526020600020905b815481529060010190602001808311611b8c57829003601f168201915b5050505050908060030154905084565b60006040518060c00160405280611bce611e60565b81526020018781526020018681526020018581526020018481526020018381525090506000819080600181540180825580915050600190039060005260206000209060060201600090919091909150600082015181600001556020820151816001019080519060200190611c4392919061242d565b5060408201518160020155606082015181600301556080820151816004015560a082015181600501555050505050505050565b60058181548110611c8657600080fd5b9060005260206000209060070201600091509050806000015490806001018054611caf90613390565b80601f0160208091040260200160405190810160405280929190818152602001828054611cdb90613390565b8015611d285780601f10611cfd57610100808354040283529160200191611d28565b820191906000526020600020905b815481529060010190602001808311611d0b57829003601f168201915b505050505090806002015490806003015490806004015490806005018054611d4f90613390565b80601f0160208091040260200160405190810160405280929190818152602001828054611d7b90613390565b8015611dc85780601f10611d9d57610100808354040283529160200191611dc8565b820191906000526020600020905b815481529060010190602001808311611dab57829003601f168201915b505050505090806006018054611ddd90613390565b80601f0160208091040260200160405190810160405280929190818152602001828054611e0990613390565b8015611e565780601f10611e2b57610100808354040283529160200191611e56565b820191906000526020600020905b815481529060010190602001808311611e3957829003601f168201915b5050505050905087565b600060066000815480929190611e75906133f3565b91905055905090565b600080600080600090505b600080549050811015611fbc578560008281548110611ed1577f4e487b7100000000000000000000000000000000000000000000000000000000600052603260045260246000fd5b906000526020600020906006020160040154148015611f3b57508460008281548110611f26577f4e487b7100000000000000000000000000000000000000000000000000000000600052603260045260246000fd5b90600052602060002090600602016002015410155b15611fa95760008181548110611f7a577f4e487b7100000000000000000000000000000000000000000000000000000000600052603260045260246000fd5b90600052602060002090600602016003015483611f97919061328b565b9250600182611fa6919061328b565b91505b8080611fb4906133f3565b915050611e89565b508082611fc991906132e1565b9150819250505092915050565b6000611fe06112b8565b905060006040518060a001604052808681526020018581526020018381526020018473ffffffffffffffffffffffffffffffffffffffff168152602001600181525090506001819080600181540180825580915050600190039060005260206000209060050201600090919091909150600082015181600001908051906020019061206c92919061242d565b50602082015181600101908051906020019061208992919061242d565b506040820151816002015560608201518160030160006101000a81548173ffffffffffffffffffffffffffffffffffffffff021916908373ffffffffffffffffffffffffffffffffffffffff16021790555060808201518160040155505080600b60008573ffffffffffffffffffffffffffffffffffffffff1673ffffffffffffffffffffffffffffffffffffffff168152602001908152602001600020600082015181600001908051906020019061214392919061242d565b50602082015181600101908051906020019061216092919061242d565b506040820151816002015560608201518160030160006101000a81548173ffffffffffffffffffffffffffffffffffffffff021916908373ffffffffffffffffffffffffffffffffffffffff1602179055506080820151816004015590505080600c600084815260200190815260200160002060008201518160000190805190602001906121ef92919061242d565b50602082015181600101908051906020019061220c92919061242d565b506040820151816002015560608201518160030160006101000a81548173ffffffffffffffffffffffffffffffffffffffff021916908373ffffffffffffffffffffffffffffffffffffffff160217905550608082015181600401559050505050505050565b61227a6124f0565b600c60008381526020019081526020016000206040518060a00160405290816000820180546122a890613390565b80601f01602080910402602001604051908101604052809291908181526020018280546122d490613390565b80156123215780601f106122f657610100808354040283529160200191612321565b820191906000526020600020905b81548152906001019060200180831161230457829003601f168201915b5050505050815260200160018201805461233a90613390565b80601f016020809104026020016040519081016040528092919081815260200182805461236690613390565b80156123b35780601f10612388576101008083540402835291602001916123b3565b820191906000526020600020905b81548152906001019060200180831161239657829003601f168201915b50505050508152602001600282015481526020016003820160009054906101000a900473ffffffffffffffffffffffffffffffffffffffff1673ffffffffffffffffffffffffffffffffffffffff1673ffffffffffffffffffffffffffffffffffffffff1681526020016004820154815250509050919050565b82805461243990613390565b90600052602060002090601f01602090048101928261245b57600085556124a2565b82601f1061247457805160ff19168380011785556124a2565b828001600101855582156124a2579182015b828111156124a1578251825591602001919060010190612486565b5b5090506124af9190612535565b5090565b6040518060e00160405280600081526020016060815260200160008152602001600081526020016000815260200160608152602001606081525090565b6040518060a00160405280606081526020016060815260200160008152602001600073ffffffffffffffffffffffffffffffffffffffff168152602001600081525090565b5b8082111561254e576000816000905550600101612536565b5090565b600061256561256084613149565b613124565b90508281526020810184848401111561257d57600080fd5b61258884828561334e565b509392505050565b60008135905061259f81613509565b92915050565b600082601f8301126125b657600080fd5b81356125c6848260208601612552565b91505092915050565b6000813590506125de81613520565b92915050565b6000602082840312156125f657600080fd5b600061260484828501612590565b91505092915050565b6000806040838503121561262057600080fd5b600083013567ffffffffffffffff81111561263a57600080fd5b612646858286016125a5565b925050602083013567ffffffffffffffff81111561266357600080fd5b61266f858286016125a5565b9150509250929050565b60008060006060848603121561268e57600080fd5b600084013567ffffffffffffffff8111156126a857600080fd5b6126b4868287016125a5565b935050602084013567ffffffffffffffff8111156126d157600080fd5b6126dd868287016125a5565b92505060406126ee86828701612590565b9150509250925092565b60008060006060848603121561270d57600080fd5b600084013567ffffffffffffffff81111561272757600080fd5b612733868287016125a5565b935050602084013567ffffffffffffffff81111561275057600080fd5b61275c868287016125a5565b925050604061276d868287016125cf565b9150509250925092565b60008060008060008060c0878903121561279057600080fd5b600087013567ffffffffffffffff8111156127aa57600080fd5b6127b689828a016125a5565b96505060206127c789828a016125cf565b95505060406127d889828a016125cf565b945050606087013567ffffffffffffffff8111156127f557600080fd5b61280189828a016125a5565b935050608087013567ffffffffffffffff81111561281e57600080fd5b61282a89828a016125a5565b92505060a061283b89828a01612590565b9150509295509295509295565b600080600080600060a0868803121561286057600080fd5b600086013567ffffffffffffffff81111561287a57600080fd5b612886888289016125a5565b9550506020612897888289016125cf565b94505060406128a8888289016125cf565b93505060606128b9888289016125cf565b92505060806128ca888289016125cf565b9150509295509295909350565b6000602082840312156128e957600080fd5b60006128f7848285016125cf565b91505092915050565b6000806040838503121561291357600080fd5b6000612921858286016125cf565b9250506020612932858286016125cf565b9150509250929050565b60008060006060848603121561295157600080fd5b600061295f868287016125cf565b9350506020612970868287016125cf565b9250506040612981868287016125cf565b9150509250925092565b60006129978383612bba565b905092915050565b60006129ab8383612c2c565b905092915050565b60006129bf8383612cd6565b905092915050565b60006129d38383612dd0565b60208301905092915050565b6129e881613312565b82525050565b6129f781613312565b82525050565b6000612a08826131ba565b612a128185613225565b935083602082028501612a248561317a565b8060005b85811015612a605784840389528151612a41858261298b565b9450612a4c836131f1565b925060208a01995050600181019050612a28565b50829750879550505050505092915050565b6000612a7d826131c5565b612a878185613236565b935083602082028501612a998561318a565b8060005b85811015612ad55784840389528151612ab6858261299f565b9450612ac1836131fe565b925060208a01995050600181019050612a9d565b50829750879550505050505092915050565b6000612af2826131d0565b612afc8185613247565b935083602082028501612b0e8561319a565b8060005b85811015612b4a5784840389528151612b2b85826129b3565b9450612b368361320b565b925060208a01995050600181019050612b12565b50829750879550505050505092915050565b6000612b67826131db565b612b718185613258565b9350612b7c836131aa565b8060005b83811015612bad578151612b9488826129c7565b9750612b9f83613218565b925050600181019050612b80565b5085935050505092915050565b6000612bc5826131e6565b612bcf8185613269565b9350612bdf81856020860161335d565b612be8816134f8565b840191505092915050565b6000612bfe826131e6565b612c08818561327a565b9350612c1881856020860161335d565b612c21816134f8565b840191505092915050565b600060e083016000830151612c446000860182612dd0565b5060208301518482036020860152612c5c8282612bba565b9150506040830151612c716040860182612dd0565b506060830151612c846060860182612dd0565b506080830151612c976080860182612dd0565b5060a083015184820360a0860152612caf8282612bba565b91505060c083015184820360c0860152612cc98282612bba565b9150508091505092915050565b600060a0830160008301518482036000860152612cf38282612bba565b91505060208301518482036020860152612d0d8282612bba565b9150506040830151612d226040860182612dd0565b506060830151612d3560608601826129df565b506080830151612d486080860182612dd0565b508091505092915050565b600060a0830160008301518482036000860152612d708282612bba565b91505060208301518482036020860152612d8a8282612bba565b9150506040830151612d9f6040860182612dd0565b506060830151612db260608601826129df565b506080830151612dc56080860182612dd0565b508091505092915050565b612dd981613344565b82525050565b612de881613344565b82525050565b60006040820190508181036000830152612e088185612a72565b90508181036020830152612e1c8184612ae7565b90509392505050565b600060a0820190508181036000830152612e3f8188612b5c565b90508181036020830152612e5381876129fd565b90508181036040830152612e678186612b5c565b90508181036060830152612e7b8185612b5c565b90508181036080830152612e8f8184612b5c565b90509695505050505050565b600060a0820190508181036000830152612eb58188612bf3565b90508181036020830152612ec98187612bf3565b9050612ed86040830186612ddf565b612ee560608301856129ee565b612ef26080830184612ddf565b9695505050505050565b60006020820190508181036000830152612f168184612d53565b905092915050565b6000602082019050612f336000830184612ddf565b92915050565b6000604082019050612f4e6000830185612ddf565b8181036020830152612f608184612bf3565b90509392505050565b6000606082019050612f7e6000830186612ddf565b8181036020830152612f908185612bf3565b90508181036040830152612fa48184612bf3565b9050949350505050565b6000608082019050612fc36000830187612ddf565b8181036020830152612fd58186612bf3565b90508181036040830152612fe98185612bf3565b9050612ff86060830184612ddf565b95945050505050565b600060e082019050613016600083018a612ddf565b81810360208301526130288189612bf3565b90506130376040830188612ddf565b6130446060830187612ddf565b6130516080830186612ddf565b81810360a08301526130638185612bf3565b905081810360c08301526130778184612bf3565b905098975050505050505050565b600060c08201905061309a6000830189612ddf565b81810360208301526130ac8188612bf3565b90506130bb6040830187612ddf565b6130c86060830186612ddf565b6130d56080830185612ddf565b6130e260a0830184612ddf565b979650505050505050565b60006060820190506131026000830186612ddf565b61310f6020830185612ddf565b61311c6040830184612ddf565b949350505050565b600061312e61313f565b905061313a82826133c2565b919050565b6000604051905090565b600067ffffffffffffffff821115613164576131636134c9565b5b61316d826134f8565b9050602081019050919050565b6000819050602082019050919050565b6000819050602082019050919050565b6000819050602082019050919050565b6000819050602082019050919050565b600081519050919050565b600081519050919050565b600081519050919050565b600081519050919050565b600081519050919050565b6000602082019050919050565b6000602082019050919050565b6000602082019050919050565b6000602082019050919050565b600082825260208201905092915050565b600082825260208201905092915050565b600082825260208201905092915050565b600082825260208201905092915050565b600082825260208201905092915050565b600082825260208201905092915050565b600061329682613344565b91506132a183613344565b9250827fffffffffffffffffffffffffffffffffffffffffffffffffffffffffffffffff038211156132d6576132d561343c565b5b828201905092915050565b60006132ec82613344565b91506132f783613344565b9250826133075761330661346b565b5b828204905092915050565b600061331d82613324565b9050919050565b600073ffffffffffffffffffffffffffffffffffffffff82169050919050565b6000819050919050565b82818337600083830152505050565b60005b8381101561337b578082015181840152602081019050613360565b8381111561338a576000848401525b50505050565b600060028204905060018216806133a857607f821691505b602082108114156133bc576133bb61349a565b5b50919050565b6133cb826134f8565b810181811067ffffffffffffffff821117156133ea576133e96134c9565b5b80604052505050565b60006133fe82613344565b91507fffffffffffffffffffffffffffffffffffffffffffffffffffffffffffffffff8214156134315761343061343c565b5b600182019050919050565b7f4e487b7100000000000000000000000000000000000000000000000000000000600052601160045260246000fd5b7f4e487b7100000000000000000000000000000000000000000000000000000000600052601260045260246000fd5b7f4e487b7100000000000000000000000000000000000000000000000000000000600052602260045260246000fd5b7f4e487b7100000000000000000000000000000000000000000000000000000000600052604160045260246000fd5b6000601f19601f8301169050919050565b61351281613312565b811461351d57600080fd5b50565b61352981613344565b811461353457600080fd5b5056fea26469706673582212208428c133c64549fd95a2031f7b196fcc1982247b213354af59f28c1ee53f7e0d64736f6c63430008010033",
  "immutableReferences": {},
  "source": "// SPDX-License-Identifier: GPL-3.0\r\n\r\npragma solidity >=0.7.0 <0.9.0;\r\npragma experimental ABIEncoderV2;\r\n\r\ncontract PriceTraceV1 {\r\n\r\n    struct PriceStatus{\r\n        uint status_id;\r\n        string name;\r\n        uint date;\r\n        uint avg_price;\r\n        uint category_id;\r\n        uint store_id;\r\n    }\r\n\r\n    struct Store {\r\n        string name;\r\n        string url;\r\n        uint store_id;\r\n        address userAddress;\r\n        uint level;\r\n    }\r\n\r\n    \r\n    struct Prize {\r\n        uint prize_id;\r\n        string name;\r\n        string description;\r\n        uint date;\r\n    }\r\n\r\n    struct PrizeUser{\r\n        uint prize_id;\r\n        uint user_id;\r\n        uint date;\r\n    }\r\n\r\n    struct Category {\r\n        uint category_id;\r\n        string name;\r\n        string description;\r\n    }\r\n\r\n    struct Product {\r\n        uint product_id;\r\n        string name;\r\n        uint price;\r\n        uint store_id;\r\n        uint price_date;\r\n        string description;\r\n        string url;\r\n    }\r\n\r\n    PriceStatus[] public allPriceStatus;\r\n    Store[] public allStores;\r\n    Prize[] public allPrizes;\r\n    PrizeUser[] public allPrizeUsers;\r\n    Category[] public allCategories;\r\n    Product[] public allProducts;\r\n\r\n    \r\n    uint public lastPriceStatusId;\r\n    uint public lastStoreId;\r\n    uint public lastPrizeId;\r\n    uint public lastCategoryId;\r\n    uint public lastProductId;\r\n    mapping(address => Store) user_stores;\r\n    mapping(uint => Store) byid_stores;\r\n\r\n    \r\n    function getNewPriceStatusId() public returns (uint) {\r\n        return lastPriceStatusId++;\r\n    }\r\n\r\n    function getNewStoreId() public returns (uint) {\r\n        return lastStoreId++;\r\n    }\r\n\r\n    function getNewPrizeId() public returns (uint) {\r\n        return lastPrizeId++;\r\n    }\r\n\r\n\r\n    function getNewCategoryId() public returns (uint) {\r\n        return lastCategoryId++;\r\n    }\r\n\r\n    function getNewProductId() public returns (uint) {\r\n        return lastProductId++;\r\n    }\r\n\r\n\r\n    \r\n\r\n    function getUserStore(address _add) public view returns (uint, string memory){\r\n        return (user_stores[_add].store_id, user_stores[_add].name);\r\n    }\r\n\r\n    function createPriceStatus(string memory _name, uint _date, uint _avg_price, uint _categoty, uint _store) public {\r\n        PriceStatus memory price = PriceStatus({\r\n          name: _name,\r\n          date: _date,\r\n          avg_price: _avg_price,\r\n          category_id: _categoty,\r\n          store_id: _store,\r\n          status_id: getNewPriceStatusId()\r\n        });\r\n        allPriceStatus.push(price);\r\n    }\r\n\r\n    function createStore(string memory _name, string memory _url, address _add) public {\r\n        uint store_id = getNewStoreId();\r\n        Store memory store = Store({\r\n            name: _name,\r\n            url: _url,\r\n            level: 1,\r\n            userAddress: _add,\r\n            store_id: store_id\r\n        });\r\n        allStores.push(store);\r\n        user_stores[_add] = store;\r\n        byid_stores[store_id] = store;\r\n         \r\n    }\r\n\r\n    function createPrize(string memory _name, string memory _description, uint _date) public {\r\n        Prize memory prize = Prize({\r\n            name: _name,\r\n            description: _description,\r\n            date: _date,\r\n            prize_id: getNewPrizeId()\r\n        });\r\n        allPrizes.push(prize);\r\n    }\r\n\r\n    function createPrizeUser(uint _prize_id, uint _user_id, uint _date) public {\r\n        PrizeUser memory prizeuser = PrizeUser({\r\n            prize_id: _prize_id,\r\n            user_id: _user_id,\r\n            date: _date\r\n        });\r\n        allPrizeUsers.push(prizeuser);\r\n    }\r\n\r\n    function createCategory(string memory _name, string memory _description) public {\r\n        Category memory category = Category({\r\n            category_id: getNewCategoryId(),\r\n            name: _name,\r\n            description: _description\r\n        });\r\n        allCategories.push(category);\r\n    }\r\n\r\n    function createProduct(string memory _name, uint _price, uint _price_date, string memory _description, string memory _url, address _add) public {\r\n        Product memory product = Product({\r\n            product_id: getNewProductId(),\r\n            name:_name,\r\n            price:_price,\r\n            store_id:user_stores[_add].store_id,\r\n            price_date: _price_date,\r\n            description:_description,\r\n            url:_url\r\n        });\r\n        allProducts.push(product);\r\n    }\r\n\r\n    function getProducts() public view returns (Product[] memory, Store[] memory){\r\n      Product[] memory id = new Product[](lastProductId);\r\n      Store[] memory id_store = new Store[](lastProductId);\r\n      for (uint i = 0; i < lastProductId; i++) {\r\n          Product storage p = allProducts[i];\r\n          id[i] = p;\r\n          id_store[i] = byid_stores[p.store_id];\r\n      }\r\n      return (id, id_store);\r\n    }\r\n\r\n    function getStoreById(uint _id) public view returns (Store memory){\r\n      return byid_stores[_id];\r\n    }\r\n  \r\n\r\n\r\n    function getAveragePriceByCategory(uint _category, uint _start_date) public view returns (uint) {\r\n\r\n        uint average_return;\r\n        uint total;\r\n\r\n        for (uint i = 0; i < allPriceStatus.length; i++) {\r\n            if( allPriceStatus[i].category_id == _category && allPriceStatus[i].date >= _start_date) {\r\n                average_return = average_return + allPriceStatus[i].avg_price;\r\n                total = total + 1;\r\n            }\r\n        }\r\n        average_return = average_return/total;\r\n        return average_return;\r\n\r\n    }\r\n\r\n    function getAveragePriceByStore(uint _store, uint _start_date) public view returns (uint[] memory, string[] memory, uint[] memory, uint[] memory, uint[] memory) {\r\n\r\n      \r\n        uint[] memory status_id = new uint[](allPriceStatus.length);\r\n        string[] memory name = new string[](allPriceStatus.length);\r\n        uint[] memory date= new uint[](allPriceStatus.length);\r\n        uint[] memory avg_price = new uint[](allPriceStatus.length);\r\n        uint[] memory category_id = new uint[](allPriceStatus.length);\r\n\r\n        uint total = 0;\r\n        for (uint i = 0; i < allPriceStatus.length; i++) {\r\n            if( allPriceStatus[i].store_id == _store && allPriceStatus[i].date >= _start_date) {\r\n                status_id[total] = allPriceStatus[i].status_id;\r\n                name[total] = allPriceStatus[i].name;\r\n                date[total] = allPriceStatus[i].date;\r\n                avg_price[total] = allPriceStatus[i].avg_price;\r\n                category_id[total] = allPriceStatus[i].category_id;\r\n                total = total + 1;\r\n\r\n            }\r\n        }\r\n        return (status_id, name, date, avg_price, category_id);\r\n\r\n    }\r\n\r\n\r\n\r\n\r\n}\r\n",
  "sourcePath": "/home/larissagr/Documentos/UFSC2022/PriceTrace/truffle/contracts/PriceTraceV1.sol",
  "compiler": {
    "name": "solc",
    "version": "0.8.1+commit.df193b15.Emscripten.clang"
  },
  "schemaVersion": "3.4.11",
  "updatedAt": "2022-12-14T10:09:06.404Z",
  "networkType": "ethereum",
  "devdoc": {
    "kind": "dev",
    "methods": {},
    "version": 1
  },
  "userdoc": {
    "kind": "user",
    "methods": {},
    "version": 1
  }
}