{
  "contractName": "Prize",
  "abi": [
    {
      "inputs": [
        {
          "internalType": "string",
          "name": "_name",
          "type": "string"
        },
        {
          "internalType": "string",
          "name": "_symbol",
          "type": "string"
        },
        {
          "internalType": "string",
          "name": "_baseURI",
          "type": "string"
        }
      ],
      "stateMutability": "nonpayable",
      "type": "constructor"
    },
    {
      "anonymous": false,
      "inputs": [
        {
          "indexed": true,
          "internalType": "address",
          "name": "owner",
          "type": "address"
        },
        {
          "indexed": true,
          "internalType": "address",
          "name": "approved",
          "type": "address"
        },
        {
          "indexed": true,
          "internalType": "uint256",
          "name": "tokenId",
          "type": "uint256"
        }
      ],
      "name": "Approval",
      "type": "event"
    },
    {
      "anonymous": false,
      "inputs": [
        {
          "indexed": true,
          "internalType": "address",
          "name": "owner",
          "type": "address"
        },
        {
          "indexed": true,
          "internalType": "address",
          "name": "operator",
          "type": "address"
        },
        {
          "indexed": false,
          "internalType": "bool",
          "name": "approved",
          "type": "bool"
        }
      ],
      "name": "ApprovalForAll",
      "type": "event"
    },
    {
      "anonymous": false,
      "inputs": [
        {
          "indexed": true,
          "internalType": "address",
          "name": "previousOwner",
          "type": "address"
        },
        {
          "indexed": true,
          "internalType": "address",
          "name": "newOwner",
          "type": "address"
        }
      ],
      "name": "OwnershipTransferred",
      "type": "event"
    },
    {
      "anonymous": false,
      "inputs": [
        {
          "indexed": true,
          "internalType": "address",
          "name": "from",
          "type": "address"
        },
        {
          "indexed": true,
          "internalType": "address",
          "name": "to",
          "type": "address"
        },
        {
          "indexed": true,
          "internalType": "uint256",
          "name": "tokenId",
          "type": "uint256"
        }
      ],
      "name": "Transfer",
      "type": "event"
    },
    {
      "anonymous": false,
      "inputs": [
        {
          "indexed": false,
          "internalType": "uint256",
          "name": "id",
          "type": "uint256"
        },
        {
          "indexed": true,
          "internalType": "address",
          "name": "from",
          "type": "address"
        },
        {
          "indexed": true,
          "internalType": "address",
          "name": "to",
          "type": "address"
        },
        {
          "indexed": false,
          "internalType": "uint256",
          "name": "cost",
          "type": "uint256"
        },
        {
          "indexed": false,
          "internalType": "string",
          "name": "metadataURI",
          "type": "string"
        },
        {
          "indexed": false,
          "internalType": "uint256",
          "name": "timestamp",
          "type": "uint256"
        }
      ],
      "name": "givePrize",
      "type": "event"
    },
    {
      "inputs": [
        {
          "internalType": "uint256",
          "name": "",
          "type": "uint256"
        }
      ],
      "name": "allPrizes",
      "outputs": [
        {
          "internalType": "string",
          "name": "name",
          "type": "string"
        },
        {
          "internalType": "string",
          "name": "description",
          "type": "string"
        },
        {
          "internalType": "uint256",
          "name": "date",
          "type": "uint256"
        },
        {
          "internalType": "address",
          "name": "from",
          "type": "address"
        },
        {
          "internalType": "address",
          "name": "to",
          "type": "address"
        },
        {
          "internalType": "string",
          "name": "localurl",
          "type": "string"
        }
      ],
      "stateMutability": "view",
      "type": "function",
      "constant": true
    },
    {
      "inputs": [
        {
          "internalType": "address",
          "name": "to",
          "type": "address"
        },
        {
          "internalType": "uint256",
          "name": "tokenId",
          "type": "uint256"
        }
      ],
      "name": "approve",
      "outputs": [],
      "stateMutability": "nonpayable",
      "type": "function"
    },
    {
      "inputs": [
        {
          "internalType": "address",
          "name": "owner",
          "type": "address"
        }
      ],
      "name": "balanceOf",
      "outputs": [
        {
          "internalType": "uint256",
          "name": "",
          "type": "uint256"
        }
      ],
      "stateMutability": "view",
      "type": "function",
      "constant": true
    },
    {
      "inputs": [],
      "name": "baseURI",
      "outputs": [
        {
          "internalType": "string",
          "name": "",
          "type": "string"
        }
      ],
      "stateMutability": "view",
      "type": "function",
      "constant": true
    },
    {
      "inputs": [],
      "name": "cost",
      "outputs": [
        {
          "internalType": "uint256",
          "name": "",
          "type": "uint256"
        }
      ],
      "stateMutability": "view",
      "type": "function",
      "constant": true
    },
    {
      "inputs": [
        {
          "internalType": "string",
          "name": "",
          "type": "string"
        }
      ],
      "name": "existingURIs",
      "outputs": [
        {
          "internalType": "uint8",
          "name": "",
          "type": "uint8"
        }
      ],
      "stateMutability": "view",
      "type": "function",
      "constant": true
    },
    {
      "inputs": [
        {
          "internalType": "uint256",
          "name": "tokenId",
          "type": "uint256"
        }
      ],
      "name": "getApproved",
      "outputs": [
        {
          "internalType": "address",
          "name": "",
          "type": "address"
        }
      ],
      "stateMutability": "view",
      "type": "function",
      "constant": true
    },
    {
      "inputs": [
        {
          "internalType": "address",
          "name": "owner",
          "type": "address"
        },
        {
          "internalType": "address",
          "name": "operator",
          "type": "address"
        }
      ],
      "name": "isApprovedForAll",
      "outputs": [
        {
          "internalType": "bool",
          "name": "",
          "type": "bool"
        }
      ],
      "stateMutability": "view",
      "type": "function",
      "constant": true
    },
    {
      "inputs": [],
      "name": "maxSupply",
      "outputs": [
        {
          "internalType": "uint256",
          "name": "",
          "type": "uint256"
        }
      ],
      "stateMutability": "view",
      "type": "function",
      "constant": true
    },
    {
      "inputs": [],
      "name": "name",
      "outputs": [
        {
          "internalType": "string",
          "name": "",
          "type": "string"
        }
      ],
      "stateMutability": "view",
      "type": "function",
      "constant": true
    },
    {
      "inputs": [],
      "name": "owner",
      "outputs": [
        {
          "internalType": "address",
          "name": "",
          "type": "address"
        }
      ],
      "stateMutability": "view",
      "type": "function",
      "constant": true
    },
    {
      "inputs": [
        {
          "internalType": "uint256",
          "name": "tokenId",
          "type": "uint256"
        }
      ],
      "name": "ownerOf",
      "outputs": [
        {
          "internalType": "address",
          "name": "",
          "type": "address"
        }
      ],
      "stateMutability": "view",
      "type": "function",
      "constant": true
    },
    {
      "inputs": [],
      "name": "renounceOwnership",
      "outputs": [],
      "stateMutability": "nonpayable",
      "type": "function"
    },
    {
      "inputs": [
        {
          "internalType": "address",
          "name": "from",
          "type": "address"
        },
        {
          "internalType": "address",
          "name": "to",
          "type": "address"
        },
        {
          "internalType": "uint256",
          "name": "tokenId",
          "type": "uint256"
        }
      ],
      "name": "safeTransferFrom",
      "outputs": [],
      "stateMutability": "nonpayable",
      "type": "function"
    },
    {
      "inputs": [
        {
          "internalType": "address",
          "name": "from",
          "type": "address"
        },
        {
          "internalType": "address",
          "name": "to",
          "type": "address"
        },
        {
          "internalType": "uint256",
          "name": "tokenId",
          "type": "uint256"
        },
        {
          "internalType": "bytes",
          "name": "data",
          "type": "bytes"
        }
      ],
      "name": "safeTransferFrom",
      "outputs": [],
      "stateMutability": "nonpayable",
      "type": "function"
    },
    {
      "inputs": [
        {
          "internalType": "address",
          "name": "operator",
          "type": "address"
        },
        {
          "internalType": "bool",
          "name": "approved",
          "type": "bool"
        }
      ],
      "name": "setApprovalForAll",
      "outputs": [],
      "stateMutability": "nonpayable",
      "type": "function"
    },
    {
      "inputs": [],
      "name": "supply",
      "outputs": [
        {
          "internalType": "uint256",
          "name": "",
          "type": "uint256"
        }
      ],
      "stateMutability": "view",
      "type": "function",
      "constant": true
    },
    {
      "inputs": [
        {
          "internalType": "bytes4",
          "name": "interfaceId",
          "type": "bytes4"
        }
      ],
      "name": "supportsInterface",
      "outputs": [
        {
          "internalType": "bool",
          "name": "",
          "type": "bool"
        }
      ],
      "stateMutability": "view",
      "type": "function",
      "constant": true
    },
    {
      "inputs": [],
      "name": "symbol",
      "outputs": [
        {
          "internalType": "string",
          "name": "",
          "type": "string"
        }
      ],
      "stateMutability": "view",
      "type": "function",
      "constant": true
    },
    {
      "inputs": [
        {
          "internalType": "uint256",
          "name": "index",
          "type": "uint256"
        }
      ],
      "name": "tokenByIndex",
      "outputs": [
        {
          "internalType": "uint256",
          "name": "",
          "type": "uint256"
        }
      ],
      "stateMutability": "view",
      "type": "function",
      "constant": true
    },
    {
      "inputs": [
        {
          "internalType": "address",
          "name": "owner",
          "type": "address"
        },
        {
          "internalType": "uint256",
          "name": "index",
          "type": "uint256"
        }
      ],
      "name": "tokenOfOwnerByIndex",
      "outputs": [
        {
          "internalType": "uint256",
          "name": "",
          "type": "uint256"
        }
      ],
      "stateMutability": "view",
      "type": "function",
      "constant": true
    },
    {
      "inputs": [
        {
          "internalType": "uint256",
          "name": "tokenId",
          "type": "uint256"
        }
      ],
      "name": "tokenURI",
      "outputs": [
        {
          "internalType": "string",
          "name": "",
          "type": "string"
        }
      ],
      "stateMutability": "view",
      "type": "function",
      "constant": true
    },
    {
      "inputs": [],
      "name": "totalSupply",
      "outputs": [
        {
          "internalType": "uint256",
          "name": "",
          "type": "uint256"
        }
      ],
      "stateMutability": "view",
      "type": "function",
      "constant": true
    },
    {
      "inputs": [
        {
          "internalType": "address",
          "name": "from",
          "type": "address"
        },
        {
          "internalType": "address",
          "name": "to",
          "type": "address"
        },
        {
          "internalType": "uint256",
          "name": "tokenId",
          "type": "uint256"
        }
      ],
      "name": "transferFrom",
      "outputs": [],
      "stateMutability": "nonpayable",
      "type": "function"
    },
    {
      "inputs": [
        {
          "internalType": "address",
          "name": "newOwner",
          "type": "address"
        }
      ],
      "name": "transferOwnership",
      "outputs": [],
      "stateMutability": "nonpayable",
      "type": "function"
    },
    {
      "inputs": [
        {
          "internalType": "string",
          "name": "_name",
          "type": "string"
        },
        {
          "internalType": "string",
          "name": "_description",
          "type": "string"
        },
        {
          "internalType": "uint256",
          "name": "_date",
          "type": "uint256"
        },
        {
          "internalType": "address",
          "name": "_add",
          "type": "address"
        },
        {
          "internalType": "string",
          "name": "_url",
          "type": "string"
        }
      ],
      "name": "createPrize",
      "outputs": [],
      "stateMutability": "payable",
      "type": "function",
      "payable": true
    },
    {
      "inputs": [],
      "name": "getAllNFTs",
      "outputs": [
        {
          "components": [
            {
              "internalType": "string",
              "name": "name",
              "type": "string"
            },
            {
              "internalType": "string",
              "name": "description",
              "type": "string"
            },
            {
              "internalType": "uint256",
              "name": "date",
              "type": "uint256"
            },
            {
              "internalType": "address",
              "name": "from",
              "type": "address"
            },
            {
              "internalType": "address",
              "name": "to",
              "type": "address"
            },
            {
              "internalType": "string",
              "name": "localurl",
              "type": "string"
            }
          ],
          "internalType": "struct Prize.Prize[]",
          "name": "",
          "type": "tuple[]"
        }
      ],
      "stateMutability": "view",
      "type": "function",
      "constant": true
    },
    {
      "inputs": [
        {
          "internalType": "uint256",
          "name": "tokenId",
          "type": "uint256"
        }
      ],
      "name": "getAnNFTs",
      "outputs": [
        {
          "components": [
            {
              "internalType": "string",
              "name": "name",
              "type": "string"
            },
            {
              "internalType": "string",
              "name": "description",
              "type": "string"
            },
            {
              "internalType": "uint256",
              "name": "date",
              "type": "uint256"
            },
            {
              "internalType": "address",
              "name": "from",
              "type": "address"
            },
            {
              "internalType": "address",
              "name": "to",
              "type": "address"
            },
            {
              "internalType": "string",
              "name": "localurl",
              "type": "string"
            }
          ],
          "internalType": "struct Prize.Prize",
          "name": "",
          "type": "tuple"
        }
      ],
      "stateMutability": "view",
      "type": "function",
      "constant": true
    },
    {
      "inputs": [
        {
          "internalType": "address",
          "name": "_add",
          "type": "address"
        }
      ],
      "name": "getUserNFTS",
      "outputs": [
        {
          "components": [
            {
              "internalType": "string",
              "name": "name",
              "type": "string"
            },
            {
              "internalType": "string",
              "name": "description",
              "type": "string"
            },
            {
              "internalType": "uint256",
              "name": "date",
              "type": "uint256"
            },
            {
              "internalType": "address",
              "name": "from",
              "type": "address"
            },
            {
              "internalType": "address",
              "name": "to",
              "type": "address"
            },
            {
              "internalType": "string",
              "name": "localurl",
              "type": "string"
            }
          ],
          "internalType": "struct Prize.Prize[]",
          "name": "",
          "type": "tuple[]"
        }
      ],
      "stateMutability": "view",
      "type": "function",
      "constant": true
    }
  ],
  "bytecode": "0x60806040526509184e72a000600d55612710600e553480156200002157600080fd5b50604051620055a2380380620055a28339818101604052810190620000479190620002b7565b828281600090805190602001906200006192919062000195565b5080600190805190602001906200007a92919062000195565b5050506200009d62000091620000c760201b60201c565b620000cf60201b60201c565b6000600f819055508060109080519060200190620000bd92919062000195565b50505050620004c8565b600033905090565b6000600a60009054906101000a900473ffffffffffffffffffffffffffffffffffffffff16905081600a60006101000a81548173ffffffffffffffffffffffffffffffffffffffff021916908373ffffffffffffffffffffffffffffffffffffffff1602179055508173ffffffffffffffffffffffffffffffffffffffff168173ffffffffffffffffffffffffffffffffffffffff167f8be0079c531659141344cd1fd0a4f28419497f9722a3daafe3b4186f6b6457e060405160405180910390a35050565b828054620001a390620003ed565b90600052602060002090601f016020900481019282620001c7576000855562000213565b82601f10620001e257805160ff191683800117855562000213565b8280016001018555821562000213579182015b8281111562000212578251825591602001919060010190620001f5565b5b50905062000222919062000226565b5090565b5b808211156200024157600081600090555060010162000227565b5090565b60006200025c620002568462000381565b62000358565b9050828152602081018484840111156200027557600080fd5b62000282848285620003b7565b509392505050565b600082601f8301126200029c57600080fd5b8151620002ae84826020860162000245565b91505092915050565b600080600060608486031215620002cd57600080fd5b600084015167ffffffffffffffff811115620002e857600080fd5b620002f6868287016200028a565b935050602084015167ffffffffffffffff8111156200031457600080fd5b62000322868287016200028a565b925050604084015167ffffffffffffffff8111156200034057600080fd5b6200034e868287016200028a565b9150509250925092565b60006200036462000377565b905062000372828262000423565b919050565b6000604051905090565b600067ffffffffffffffff8211156200039f576200039e62000488565b5b620003aa82620004b7565b9050602081019050919050565b60005b83811015620003d7578082015181840152602081019050620003ba565b83811115620003e7576000848401525b50505050565b600060028204905060018216806200040657607f821691505b602082108114156200041d576200041c62000459565b5b50919050565b6200042e82620004b7565b810181811067ffffffffffffffff8211171562000450576200044f62000488565b5b80604052505050565b7f4e487b7100000000000000000000000000000000000000000000000000000000600052602260045260246000fd5b7f4e487b7100000000000000000000000000000000000000000000000000000000600052604160045260246000fd5b6000601f19601f8301169050919050565b6150ca80620004d86000396000f3fe6080604052600436106101c25760003560e01c806368ef9d3c116100f7578063b88d4fde11610095578063e0391b0911610064578063e0391b0914610686578063e985e9c5146106b1578063f2fde38b146106ee578063f37971df14610717576101c2565b8063b88d4fde146105b3578063c36d35af146105dc578063c87b56dd1461061e578063d5abeb011461065b576101c2565b8063715018a6116100d1578063715018a61461051d5780638da5cb5b1461053457806395d89b411461055f578063a22cb4651461058a576101c2565b806368ef9d3c146104785780636c0360eb146104b557806370a08231146104e0576101c2565b806318160ddd1161016457806342842e0e1161013e57806342842e0e146103b95780634f6ccce7146103e2578063524c6c9c1461041f5780636352211e1461043b576101c2565b806318160ddd1461032857806323b872dd146103535780632f745c591461037c576101c2565b8063081812fc116101a0578063081812fc1461025a578063095ea7b3146102975780631058b22e146102c057806313faede6146102fd576101c2565b806301ffc9a7146101c7578063047fc9aa1461020457806306fdde031461022f575b600080fd5b3480156101d357600080fd5b506101ee60048036038101906101e99190613b55565b610754565b6040516101fb91906143eb565b60405180910390f35b34801561021057600080fd5b506102196107ce565b6040516102269190614720565b60405180910390f35b34801561023b57600080fd5b506102446107d4565b6040516102519190614406565b60405180910390f35b34801561026657600080fd5b50610281600480360381019061027c9190613ca7565b610866565b60405161028e9190614362565b60405180910390f35b3480156102a357600080fd5b506102be60048036038101906102b99190613b19565b6108ac565b005b3480156102cc57600080fd5b506102e760048036038101906102e291906139ae565b6109c4565b6040516102f491906143c9565b60405180910390f35b34801561030957600080fd5b50610312610e2a565b60405161031f9190614720565b60405180910390f35b34801561033457600080fd5b5061033d610e30565b60405161034a9190614720565b60405180910390f35b34801561035f57600080fd5b5061037a60048036038101906103759190613a13565b610e3d565b005b34801561038857600080fd5b506103a3600480360381019061039e9190613b19565b610e9d565b6040516103b09190614720565b60405180910390f35b3480156103c557600080fd5b506103e060048036038101906103db9190613a13565b610f42565b005b3480156103ee57600080fd5b5061040960048036038101906104049190613ca7565b610f62565b6040516104169190614720565b60405180910390f35b61043960048036038101906104349190613be8565b610ff9565b005b34801561044757600080fd5b50610462600480360381019061045d9190613ca7565b611371565b60405161046f9190614362565b60405180910390f35b34801561048457600080fd5b5061049f600480360381019061049a9190613ca7565b6113f8565b6040516104ac91906146fe565b60405180910390f35b3480156104c157600080fd5b506104ca6116d2565b6040516104d79190614406565b60405180910390f35b3480156104ec57600080fd5b50610507600480360381019061050291906139ae565b611760565b6040516105149190614720565b60405180910390f35b34801561052957600080fd5b50610532611818565b005b34801561054057600080fd5b5061054961182c565b6040516105569190614362565b60405180910390f35b34801561056b57600080fd5b50610574611856565b6040516105819190614406565b60405180910390f35b34801561059657600080fd5b506105b160048036038101906105ac9190613add565b6118e8565b005b3480156105bf57600080fd5b506105da60048036038101906105d59190613a62565b6118fe565b005b3480156105e857600080fd5b5061060360048036038101906105fe9190613ca7565b611960565b60405161061596959493929190614428565b60405180910390f35b34801561062a57600080fd5b5061064560048036038101906106409190613ca7565b611b84565b6040516106529190614406565b60405180910390f35b34801561066757600080fd5b50610670611bec565b60405161067d9190614720565b60405180910390f35b34801561069257600080fd5b5061069b611bf2565b6040516106a891906143c9565b60405180910390f35b3480156106bd57600080fd5b506106d860048036038101906106d391906139d7565b611ebd565b6040516106e591906143eb565b60405180910390f35b3480156106fa57600080fd5b50610715600480360381019061071091906139ae565b611f51565b005b34801561072357600080fd5b5061073e60048036038101906107399190613ba7565b611fd5565b60405161074b9190614787565b60405180910390f35b60007f780e9d63000000000000000000000000000000000000000000000000000000007bffffffffffffffffffffffffffffffffffffffffffffffffffffffff1916827bffffffffffffffffffffffffffffffffffffffffffffffffffffffff191614806107c757506107c68261200b565b5b9050919050565b600f5481565b6060600080546107e390614a18565b80601f016020809104026020016040519081016040528092919081815260200182805461080f90614a18565b801561085c5780601f106108315761010080835404028352916020019161085c565b820191906000526020600020905b81548152906001019060200180831161083f57829003601f168201915b5050505050905090565b6000610871826120ed565b6004600083815260200190815260200160002060009054906101000a900473ffffffffffffffffffffffffffffffffffffffff169050919050565b60006108b782611371565b90508073ffffffffffffffffffffffffffffffffffffffff168373ffffffffffffffffffffffffffffffffffffffff161415610928576040517f08c379a000000000000000000000000000000000000000000000000000000000815260040161091f9061463e565b60405180910390fd5b8073ffffffffffffffffffffffffffffffffffffffff16610947612138565b73ffffffffffffffffffffffffffffffffffffffff161480610976575061097581610970612138565b611ebd565b5b6109b5576040517f08c379a00000000000000000000000000000000000000000000000000000000081526004016109ac9061465e565b60405180910390fd5b6109bf8383612140565b505050565b60606000600c8054905067ffffffffffffffff811115610a0d577f4e487b7100000000000000000000000000000000000000000000000000000000600052604160045260246000fd5b604051908082528060200260200182016040528015610a4657816020015b610a33613770565b815260200190600190039081610a2b5790505b5090506000805b600c80549050811015610e1f578473ffffffffffffffffffffffffffffffffffffffff16600c8281548110610aab577f4e487b7100000000000000000000000000000000000000000000000000000000600052603260045260246000fd5b906000526020600020906006020160040160009054906101000a900473ffffffffffffffffffffffffffffffffffffffff1673ffffffffffffffffffffffffffffffffffffffff161415610e0c57600c8181548110610b33577f4e487b7100000000000000000000000000000000000000000000000000000000600052603260045260246000fd5b90600052602060002090600602016040518060c0016040529081600082018054610b5c90614a18565b80601f0160208091040260200160405190810160405280929190818152602001828054610b8890614a18565b8015610bd55780601f10610baa57610100808354040283529160200191610bd5565b820191906000526020600020905b815481529060010190602001808311610bb857829003601f168201915b50505050508152602001600182018054610bee90614a18565b80601f0160208091040260200160405190810160405280929190818152602001828054610c1a90614a18565b8015610c675780601f10610c3c57610100808354040283529160200191610c67565b820191906000526020600020905b815481529060010190602001808311610c4a57829003601f168201915b50505050508152602001600282015481526020016003820160009054906101000a900473ffffffffffffffffffffffffffffffffffffffff1673ffffffffffffffffffffffffffffffffffffffff1673ffffffffffffffffffffffffffffffffffffffff1681526020016004820160009054906101000a900473ffffffffffffffffffffffffffffffffffffffff1673ffffffffffffffffffffffffffffffffffffffff1673ffffffffffffffffffffffffffffffffffffffff168152602001600582018054610d3690614a18565b80601f0160208091040260200160405190810160405280929190818152602001828054610d6290614a18565b8015610daf5780601f10610d8457610100808354040283529160200191610daf565b820191906000526020600020905b815481529060010190602001808311610d9257829003601f168201915b505050505081525050838381518110610df1577f4e487b7100000000000000000000000000000000000000000000000000000000600052603260045260246000fd5b6020026020010181905250600182610e0991906148cb565b91505b8080610e1790614a7b565b915050610a4d565b508192505050919050565b600d5481565b6000600880549050905090565b610e4e610e48612138565b826121f9565b610e8d576040517f08c379a0000000000000000000000000000000000000000000000000000000008152600401610e849061449e565b60405180910390fd5b610e9883838361228e565b505050565b6000610ea883611760565b8210610ee9576040517f08c379a0000000000000000000000000000000000000000000000000000000008152600401610ee0906144be565b60405180910390fd5b600660008473ffffffffffffffffffffffffffffffffffffffff1673ffffffffffffffffffffffffffffffffffffffff168152602001908152602001600020600083815260200190815260200160002054905092915050565b610f5d838383604051806020016040528060008152506118fe565b505050565b6000610f6c610e30565b8210610fad576040517f08c379a0000000000000000000000000000000000000000000000000000000008152600401610fa49061467e565b60405180910390fd5b60088281548110610fe7577f4e487b7100000000000000000000000000000000000000000000000000000000600052603260045260246000fd5b90600052602060002001549050919050565b600e54600f541115611040576040517f08c379a0000000000000000000000000000000000000000000000000000000008152600401611037906146de565b60405180910390fd5b60003411611083576040517f08c379a000000000000000000000000000000000000000000000000000000000815260040161107a9061469e565b60405180910390fd5b61108b61182c565b73ffffffffffffffffffffffffffffffffffffffff163373ffffffffffffffffffffffffffffffffffffffff1614156110f9576040517f08c379a00000000000000000000000000000000000000000000000000000000081526004016110f0906145be565b60405180910390fd5b6001600f600082825461110c91906148cb565b92505081905550600061113461112f6001600f5461112a91906148cb565b612588565b6126ac565b90506001600b8260405161114891906142f8565b908152602001604051809103902060006101000a81548160ff021916908360ff16021790555060006040518060c001604052808881526020018781526020018681526020013373ffffffffffffffffffffffffffffffffffffffff1681526020018573ffffffffffffffffffffffffffffffffffffffff168152602001848152509050600c81908060018154018082558091505060019003906000526020600020906006020160009091909190915060008201518160000190805190602001906112139291906137d2565b5060208201518160010190805190602001906112309291906137d2565b506040820151816002015560608201518160030160006101000a81548173ffffffffffffffffffffffffffffffffffffffff021916908373ffffffffffffffffffffffffffffffffffffffff16021790555060808201518160040160006101000a81548173ffffffffffffffffffffffffffffffffffffffff021916908373ffffffffffffffffffffffffffffffffffffffff16021790555060a08201518160050190805190602001906112e59291906137d2565b5050506112f061182c565b73ffffffffffffffffffffffffffffffffffffffff168473ffffffffffffffffffffffffffffffffffffffff167fb469359dfb4687ad379b72bf9c33dcf7778573df52d8a51e123e24749fd00293600f54348642604051611354949392919061473b565b60405180910390a361136833600f546126d8565b50505050505050565b60008061137d836126f6565b9050600073ffffffffffffffffffffffffffffffffffffffff168173ffffffffffffffffffffffffffffffffffffffff1614156113ef576040517f08c379a00000000000000000000000000000000000000000000000000000000081526004016113e69061461e565b60405180910390fd5b80915050919050565b611400613770565b600c60018361140f9190614921565b81548110611446577f4e487b7100000000000000000000000000000000000000000000000000000000600052603260045260246000fd5b90600052602060002090600602016040518060c001604052908160008201805461146f90614a18565b80601f016020809104026020016040519081016040528092919081815260200182805461149b90614a18565b80156114e85780601f106114bd576101008083540402835291602001916114e8565b820191906000526020600020905b8154815290600101906020018083116114cb57829003601f168201915b5050505050815260200160018201805461150190614a18565b80601f016020809104026020016040519081016040528092919081815260200182805461152d90614a18565b801561157a5780601f1061154f5761010080835404028352916020019161157a565b820191906000526020600020905b81548152906001019060200180831161155d57829003601f168201915b50505050508152602001600282015481526020016003820160009054906101000a900473ffffffffffffffffffffffffffffffffffffffff1673ffffffffffffffffffffffffffffffffffffffff1673ffffffffffffffffffffffffffffffffffffffff1681526020016004820160009054906101000a900473ffffffffffffffffffffffffffffffffffffffff1673ffffffffffffffffffffffffffffffffffffffff1673ffffffffffffffffffffffffffffffffffffffff16815260200160058201805461164990614a18565b80601f016020809104026020016040519081016040528092919081815260200182805461167590614a18565b80156116c25780601f10611697576101008083540402835291602001916116c2565b820191906000526020600020905b8154815290600101906020018083116116a557829003601f168201915b5050505050815250509050919050565b601080546116df90614a18565b80601f016020809104026020016040519081016040528092919081815260200182805461170b90614a18565b80156117585780601f1061172d57610100808354040283529160200191611758565b820191906000526020600020905b81548152906001019060200180831161173b57829003601f168201915b505050505081565b60008073ffffffffffffffffffffffffffffffffffffffff168273ffffffffffffffffffffffffffffffffffffffff1614156117d1576040517f08c379a00000000000000000000000000000000000000000000000000000000081526004016117c89061459e565b60405180910390fd5b600360008373ffffffffffffffffffffffffffffffffffffffff1673ffffffffffffffffffffffffffffffffffffffff168152602001908152602001600020549050919050565b611820612733565b61182a60006127b1565b565b6000600a60009054906101000a900473ffffffffffffffffffffffffffffffffffffffff16905090565b60606001805461186590614a18565b80601f016020809104026020016040519081016040528092919081815260200182805461189190614a18565b80156118de5780601f106118b3576101008083540402835291602001916118de565b820191906000526020600020905b8154815290600101906020018083116118c157829003601f168201915b5050505050905090565b6118fa6118f3612138565b8383612877565b5050565b61190f611909612138565b836121f9565b61194e576040517f08c379a00000000000000000000000000000000000000000000000000000000081526004016119459061449e565b60405180910390fd5b61195a848484846129e4565b50505050565b600c818154811061197057600080fd5b906000526020600020906006020160009150905080600001805461199390614a18565b80601f01602080910402602001604051908101604052809291908181526020018280546119bf90614a18565b8015611a0c5780601f106119e157610100808354040283529160200191611a0c565b820191906000526020600020905b8154815290600101906020018083116119ef57829003601f168201915b505050505090806001018054611a2190614a18565b80601f0160208091040260200160405190810160405280929190818152602001828054611a4d90614a18565b8015611a9a5780601f10611a6f57610100808354040283529160200191611a9a565b820191906000526020600020905b815481529060010190602001808311611a7d57829003601f168201915b5050505050908060020154908060030160009054906101000a900473ffffffffffffffffffffffffffffffffffffffff16908060040160009054906101000a900473ffffffffffffffffffffffffffffffffffffffff1690806005018054611b0190614a18565b80601f0160208091040260200160405190810160405280929190818152602001828054611b2d90614a18565b8015611b7a5780601f10611b4f57610100808354040283529160200191611b7a565b820191906000526020600020905b815481529060010190602001808311611b5d57829003601f168201915b5050505050905086565b6060611b8f826120ed565b6000611b99612a40565b90506000815111611bb95760405180602001604052806000815250611be4565b80611bc384612588565b604051602001611bd492919061430f565b6040516020818303038152906040525b915050919050565b600e5481565b6060600c805480602002602001604051908101604052809291908181526020016000905b82821015611eb457838290600052602060002090600602016040518060c0016040529081600082018054611c4990614a18565b80601f0160208091040260200160405190810160405280929190818152602001828054611c7590614a18565b8015611cc25780601f10611c9757610100808354040283529160200191611cc2565b820191906000526020600020905b815481529060010190602001808311611ca557829003601f168201915b50505050508152602001600182018054611cdb90614a18565b80601f0160208091040260200160405190810160405280929190818152602001828054611d0790614a18565b8015611d545780601f10611d2957610100808354040283529160200191611d54565b820191906000526020600020905b815481529060010190602001808311611d3757829003601f168201915b50505050508152602001600282015481526020016003820160009054906101000a900473ffffffffffffffffffffffffffffffffffffffff1673ffffffffffffffffffffffffffffffffffffffff1673ffffffffffffffffffffffffffffffffffffffff1681526020016004820160009054906101000a900473ffffffffffffffffffffffffffffffffffffffff1673ffffffffffffffffffffffffffffffffffffffff1673ffffffffffffffffffffffffffffffffffffffff168152602001600582018054611e2390614a18565b80601f0160208091040260200160405190810160405280929190818152602001828054611e4f90614a18565b8015611e9c5780601f10611e7157610100808354040283529160200191611e9c565b820191906000526020600020905b815481529060010190602001808311611e7f57829003601f168201915b50505050508152505081526020019060010190611c16565b50505050905090565b6000600560008473ffffffffffffffffffffffffffffffffffffffff1673ffffffffffffffffffffffffffffffffffffffff16815260200190815260200160002060008373ffffffffffffffffffffffffffffffffffffffff1673ffffffffffffffffffffffffffffffffffffffff16815260200190815260200160002060009054906101000a900460ff16905092915050565b611f59612733565b600073ffffffffffffffffffffffffffffffffffffffff168173ffffffffffffffffffffffffffffffffffffffff161415611fc9576040517f08c379a0000000000000000000000000000000000000000000000000000000008152600401611fc0906144fe565b60405180910390fd5b611fd2816127b1565b50565b600b818051602081018201805184825260208301602085012081835280955050505050506000915054906101000a900460ff1681565b60007f80ac58cd000000000000000000000000000000000000000000000000000000007bffffffffffffffffffffffffffffffffffffffffffffffffffffffff1916827bffffffffffffffffffffffffffffffffffffffffffffffffffffffff191614806120d657507f5b5e139f000000000000000000000000000000000000000000000000000000007bffffffffffffffffffffffffffffffffffffffffffffffffffffffff1916827bffffffffffffffffffffffffffffffffffffffffffffffffffffffff1916145b806120e657506120e582612a57565b5b9050919050565b6120f681612ac1565b612135576040517f08c379a000000000000000000000000000000000000000000000000000000000815260040161212c9061461e565b60405180910390fd5b50565b600033905090565b816004600083815260200190815260200160002060006101000a81548173ffffffffffffffffffffffffffffffffffffffff021916908373ffffffffffffffffffffffffffffffffffffffff160217905550808273ffffffffffffffffffffffffffffffffffffffff166121b383611371565b73ffffffffffffffffffffffffffffffffffffffff167f8c5be1e5ebec7d5bd14f71427d1e84f3dd0314c0f7b2291e5b200ac8c7c3b92560405160405180910390a45050565b60008061220583611371565b90508073ffffffffffffffffffffffffffffffffffffffff168473ffffffffffffffffffffffffffffffffffffffff16148061224757506122468185611ebd565b5b8061228557508373ffffffffffffffffffffffffffffffffffffffff1661226d84610866565b73ffffffffffffffffffffffffffffffffffffffff16145b91505092915050565b8273ffffffffffffffffffffffffffffffffffffffff166122ae82611371565b73ffffffffffffffffffffffffffffffffffffffff1614612304576040517f08c379a00000000000000000000000000000000000000000000000000000000081526004016122fb9061451e565b60405180910390fd5b600073ffffffffffffffffffffffffffffffffffffffff168273ffffffffffffffffffffffffffffffffffffffff161415612374576040517f08c379a000000000000000000000000000000000000000000000000000000000815260040161236b9061455e565b60405180910390fd5b6123818383836001612b02565b8273ffffffffffffffffffffffffffffffffffffffff166123a182611371565b73ffffffffffffffffffffffffffffffffffffffff16146123f7576040517f08c379a00000000000000000000000000000000000000000000000000000000081526004016123ee9061451e565b60405180910390fd5b6004600082815260200190815260200160002060006101000a81549073ffffffffffffffffffffffffffffffffffffffff02191690556001600360008573ffffffffffffffffffffffffffffffffffffffff1673ffffffffffffffffffffffffffffffffffffffff168152602001908152602001600020600082825403925050819055506001600360008473ffffffffffffffffffffffffffffffffffffffff1673ffffffffffffffffffffffffffffffffffffffff16815260200190815260200160002060008282540192505081905550816002600083815260200190815260200160002060006101000a81548173ffffffffffffffffffffffffffffffffffffffff021916908373ffffffffffffffffffffffffffffffffffffffff160217905550808273ffffffffffffffffffffffffffffffffffffffff168473ffffffffffffffffffffffffffffffffffffffff167fddf252ad1be2c89b69c2b068fc378daa952ba7f163c4a11628f55a4df523b3ef60405160405180910390a46125838383836001612c62565b505050565b60606000600161259784612c68565b01905060008167ffffffffffffffff8111156125dc577f4e487b7100000000000000000000000000000000000000000000000000000000600052604160045260246000fd5b6040519080825280601f01601f19166020018201604052801561260e5781602001600182028036833780820191505090505b509050600082602001820190505b6001156126a1578080600190039150507f3031323334353637383961626364656600000000000000000000000000000000600a86061a8153600a858161268b577f4e487b7100000000000000000000000000000000000000000000000000000000600052601260045260246000fd5b049450600085141561269c576126a1565b61261c565b819350505050919050565b60606010826040516020016126c2929190614333565b6040516020818303038152906040529050919050565b6126f2828260405180602001604052806000815250612e9f565b5050565b60006002600083815260200190815260200160002060009054906101000a900473ffffffffffffffffffffffffffffffffffffffff169050919050565b61273b612138565b73ffffffffffffffffffffffffffffffffffffffff1661275961182c565b73ffffffffffffffffffffffffffffffffffffffff16146127af576040517f08c379a00000000000000000000000000000000000000000000000000000000081526004016127a6906145fe565b60405180910390fd5b565b6000600a60009054906101000a900473ffffffffffffffffffffffffffffffffffffffff16905081600a60006101000a81548173ffffffffffffffffffffffffffffffffffffffff021916908373ffffffffffffffffffffffffffffffffffffffff1602179055508173ffffffffffffffffffffffffffffffffffffffff168173ffffffffffffffffffffffffffffffffffffffff167f8be0079c531659141344cd1fd0a4f28419497f9722a3daafe3b4186f6b6457e060405160405180910390a35050565b8173ffffffffffffffffffffffffffffffffffffffff168373ffffffffffffffffffffffffffffffffffffffff1614156128e6576040517f08c379a00000000000000000000000000000000000000000000000000000000081526004016128dd9061457e565b60405180910390fd5b80600560008573ffffffffffffffffffffffffffffffffffffffff1673ffffffffffffffffffffffffffffffffffffffff16815260200190815260200160002060008473ffffffffffffffffffffffffffffffffffffffff1673ffffffffffffffffffffffffffffffffffffffff16815260200190815260200160002060006101000a81548160ff0219169083151502179055508173ffffffffffffffffffffffffffffffffffffffff168373ffffffffffffffffffffffffffffffffffffffff167f17307eab39ab6107e8899845ad3d59bd9653f200f220920489ca2b5937696c31836040516129d791906143eb565b60405180910390a3505050565b6129ef84848461228e565b6129fb84848484612efa565b612a3a576040517f08c379a0000000000000000000000000000000000000000000000000000000008152600401612a31906144de565b60405180910390fd5b50505050565b606060405180602001604052806000815250905090565b60007f01ffc9a7000000000000000000000000000000000000000000000000000000007bffffffffffffffffffffffffffffffffffffffffffffffffffffffff1916827bffffffffffffffffffffffffffffffffffffffffffffffffffffffff1916149050919050565b60008073ffffffffffffffffffffffffffffffffffffffff16612ae3836126f6565b73ffffffffffffffffffffffffffffffffffffffff1614159050919050565b612b0e84848484613091565b6001811115612b52576040517f08c379a0000000000000000000000000000000000000000000000000000000008152600401612b49906146be565b60405180910390fd5b6000829050600073ffffffffffffffffffffffffffffffffffffffff168573ffffffffffffffffffffffffffffffffffffffff161415612b9a57612b95816131b7565b612bd9565b8373ffffffffffffffffffffffffffffffffffffffff168573ffffffffffffffffffffffffffffffffffffffff1614612bd857612bd78582613200565b5b5b600073ffffffffffffffffffffffffffffffffffffffff168473ffffffffffffffffffffffffffffffffffffffff161415612c1c57612c178161336d565b612c5b565b8473ffffffffffffffffffffffffffffffffffffffff168473ffffffffffffffffffffffffffffffffffffffff1614612c5a57612c5984826134b0565b5b5b5050505050565b50505050565b600080600090507a184f03e93ff9f4daa797ed6e38ed64bf6a1f0100000000000000008310612cec577a184f03e93ff9f4daa797ed6e38ed64bf6a1f0100000000000000008381612ce2577f4e487b7100000000000000000000000000000000000000000000000000000000600052601260045260246000fd5b0492506040810190505b6d04ee2d6d415b85acef81000000008310612d4f576d04ee2d6d415b85acef81000000008381612d45577f4e487b7100000000000000000000000000000000000000000000000000000000600052601260045260246000fd5b0492506020810190505b662386f26fc100008310612da457662386f26fc100008381612d9a577f4e487b7100000000000000000000000000000000000000000000000000000000600052601260045260246000fd5b0492506010810190505b6305f5e1008310612df3576305f5e1008381612de9577f4e487b7100000000000000000000000000000000000000000000000000000000600052601260045260246000fd5b0492506008810190505b6127108310612e3e576127108381612e34577f4e487b7100000000000000000000000000000000000000000000000000000000600052601260045260246000fd5b0492506004810190505b60648310612e875760648381612e7d577f4e487b7100000000000000000000000000000000000000000000000000000000600052601260045260246000fd5b0492506002810190505b600a8310612e96576001810190505b80915050919050565b612ea9838361352f565b612eb66000848484612efa565b612ef5576040517f08c379a0000000000000000000000000000000000000000000000000000000008152600401612eec906144de565b60405180910390fd5b505050565b6000612f1b8473ffffffffffffffffffffffffffffffffffffffff1661374d565b15613084578373ffffffffffffffffffffffffffffffffffffffff1663150b7a02612f44612138565b8786866040518563ffffffff1660e01b8152600401612f66949392919061437d565b602060405180830381600087803b158015612f8057600080fd5b505af1925050508015612fb157506040513d601f19601f82011682018060405250810190612fae9190613b7e565b60015b613034573d8060008114612fe1576040519150601f19603f3d011682016040523d82523d6000602084013e612fe6565b606091505b5060008151141561302c576040517f08c379a0000000000000000000000000000000000000000000000000000000008152600401613023906144de565b60405180910390fd5b805181602001fd5b63150b7a0260e01b7bffffffffffffffffffffffffffffffffffffffffffffffffffffffff1916817bffffffffffffffffffffffffffffffffffffffffffffffffffffffff191614915050613089565b600190505b949350505050565b60018111156131b157600073ffffffffffffffffffffffffffffffffffffffff168473ffffffffffffffffffffffffffffffffffffffff16146131255780600360008673ffffffffffffffffffffffffffffffffffffffff1673ffffffffffffffffffffffffffffffffffffffff168152602001908152602001600020600082825461311d9190614921565b925050819055505b600073ffffffffffffffffffffffffffffffffffffffff168373ffffffffffffffffffffffffffffffffffffffff16146131b05780600360008573ffffffffffffffffffffffffffffffffffffffff1673ffffffffffffffffffffffffffffffffffffffff16815260200190815260200160002060008282546131a891906148cb565b925050819055505b5b50505050565b6008805490506009600083815260200190815260200160002081905550600881908060018154018082558091505060019003906000526020600020016000909190919091505550565b6000600161320d84611760565b6132179190614921565b90506000600760008481526020019081526020016000205490508181146132fc576000600660008673ffffffffffffffffffffffffffffffffffffffff1673ffffffffffffffffffffffffffffffffffffffff168152602001908152602001600020600084815260200190815260200160002054905080600660008773ffffffffffffffffffffffffffffffffffffffff1673ffffffffffffffffffffffffffffffffffffffff168152602001908152602001600020600084815260200190815260200160002081905550816007600083815260200190815260200160002081905550505b6007600084815260200190815260200160002060009055600660008573ffffffffffffffffffffffffffffffffffffffff1673ffffffffffffffffffffffffffffffffffffffff16815260200190815260200160002060008381526020019081526020016000206000905550505050565b600060016008805490506133819190614921565b90506000600960008481526020019081526020016000205490506000600883815481106133d7577f4e487b7100000000000000000000000000000000000000000000000000000000600052603260045260246000fd5b90600052602060002001549050806008838154811061341f577f4e487b7100000000000000000000000000000000000000000000000000000000600052603260045260246000fd5b906000526020600020018190555081600960008381526020019081526020016000208190555060096000858152602001908152602001600020600090556008805480613494577f4e487b7100000000000000000000000000000000000000000000000000000000600052603160045260246000fd5b6001900381819060005260206000200160009055905550505050565b60006134bb83611760565b905081600660008573ffffffffffffffffffffffffffffffffffffffff1673ffffffffffffffffffffffffffffffffffffffff168152602001908152602001600020600083815260200190815260200160002081905550806007600084815260200190815260200160002081905550505050565b600073ffffffffffffffffffffffffffffffffffffffff168273ffffffffffffffffffffffffffffffffffffffff16141561359f576040517f08c379a0000000000000000000000000000000000000000000000000000000008152600401613596906145de565b60405180910390fd5b6135a881612ac1565b156135e8576040517f08c379a00000000000000000000000000000000000000000000000000000000081526004016135df9061453e565b60405180910390fd5b6135f6600083836001612b02565b6135ff81612ac1565b1561363f576040517f08c379a00000000000000000000000000000000000000000000000000000000081526004016136369061453e565b60405180910390fd5b6001600360008473ffffffffffffffffffffffffffffffffffffffff1673ffffffffffffffffffffffffffffffffffffffff16815260200190815260200160002060008282540192505081905550816002600083815260200190815260200160002060006101000a81548173ffffffffffffffffffffffffffffffffffffffff021916908373ffffffffffffffffffffffffffffffffffffffff160217905550808273ffffffffffffffffffffffffffffffffffffffff16600073ffffffffffffffffffffffffffffffffffffffff167fddf252ad1be2c89b69c2b068fc378daa952ba7f163c4a11628f55a4df523b3ef60405160405180910390a4613749600083836001612c62565b5050565b6000808273ffffffffffffffffffffffffffffffffffffffff163b119050919050565b6040518060c00160405280606081526020016060815260200160008152602001600073ffffffffffffffffffffffffffffffffffffffff168152602001600073ffffffffffffffffffffffffffffffffffffffff168152602001606081525090565b8280546137de90614a18565b90600052602060002090601f0160209004810192826138005760008555613847565b82601f1061381957805160ff1916838001178555613847565b82800160010185558215613847579182015b8281111561384657825182559160200191906001019061382b565b5b5090506138549190613858565b5090565b5b80821115613871576000816000905550600101613859565b5090565b6000613888613883846147c7565b6147a2565b9050828152602081018484840111156138a057600080fd5b6138ab8482856149d6565b509392505050565b60006138c66138c1846147f8565b6147a2565b9050828152602081018484840111156138de57600080fd5b6138e98482856149d6565b509392505050565b60008135905061390081615038565b92915050565b6000813590506139158161504f565b92915050565b60008135905061392a81615066565b92915050565b60008151905061393f81615066565b92915050565b600082601f83011261395657600080fd5b8135613966848260208601613875565b91505092915050565b600082601f83011261398057600080fd5b81356139908482602086016138b3565b91505092915050565b6000813590506139a88161507d565b92915050565b6000602082840312156139c057600080fd5b60006139ce848285016138f1565b91505092915050565b600080604083850312156139ea57600080fd5b60006139f8858286016138f1565b9250506020613a09858286016138f1565b9150509250929050565b600080600060608486031215613a2857600080fd5b6000613a36868287016138f1565b9350506020613a47868287016138f1565b9250506040613a5886828701613999565b9150509250925092565b60008060008060808587031215613a7857600080fd5b6000613a86878288016138f1565b9450506020613a97878288016138f1565b9350506040613aa887828801613999565b925050606085013567ffffffffffffffff811115613ac557600080fd5b613ad187828801613945565b91505092959194509250565b60008060408385031215613af057600080fd5b6000613afe858286016138f1565b9250506020613b0f85828601613906565b9150509250929050565b60008060408385031215613b2c57600080fd5b6000613b3a858286016138f1565b9250506020613b4b85828601613999565b9150509250929050565b600060208284031215613b6757600080fd5b6000613b758482850161391b565b91505092915050565b600060208284031215613b9057600080fd5b6000613b9e84828501613930565b91505092915050565b600060208284031215613bb957600080fd5b600082013567ffffffffffffffff811115613bd357600080fd5b613bdf8482850161396f565b91505092915050565b600080600080600060a08688031215613c0057600080fd5b600086013567ffffffffffffffff811115613c1a57600080fd5b613c268882890161396f565b955050602086013567ffffffffffffffff811115613c4357600080fd5b613c4f8882890161396f565b9450506040613c6088828901613999565b9350506060613c71888289016138f1565b925050608086013567ffffffffffffffff811115613c8e57600080fd5b613c9a8882890161396f565b9150509295509295909350565b600060208284031215613cb957600080fd5b6000613cc784828501613999565b91505092915050565b6000613cdc838361419d565b905092915050565b613ced81614955565b82525050565b613cfc81614955565b82525050565b6000613d0d8261484e565b613d17818561487c565b935083602082028501613d2985614829565b8060005b85811015613d655784840389528151613d468582613cd0565b9450613d518361486f565b925060208a01995050600181019050613d2d565b50829750879550505050505092915050565b613d8081614967565b82525050565b6000613d9182614859565b613d9b818561488d565b9350613dab8185602086016149e5565b613db481614b51565b840191505092915050565b6000613dca82614864565b613dd4818561489e565b9350613de48185602086016149e5565b613ded81614b51565b840191505092915050565b6000613e0382614864565b613e0d81856148af565b9350613e1d8185602086016149e5565b613e2681614b51565b840191505092915050565b6000613e3c82614864565b613e4681856148c0565b9350613e568185602086016149e5565b80840191505092915050565b60008154613e6f81614a18565b613e7981866148c0565b94506001821660008114613e945760018114613ea557613ed8565b60ff19831686528186019350613ed8565b613eae85614839565b60005b83811015613ed057815481890152600182019150602081019050613eb1565b838801955050505b50505092915050565b6000613eee602d836148af565b9150613ef982614b62565b604082019050919050565b6000613f11602b836148af565b9150613f1c82614bb1565b604082019050919050565b6000613f346032836148af565b9150613f3f82614c00565b604082019050919050565b6000613f576026836148af565b9150613f6282614c4f565b604082019050919050565b6000613f7a6025836148af565b9150613f8582614c9e565b604082019050919050565b6000613f9d601c836148af565b9150613fa882614ced565b602082019050919050565b6000613fc06024836148af565b9150613fcb82614d16565b604082019050919050565b6000613fe36019836148af565b9150613fee82614d65565b602082019050919050565b60006140066029836148af565b915061401182614d8e565b604082019050919050565b60006140296016836148af565b915061403482614ddd565b602082019050919050565b600061404c6020836148af565b915061405782614e06565b602082019050919050565b600061406f6020836148af565b915061407a82614e2f565b602082019050919050565b60006140926018836148af565b915061409d82614e58565b602082019050919050565b60006140b56021836148af565b91506140c082614e81565b604082019050919050565b60006140d86000836148c0565b91506140e382614ed0565b600082019050919050565b60006140fb603d836148af565b915061410682614ed3565b604082019050919050565b600061411e602c836148af565b915061412982614f22565b604082019050919050565b6000614141601a836148af565b915061414c82614f71565b602082019050919050565b60006141646035836148af565b915061416f82614f9a565b604082019050919050565b60006141876021836148af565b915061419282614fe9565b604082019050919050565b600060c08301600083015184820360008601526141ba8282613dbf565b915050602083015184820360208601526141d48282613dbf565b91505060408301516141e960408601826142cb565b5060608301516141fc6060860182613ce4565b50608083015161420f6080860182613ce4565b5060a083015184820360a08601526142278282613dbf565b9150508091505092915050565b600060c08301600083015184820360008601526142518282613dbf565b9150506020830151848203602086015261426b8282613dbf565b915050604083015161428060408601826142cb565b5060608301516142936060860182613ce4565b5060808301516142a66080860182613ce4565b5060a083015184820360a08601526142be8282613dbf565b9150508091505092915050565b6142d4816149bf565b82525050565b6142e3816149bf565b82525050565b6142f2816149c9565b82525050565b60006143048284613e31565b915081905092915050565b600061431b8285613e31565b91506143278284613e31565b91508190509392505050565b600061433f8285613e62565b915061434a826140cb565b91506143568284613e31565b91508190509392505050565b60006020820190506143776000830184613cf3565b92915050565b60006080820190506143926000830187613cf3565b61439f6020830186613cf3565b6143ac60408301856142da565b81810360608301526143be8184613d86565b905095945050505050565b600060208201905081810360008301526143e38184613d02565b905092915050565b60006020820190506144006000830184613d77565b92915050565b600060208201905081810360008301526144208184613df8565b905092915050565b600060c08201905081810360008301526144428189613df8565b905081810360208301526144568188613df8565b905061446560408301876142da565b6144726060830186613cf3565b61447f6080830185613cf3565b81810360a08301526144918184613df8565b9050979650505050505050565b600060208201905081810360008301526144b781613ee1565b9050919050565b600060208201905081810360008301526144d781613f04565b9050919050565b600060208201905081810360008301526144f781613f27565b9050919050565b6000602082019050818103600083015261451781613f4a565b9050919050565b6000602082019050818103600083015261453781613f6d565b9050919050565b6000602082019050818103600083015261455781613f90565b9050919050565b6000602082019050818103600083015261457781613fb3565b9050919050565b6000602082019050818103600083015261459781613fd6565b9050919050565b600060208201905081810360008301526145b781613ff9565b9050919050565b600060208201905081810360008301526145d78161401c565b9050919050565b600060208201905081810360008301526145f78161403f565b9050919050565b6000602082019050818103600083015261461781614062565b9050919050565b6000602082019050818103600083015261463781614085565b9050919050565b60006020820190508181036000830152614657816140a8565b9050919050565b60006020820190508181036000830152614677816140ee565b9050919050565b6000602082019050818103600083015261469781614111565b9050919050565b600060208201905081810360008301526146b781614134565b9050919050565b600060208201905081810360008301526146d781614157565b9050919050565b600060208201905081810360008301526146f78161417a565b9050919050565b600060208201905081810360008301526147188184614234565b905092915050565b600060208201905061473560008301846142da565b92915050565b600060808201905061475060008301876142da565b61475d60208301866142da565b818103604083015261476f8185613df8565b905061477e60608301846142da565b95945050505050565b600060208201905061479c60008301846142e9565b92915050565b60006147ac6147bd565b90506147b88282614a4a565b919050565b6000604051905090565b600067ffffffffffffffff8211156147e2576147e1614b22565b5b6147eb82614b51565b9050602081019050919050565b600067ffffffffffffffff82111561481357614812614b22565b5b61481c82614b51565b9050602081019050919050565b6000819050602082019050919050565b60008190508160005260206000209050919050565b600081519050919050565b600081519050919050565b600081519050919050565b6000602082019050919050565b600082825260208201905092915050565b600082825260208201905092915050565b600082825260208201905092915050565b600082825260208201905092915050565b600081905092915050565b60006148d6826149bf565b91506148e1836149bf565b9250827fffffffffffffffffffffffffffffffffffffffffffffffffffffffffffffffff0382111561491657614915614ac4565b5b828201905092915050565b600061492c826149bf565b9150614937836149bf565b92508282101561494a57614949614ac4565b5b828203905092915050565b60006149608261499f565b9050919050565b60008115159050919050565b60007fffffffff0000000000000000000000000000000000000000000000000000000082169050919050565b600073ffffffffffffffffffffffffffffffffffffffff82169050919050565b6000819050919050565b600060ff82169050919050565b82818337600083830152505050565b60005b83811015614a035780820151818401526020810190506149e8565b83811115614a12576000848401525b50505050565b60006002820490506001821680614a3057607f821691505b60208210811415614a4457614a43614af3565b5b50919050565b614a5382614b51565b810181811067ffffffffffffffff82111715614a7257614a71614b22565b5b80604052505050565b6000614a86826149bf565b91507fffffffffffffffffffffffffffffffffffffffffffffffffffffffffffffffff821415614ab957614ab8614ac4565b5b600182019050919050565b7f4e487b7100000000000000000000000000000000000000000000000000000000600052601160045260246000fd5b7f4e487b7100000000000000000000000000000000000000000000000000000000600052602260045260246000fd5b7f4e487b7100000000000000000000000000000000000000000000000000000000600052604160045260246000fd5b6000601f19601f8301169050919050565b7f4552433732313a2063616c6c6572206973206e6f7420746f6b656e206f776e6560008201527f72206f7220617070726f76656400000000000000000000000000000000000000602082015250565b7f455243373231456e756d657261626c653a206f776e657220696e646578206f7560008201527f74206f6620626f756e6473000000000000000000000000000000000000000000602082015250565b7f4552433732313a207472616e7366657220746f206e6f6e20455243373231526560008201527f63656976657220696d706c656d656e7465720000000000000000000000000000602082015250565b7f4f776e61626c653a206e6577206f776e657220697320746865207a65726f206160008201527f6464726573730000000000000000000000000000000000000000000000000000602082015250565b7f4552433732313a207472616e736665722066726f6d20696e636f72726563742060008201527f6f776e6572000000000000000000000000000000000000000000000000000000602082015250565b7f4552433732313a20746f6b656e20616c7265616479206d696e74656400000000600082015250565b7f4552433732313a207472616e7366657220746f20746865207a65726f2061646460008201527f7265737300000000000000000000000000000000000000000000000000000000602082015250565b7f4552433732313a20617070726f766520746f2063616c6c657200000000000000600082015250565b7f4552433732313a2061646472657373207a65726f206973206e6f74206120766160008201527f6c6964206f776e65720000000000000000000000000000000000000000000000602082015250565b7f54686973206973206e6f74207065726d69747465642100000000000000000000600082015250565b7f4552433732313a206d696e7420746f20746865207a65726f2061646472657373600082015250565b7f4f776e61626c653a2063616c6c6572206973206e6f7420746865206f776e6572600082015250565b7f4552433732313a20696e76616c696420746f6b656e2049440000000000000000600082015250565b7f4552433732313a20617070726f76616c20746f2063757272656e74206f776e6560008201527f7200000000000000000000000000000000000000000000000000000000000000602082015250565b50565b7f4552433732313a20617070726f76652063616c6c6572206973206e6f7420746f60008201527f6b656e206f776e6572206f7220617070726f76656420666f7220616c6c000000602082015250565b7f455243373231456e756d657261626c653a20676c6f62616c20696e646578206f60008201527f7574206f6620626f756e64730000000000000000000000000000000000000000602082015250565b7f457468657220746f6f206c6f7720666f72206d696e74696e6721000000000000600082015250565b7f455243373231456e756d657261626c653a20636f6e736563757469766520747260008201527f616e7366657273206e6f7420737570706f727465640000000000000000000000602082015250565b7f536f7272792c20616c6c204e4654732068617665206265656e206d696e74656460008201527f2100000000000000000000000000000000000000000000000000000000000000602082015250565b61504181614955565b811461504c57600080fd5b50565b61505881614967565b811461506357600080fd5b50565b61506f81614973565b811461507a57600080fd5b50565b615086816149bf565b811461509157600080fd5b5056fea2646970667358221220f60bc950cc8325fd8b16ecc8eb4b0e54e68fd8abedae78662a1c53d70628761664736f6c63430008010033",
  "immutableReferences": {},
  "source": "// SPDX-License-Identifier: GPL-3.0\n\npragma solidity >=0.7.0 <0.9.0;\npragma experimental ABIEncoderV2;\nimport \"@openzeppelin/contracts/token/ERC721/ERC721.sol\";\nimport \"@openzeppelin/contracts/token/ERC721/extensions/ERC721Enumerable.sol\";\nimport \"@openzeppelin/contracts/access/Ownable.sol\";\n\ncontract Prize is ERC721Enumerable, Ownable{\n    using Strings for uint256;\n    \n    struct Prize {\n        string name;\n        string description;\n        uint date;\n        address from;\n        address to;\n        string localurl;\n    }\n\n    mapping(string => uint8) public existingURIs;\n    Prize[] public allPrizes;\n    uint256 public cost = 0.00001 ether;\n    uint256 public maxSupply = 10000;\n    uint256 public supply;\n    string public baseURI;\n\n    event givePrize(\n        uint256 id,\n        address indexed from,\n        address indexed to,\n        uint256 cost,\n        string metadataURI,\n        uint256 timestamp\n    );\n\n    constructor(\n        string memory _name,\n        string memory _symbol,\n        string memory _baseURI\n    ) ERC721(_name, _symbol) {\n        supply = 0;\n        baseURI = _baseURI;\n    }\n\n    function createPrize(string memory _name, string memory _description, uint _date, address _add, string memory _url) payable public {\n        require(supply <= maxSupply, \"Sorry, all NFTs have been minted!\");\n        require(msg.value > 0 ether, \"Ether too low for minting!\");\n        require(msg.sender != owner(), \"This is not permitted!\");\n\n        supply += 1;\n        string memory URI = concat(Strings.toString(supply + 1));\n        existingURIs[URI] = 1;\n\n        \n        Prize memory prize = Prize({\n            name: _name,\n            localurl:_url,\n            description: _description,\n            date: _date,\n            from: msg.sender,\n            to:_add\n        });\n        allPrizes.push(prize);\n\n        emit givePrize(supply, _add, owner(), msg.value, URI, block.timestamp);\n        _safeMint(msg.sender, supply);\n    }\n\n    function getAllNFTs() public view returns (Prize[] memory) {\n        return allPrizes;\n    }\n    \n    function getAnNFTs(uint256 tokenId) public view returns (Prize memory) {\n        return allPrizes[tokenId - 1];\n    }\n\n    function concat(string memory str) internal view returns (string memory) {\n        return string(abi.encodePacked(baseURI, \"\", str));\n    }\n\n    function getUserNFTS(address _add) public view returns(Prize[] memory){\n        Prize[] memory prizes = new Prize[](allPrizes.length);\n        uint total = 0;\n        for (uint i = 0; i < allPrizes.length; i++) {\n            if(allPrizes[i].to == _add) {\n                prizes[total] = allPrizes[i];\n                total = total + 1;           \n            }\n        }\n        return prizes;\n    }\n\n\n\n\n\n\n}",
  "sourcePath": "/home/larissagr/Documentos/UFSC2022/PriceTrace/truffle/contracts/Prize.sol",
  "compiler": {
    "name": "solc",
    "version": "0.8.1+commit.df193b15.Emscripten.clang"
  },
  "schemaVersion": "3.4.11",
  "updatedAt": "2022-12-14T10:26:40.939Z",
  "networkType": "ethereum",
  "devdoc": {
    "kind": "dev",
    "methods": {
      "approve(address,uint256)": {
        "details": "See {IERC721-approve}."
      },
      "balanceOf(address)": {
        "details": "See {IERC721-balanceOf}."
      },
      "getApproved(uint256)": {
        "details": "See {IERC721-getApproved}."
      },
      "isApprovedForAll(address,address)": {
        "details": "See {IERC721-isApprovedForAll}."
      },
      "name()": {
        "details": "See {IERC721Metadata-name}."
      },
      "owner()": {
        "details": "Returns the address of the current owner."
      },
      "ownerOf(uint256)": {
        "details": "See {IERC721-ownerOf}."
      },
      "renounceOwnership()": {
        "details": "Leaves the contract without owner. It will not be possible to call `onlyOwner` functions anymore. Can only be called by the current owner. NOTE: Renouncing ownership will leave the contract without an owner, thereby removing any functionality that is only available to the owner."
      },
      "safeTransferFrom(address,address,uint256)": {
        "details": "See {IERC721-safeTransferFrom}."
      },
      "safeTransferFrom(address,address,uint256,bytes)": {
        "details": "See {IERC721-safeTransferFrom}."
      },
      "setApprovalForAll(address,bool)": {
        "details": "See {IERC721-setApprovalForAll}."
      },
      "supportsInterface(bytes4)": {
        "details": "See {IERC165-supportsInterface}."
      },
      "symbol()": {
        "details": "See {IERC721Metadata-symbol}."
      },
      "tokenByIndex(uint256)": {
        "details": "See {IERC721Enumerable-tokenByIndex}."
      },
      "tokenOfOwnerByIndex(address,uint256)": {
        "details": "See {IERC721Enumerable-tokenOfOwnerByIndex}."
      },
      "tokenURI(uint256)": {
        "details": "See {IERC721Metadata-tokenURI}."
      },
      "totalSupply()": {
        "details": "See {IERC721Enumerable-totalSupply}."
      },
      "transferFrom(address,address,uint256)": {
        "details": "See {IERC721-transferFrom}."
      },
      "transferOwnership(address)": {
        "details": "Transfers ownership of the contract to a new account (`newOwner`). Can only be called by the current owner."
      }
    },
    "version": 1
  },
  "userdoc": {
    "kind": "user",
    "methods": {},
    "version": 1
  }
}