{
  "contractName": "StoreHistory",
  "abi": [
    {
      "inputs": [
        {
          "internalType": "uint256",
          "name": "",
          "type": "uint256"
        }
      ],
      "name": "allCategories",
      "outputs": [
        {
          "internalType": "uint256",
          "name": "category_id",
          "type": "uint256"
        },
        {
          "internalType": "string",
          "name": "name",
          "type": "string"
        },
        {
          "internalType": "string",
          "name": "description",
          "type": "string"
        }
      ],
      "stateMutability": "view",
      "type": "function"
    },
    {
      "inputs": [
        {
          "internalType": "uint256",
          "name": "",
          "type": "uint256"
        }
      ],
      "name": "allPriceStatus",
      "outputs": [
        {
          "internalType": "uint256",
          "name": "status_id",
          "type": "uint256"
        },
        {
          "internalType": "string",
          "name": "name",
          "type": "string"
        },
        {
          "internalType": "uint256",
          "name": "date",
          "type": "uint256"
        },
        {
          "internalType": "uint256",
          "name": "avg_price",
          "type": "uint256"
        },
        {
          "internalType": "uint256",
          "name": "category_id",
          "type": "uint256"
        },
        {
          "internalType": "uint256",
          "name": "store_id",
          "type": "uint256"
        }
      ],
      "stateMutability": "view",
      "type": "function"
    },
    {
      "inputs": [
        {
          "internalType": "uint256",
          "name": "",
          "type": "uint256"
        }
      ],
      "name": "allPrizeUsers",
      "outputs": [
        {
          "internalType": "uint256",
          "name": "prize_id",
          "type": "uint256"
        },
        {
          "internalType": "uint256",
          "name": "user_id",
          "type": "uint256"
        },
        {
          "internalType": "uint256",
          "name": "date",
          "type": "uint256"
        }
      ],
      "stateMutability": "view",
      "type": "function"
    },
    {
      "inputs": [
        {
          "internalType": "uint256",
          "name": "",
          "type": "uint256"
        }
      ],
      "name": "allPrizes",
      "outputs": [
        {
          "internalType": "uint256",
          "name": "prize_id",
          "type": "uint256"
        },
        {
          "internalType": "string",
          "name": "name",
          "type": "string"
        },
        {
          "internalType": "string",
          "name": "description",
          "type": "string"
        },
        {
          "internalType": "uint256",
          "name": "date",
          "type": "uint256"
        }
      ],
      "stateMutability": "view",
      "type": "function"
    },
    {
      "inputs": [
        {
          "internalType": "uint256",
          "name": "",
          "type": "uint256"
        }
      ],
      "name": "allProducts",
      "outputs": [
        {
          "internalType": "uint256",
          "name": "product_id",
          "type": "uint256"
        },
        {
          "internalType": "string",
          "name": "name",
          "type": "string"
        },
        {
          "internalType": "uint256",
          "name": "price",
          "type": "uint256"
        },
        {
          "internalType": "uint256",
          "name": "store_id",
          "type": "uint256"
        },
        {
          "internalType": "uint256",
          "name": "price_date",
          "type": "uint256"
        },
        {
          "internalType": "string",
          "name": "description",
          "type": "string"
        },
        {
          "internalType": "string",
          "name": "url",
          "type": "string"
        }
      ],
      "stateMutability": "view",
      "type": "function"
    },
    {
      "inputs": [
        {
          "internalType": "uint256",
          "name": "",
          "type": "uint256"
        }
      ],
      "name": "allStores",
      "outputs": [
        {
          "internalType": "string",
          "name": "name",
          "type": "string"
        },
        {
          "internalType": "uint256",
          "name": "store_id",
          "type": "uint256"
        },
        {
          "internalType": "string",
          "name": "url",
          "type": "string"
        }
      ],
      "stateMutability": "view",
      "type": "function"
    },
    {
      "inputs": [],
      "name": "lastCategoryId",
      "outputs": [
        {
          "internalType": "uint256",
          "name": "",
          "type": "uint256"
        }
      ],
      "stateMutability": "view",
      "type": "function"
    },
    {
      "inputs": [],
      "name": "lastPriceStatusId",
      "outputs": [
        {
          "internalType": "uint256",
          "name": "",
          "type": "uint256"
        }
      ],
      "stateMutability": "view",
      "type": "function"
    },
    {
      "inputs": [],
      "name": "lastPrizeId",
      "outputs": [
        {
          "internalType": "uint256",
          "name": "",
          "type": "uint256"
        }
      ],
      "stateMutability": "view",
      "type": "function"
    },
    {
      "inputs": [],
      "name": "lastProductId",
      "outputs": [
        {
          "internalType": "uint256",
          "name": "",
          "type": "uint256"
        }
      ],
      "stateMutability": "view",
      "type": "function"
    },
    {
      "inputs": [],
      "name": "lastStoreId",
      "outputs": [
        {
          "internalType": "uint256",
          "name": "",
          "type": "uint256"
        }
      ],
      "stateMutability": "view",
      "type": "function"
    },
    {
      "inputs": [],
      "name": "lastUserId",
      "outputs": [
        {
          "internalType": "uint256",
          "name": "",
          "type": "uint256"
        }
      ],
      "stateMutability": "view",
      "type": "function"
    },
    {
      "inputs": [],
      "name": "getNewUserId",
      "outputs": [
        {
          "internalType": "uint256",
          "name": "",
          "type": "uint256"
        }
      ],
      "stateMutability": "nonpayable",
      "type": "function"
    },
    {
      "inputs": [],
      "name": "getNewPriceStatusId",
      "outputs": [
        {
          "internalType": "uint256",
          "name": "",
          "type": "uint256"
        }
      ],
      "stateMutability": "nonpayable",
      "type": "function"
    },
    {
      "inputs": [],
      "name": "getNewStoreId",
      "outputs": [
        {
          "internalType": "uint256",
          "name": "",
          "type": "uint256"
        }
      ],
      "stateMutability": "nonpayable",
      "type": "function"
    },
    {
      "inputs": [],
      "name": "getNewPrizeId",
      "outputs": [
        {
          "internalType": "uint256",
          "name": "",
          "type": "uint256"
        }
      ],
      "stateMutability": "nonpayable",
      "type": "function"
    },
    {
      "inputs": [],
      "name": "getNewCategoryId",
      "outputs": [
        {
          "internalType": "uint256",
          "name": "",
          "type": "uint256"
        }
      ],
      "stateMutability": "nonpayable",
      "type": "function"
    },
    {
      "inputs": [],
      "name": "getNewProductId",
      "outputs": [
        {
          "internalType": "uint256",
          "name": "",
          "type": "uint256"
        }
      ],
      "stateMutability": "nonpayable",
      "type": "function"
    },
    {
      "inputs": [
        {
          "internalType": "string",
          "name": "_email",
          "type": "string"
        },
        {
          "internalType": "string",
          "name": "_name",
          "type": "string"
        },
        {
          "internalType": "string",
          "name": "_username",
          "type": "string"
        },
        {
          "internalType": "string",
          "name": "_password",
          "type": "string"
        }
      ],
      "name": "createUser",
      "outputs": [],
      "stateMutability": "nonpayable",
      "type": "function"
    },
    {
      "inputs": [
        {
          "internalType": "string",
          "name": "_name",
          "type": "string"
        },
        {
          "internalType": "uint256",
          "name": "_date",
          "type": "uint256"
        },
        {
          "internalType": "uint256",
          "name": "_avg_price",
          "type": "uint256"
        },
        {
          "internalType": "uint256",
          "name": "_categoty",
          "type": "uint256"
        },
        {
          "internalType": "uint256",
          "name": "_store",
          "type": "uint256"
        }
      ],
      "name": "createPriceStatus",
      "outputs": [],
      "stateMutability": "nonpayable",
      "type": "function"
    },
    {
      "inputs": [
        {
          "internalType": "string",
          "name": "_name",
          "type": "string"
        },
        {
          "internalType": "string",
          "name": "_url",
          "type": "string"
        }
      ],
      "name": "createStore",
      "outputs": [],
      "stateMutability": "nonpayable",
      "type": "function"
    },
    {
      "inputs": [
        {
          "internalType": "string",
          "name": "_name",
          "type": "string"
        },
        {
          "internalType": "string",
          "name": "_description",
          "type": "string"
        },
        {
          "internalType": "uint256",
          "name": "_date",
          "type": "uint256"
        }
      ],
      "name": "createPrize",
      "outputs": [],
      "stateMutability": "nonpayable",
      "type": "function"
    },
    {
      "inputs": [
        {
          "internalType": "uint256",
          "name": "_prize_id",
          "type": "uint256"
        },
        {
          "internalType": "uint256",
          "name": "_user_id",
          "type": "uint256"
        },
        {
          "internalType": "uint256",
          "name": "_date",
          "type": "uint256"
        }
      ],
      "name": "createPrizeUser",
      "outputs": [],
      "stateMutability": "nonpayable",
      "type": "function"
    },
    {
      "inputs": [
        {
          "internalType": "string",
          "name": "_name",
          "type": "string"
        },
        {
          "internalType": "string",
          "name": "_description",
          "type": "string"
        }
      ],
      "name": "createCategory",
      "outputs": [],
      "stateMutability": "nonpayable",
      "type": "function"
    },
    {
      "inputs": [
        {
          "internalType": "uint256",
          "name": "_category",
          "type": "uint256"
        },
        {
          "internalType": "uint256",
          "name": "_start_date",
          "type": "uint256"
        }
      ],
      "name": "getAveragePriceByCategory",
      "outputs": [
        {
          "internalType": "uint256",
          "name": "",
          "type": "uint256"
        }
      ],
      "stateMutability": "view",
      "type": "function"
    },
    {
      "inputs": [
        {
          "internalType": "uint256",
          "name": "_store",
          "type": "uint256"
        },
        {
          "internalType": "uint256",
          "name": "_start_date",
          "type": "uint256"
        }
      ],
      "name": "getAveragePriceByStore",
      "outputs": [
        {
          "internalType": "uint256",
          "name": "",
          "type": "uint256"
        },
        {
          "internalType": "uint256[]",
          "name": "",
          "type": "uint256[]"
        },
        {
          "internalType": "string[]",
          "name": "",
          "type": "string[]"
        },
        {
          "internalType": "uint256[]",
          "name": "",
          "type": "uint256[]"
        },
        {
          "internalType": "uint256[]",
          "name": "",
          "type": "uint256[]"
        },
        {
          "internalType": "uint256[]",
          "name": "",
          "type": "uint256[]"
        }
      ],
      "stateMutability": "view",
      "type": "function"
    }
  ],
  "bytecode": "0x608060405234801561001057600080fd5b50612196806100206000396000f3fe608060405234801561001057600080fd5b506004361061018e5760003560e01c8063911a3e32116100de578063b224b4e911610097578063cb62137311610071578063cb6213731461049c578063cfaaef56146104b8578063db6f1b8d146104ee578063ef21b12b1461050c5761018e565b8063b224b4e91461042f578063b3af979b1461044b578063c36d35af146104695761018e565b8063911a3e32146103665780639b8529ee146103845780639d2fc5f0146103a2578063a0c684f3146103c0578063b000378e146103de578063b0e92ddc146103fa5761018e565b8063348d44871161014b57806368aa8dca1161012557806368aa8dca146102f25780636f7fcddb146103105780638cabb5291461032c5780638dff9f92146103485761018e565b8063348d448714610270578063535095401461028e578063685496f0146102c05761018e565b80630c559cb3146101935780631abe6962146101b15780631b20335d146101cf57806323ca679d146101eb578063298e113e1461022057806332cfc4841461023e575b600080fd5b61019b61053c565b6040516101a89190611d9a565b60405180910390f35b6101b9610542565b6040516101c69190611d9a565b60405180910390f35b6101e960048036038101906101e491906118d5565b61055a565b005b61020560048036038101906102009190611b3b565b6105fd565b60405161021796959493929190611db5565b60405180910390f35b610228610a14565b6040516102359190611d9a565b60405180910390f35b61025860048036038101906102539190611b12565b610a2c565b60405161026793929190611d55565b60405180910390f35b610278610b93565b6040516102859190611d9a565b60405180910390f35b6102a860048036038101906102a39190611b12565b610b99565b6040516102b793929190611fbd565b60405180910390f35b6102da60048036038101906102d59190611b12565b610bd0565b6040516102e993929190611e39565b60405180910390f35b6102fa610d37565b6040516103079190611d9a565b60405180910390f35b61032a60048036038101906103259190611941565b610d4f565b005b61034660048036038101906103419190611a04565b610eae565b005b610350610f62565b60405161035d9190611d9a565b60405180910390f35b61036e610f68565b60405161037b9190611d9a565b60405180910390f35b61038c610f80565b6040516103999190611d9a565b60405180910390f35b6103aa610f86565b6040516103b79190611d9a565b60405180910390f35b6103c8610f8c565b6040516103d59190611d9a565b60405180910390f35b6103f860048036038101906103f39190611b77565b610fa4565b005b610414600480360381019061040f9190611b12565b61101b565b60405161042696959493929190611f55565b60405180910390f35b610449600480360381019061044491906118d5565b6110fc565b005b61045361119f565b6040516104609190611d9a565b60405180910390f35b610483600480360381019061047e9190611b12565b6111a5565b6040516104939493929190611e7e565b60405180910390f35b6104b660048036038101906104b19190611a83565b611312565b005b6104d260048036038101906104cd9190611b12565b6113d5565b6040516104e59796959493929190611ed1565b60405180910390f35b6104f66115ec565b6040516105039190611d9a565b60405180910390f35b61052660048036038101906105219190611b3b565b611604565b6040516105339190611d9a565b60405180910390f35b60095481565b6000600c600081548092919060010191905055905090565b6105626116bb565b604051806060016040528084815260200161057b610f68565b8152602001838152509050600281908060018154018082558091505060019003906000526020600020906003020160009091909190915060008201518160000190805190602001906105ce9291906116dc565b506020820151816001015560408201518160020190805190602001906105f59291906116dc565b505050505050565b600060608060608060606000606060008054905067ffffffffffffffff8111801561062757600080fd5b506040519080825280602002602001820160405280156106565781602001602082028036833780820191505090505b509050606060008054905067ffffffffffffffff8111801561067757600080fd5b506040519080825280602002602001820160405280156106ab57816020015b60608152602001906001900390816106965790505b509050606060008054905067ffffffffffffffff811180156106cc57600080fd5b506040519080825280602002602001820160405280156106fb5781602001602082028036833780820191505090505b509050606060008054905067ffffffffffffffff8111801561071c57600080fd5b5060405190808252806020026020018201604052801561074b5781602001602082028036833780820191505090505b509050606060008054905067ffffffffffffffff8111801561076c57600080fd5b5060405190808252806020026020018201604052801561079b5781602001602082028036833780820191505090505b509050600080600090505b6000805490508110156109e4578f600082815481106107c157fe5b9060005260206000209060060201600501541480156107fe57508e600082815481106107e957fe5b90600052602060002090600602016002015410155b156109d7576000818154811061081057fe5b90600052602060002090600602016000015487838151811061082e57fe5b6020026020010181815250506000818154811061084757fe5b90600052602060002090600602016001018054600181600116156101000203166002900480601f0160208091040260200160405190810160405280929190818152602001828054600181600116156101000203166002900480156108ec5780601f106108c1576101008083540402835291602001916108ec565b820191906000526020600020905b8154815290600101906020018083116108cf57829003601f168201915b50505050508683815181106108fd57fe5b60200260200101819052506000818154811061091557fe5b90600052602060002090600602016002015485838151811061093357fe5b6020026020010181815250506000818154811061094c57fe5b90600052602060002090600602016003015484838151811061096a57fe5b6020026020010181815250506000818154811061098357fe5b9060005260206000209060060201600401548383815181106109a157fe5b602002602001018181525050600081815481106109ba57fe5b906000526020600020906006020160030154880197506001820191505b80806001019150506107a6565b508087816109ee57fe5b0496508686868686869c509c509c509c509c509c50505050505050509295509295509295565b6000600a600081548092919060010191905055905090565b60028181548110610a3957fe5b9060005260206000209060030201600091509050806000018054600181600116156101000203166002900480601f016020809104026020016040519081016040528092919081815260200182805460018160011615610100020316600290048015610ae55780601f10610aba57610100808354040283529160200191610ae5565b820191906000526020600020905b815481529060010190602001808311610ac857829003601f168201915b505050505090806001015490806002018054600181600116156101000203166002900480601f016020809104026020016040519081016040528092919081815260200182805460018160011615610100020316600290048015610b895780601f10610b5e57610100808354040283529160200191610b89565b820191906000526020600020905b815481529060010190602001808311610b6c57829003601f168201915b5050505050905083565b60075481565b60048181548110610ba657fe5b90600052602060002090600302016000915090508060000154908060010154908060020154905083565b60058181548110610bdd57fe5b9060005260206000209060030201600091509050806000015490806001018054600181600116156101000203166002900480601f016020809104026020016040519081016040528092919081815260200182805460018160011615610100020316600290048015610c8f5780601f10610c6457610100808354040283529160200191610c8f565b820191906000526020600020905b815481529060010190602001808311610c7257829003601f168201915b505050505090806002018054600181600116156101000203166002900480601f016020809104026020016040519081016040528092919081815260200182805460018160011615610100020316600290048015610d2d5780601f10610d0257610100808354040283529160200191610d2d565b820191906000526020600020905b815481529060010190602001808311610d1057829003601f168201915b5050505050905083565b6000600b600081548092919060010191905055905090565b610d5761175c565b6040518060e00160405280868152602001858152602001848152602001838152602001600081526020013373ffffffffffffffffffffffffffffffffffffffff168152602001610da5610f8c565b815250905060018190806001815401808255809150506001900390600052602060002090600702016000909190919091506000820151816000019080519060200190610df29291906116dc565b506020820151816001019080519060200190610e0f9291906116dc565b506040820151816002019080519060200190610e2c9291906116dc565b506060820151816003019080519060200190610e499291906116dc565b506080820151816004015560a08201518160050160006101000a81548173ffffffffffffffffffffffffffffffffffffffff021916908373ffffffffffffffffffffffffffffffffffffffff16021790555060c0820151816006015550505050505050565b610eb66117af565b6040518060800160405280610ec9610a14565b81526020018581526020018481526020018381525090506003819080600181540180825580915050600190039060005260206000209060040201600090919091909150600082015181600001556020820151816001019080519060200190610f329291906116dc565b506040820151816002019080519060200190610f4f9291906116dc565b5060608201518160030155505050505050565b600c5481565b60006009600081548092919060010191905055905090565b600b5481565b600a5481565b60006007600081548092919060010191905055905090565b610fac6117d7565b60405180606001604052808581526020018481526020018381525090506004819080600181540180825580915050600190039060005260206000209060030201600090919091909150600082015181600001556020820151816001015560408201518160020155505050505050565b6000818154811061102857fe5b9060005260206000209060060201600091509050806000015490806001018054600181600116156101000203166002900480601f0160208091040260200160405190810160405280929190818152602001828054600181600116156101000203166002900480156110da5780601f106110af576101008083540402835291602001916110da565b820191906000526020600020905b8154815290600101906020018083116110bd57829003601f168201915b5050505050908060020154908060030154908060040154908060050154905086565b6111046117f8565b6040518060600160405280611117610d37565b8152602001848152602001838152509050600581908060018154018082558091505060019003906000526020600020906003020160009091909190915060008201518160000155602082015181600101908051906020019061117a9291906116dc565b5060408201518160020190805190602001906111979291906116dc565b505050505050565b60085481565b600381815481106111b257fe5b9060005260206000209060040201600091509050806000015490806001018054600181600116156101000203166002900480601f0160208091040260200160405190810160405280929190818152602001828054600181600116156101000203166002900480156112645780601f1061123957610100808354040283529160200191611264565b820191906000526020600020905b81548152906001019060200180831161124757829003601f168201915b505050505090806002018054600181600116156101000203166002900480601f0160208091040260200160405190810160405280929190818152602001828054600181600116156101000203166002900480156113025780601f106112d757610100808354040283529160200191611302565b820191906000526020600020905b8154815290600101906020018083116112e557829003601f168201915b5050505050908060030154905084565b61131a611819565b6040518060c0016040528061132d6115ec565b815260200187815260200186815260200185815260200184815260200183815250905060008190806001815401808255809150506001900390600052602060002090600602016000909190919091506000820151816000015560208201518160010190805190602001906113a29291906116dc565b5060408201518160020155606082015181600301556080820151816004015560a082015181600501555050505050505050565b600681815481106113e257fe5b9060005260206000209060070201600091509050806000015490806001018054600181600116156101000203166002900480601f0160208091040260200160405190810160405280929190818152602001828054600181600116156101000203166002900480156114945780601f1061146957610100808354040283529160200191611494565b820191906000526020600020905b81548152906001019060200180831161147757829003601f168201915b505050505090806002015490806003015490806004015490806005018054600181600116156101000203166002900480601f0160208091040260200160405190810160405280929190818152602001828054600181600116156101000203166002900480156115445780601f1061151957610100808354040283529160200191611544565b820191906000526020600020905b81548152906001019060200180831161152757829003601f168201915b505050505090806006018054600181600116156101000203166002900480601f0160208091040260200160405190810160405280929190818152602001828054600181600116156101000203166002900480156115e25780601f106115b7576101008083540402835291602001916115e2565b820191906000526020600020905b8154815290600101906020018083116115c557829003601f168201915b5050505050905087565b60006008600081548092919060010191905055905090565b600080600080600090505b6000805490508110156116a357856000828154811061162a57fe5b9060005260206000209060060201600401541480156116675750846000828154811061165257fe5b90600052602060002090600602016002015410155b15611696576000818154811061167957fe5b906000526020600020906006020160030154830192506001820191505b808060010191505061160f565b508082816116ad57fe5b049150819250505092915050565b60405180606001604052806060815260200160008152602001606081525090565b828054600181600116156101000203166002900490600052602060002090601f016020900481019282601f1061171d57805160ff191683800117855561174b565b8280016001018555821561174b579182015b8281111561174a57825182559160200191906001019061172f565b5b509050611758919061184f565b5090565b6040518060e001604052806060815260200160608152602001606081526020016060815260200160008152602001600073ffffffffffffffffffffffffffffffffffffffff168152602001600081525090565b6040518060800160405280600081526020016060815260200160608152602001600081525090565b60405180606001604052806000815260200160008152602001600081525090565b60405180606001604052806000815260200160608152602001606081525090565b6040518060c001604052806000815260200160608152602001600081526020016000815260200160008152602001600081525090565b5b80821115611868576000816000905550600101611850565b5090565b600082601f83011261187d57600080fd5b813561189061188b82612021565b611ff4565b915080825260208301602083018583830111156118ac57600080fd5b6118b78382846120f6565b50505092915050565b6000813590506118cf81612149565b92915050565b600080604083850312156118e857600080fd5b600083013567ffffffffffffffff81111561190257600080fd5b61190e8582860161186c565b925050602083013567ffffffffffffffff81111561192b57600080fd5b6119378582860161186c565b9150509250929050565b6000806000806080858703121561195757600080fd5b600085013567ffffffffffffffff81111561197157600080fd5b61197d8782880161186c565b945050602085013567ffffffffffffffff81111561199a57600080fd5b6119a68782880161186c565b935050604085013567ffffffffffffffff8111156119c357600080fd5b6119cf8782880161186c565b925050606085013567ffffffffffffffff8111156119ec57600080fd5b6119f88782880161186c565b91505092959194509250565b600080600060608486031215611a1957600080fd5b600084013567ffffffffffffffff811115611a3357600080fd5b611a3f8682870161186c565b935050602084013567ffffffffffffffff811115611a5c57600080fd5b611a688682870161186c565b9250506040611a79868287016118c0565b9150509250925092565b600080600080600060a08688031215611a9b57600080fd5b600086013567ffffffffffffffff811115611ab557600080fd5b611ac18882890161186c565b9550506020611ad2888289016118c0565b9450506040611ae3888289016118c0565b9350506060611af4888289016118c0565b9250506080611b05888289016118c0565b9150509295509295909350565b600060208284031215611b2457600080fd5b6000611b32848285016118c0565b91505092915050565b60008060408385031215611b4e57600080fd5b6000611b5c858286016118c0565b9250506020611b6d858286016118c0565b9150509250929050565b600080600060608486031215611b8c57600080fd5b6000611b9a868287016118c0565b9350506020611bab868287016118c0565b9250506040611bbc868287016118c0565b9150509250925092565b6000611bd28383611cc5565b905092915050565b6000611be68383611d37565b60208301905092915050565b6000611bfd8261206d565b611c0781856120a8565b935083602082028501611c198561204d565b8060005b85811015611c555784840389528151611c368582611bc6565b9450611c418361208e565b925060208a01995050600181019050611c1d565b50829750879550505050505092915050565b6000611c7282612078565b611c7c81856120b9565b9350611c878361205d565b8060005b83811015611cb8578151611c9f8882611bda565b9750611caa8361209b565b925050600181019050611c8b565b5085935050505092915050565b6000611cd082612083565b611cda81856120ca565b9350611cea818560208601612105565b611cf381612138565b840191505092915050565b6000611d0982612083565b611d1381856120db565b9350611d23818560208601612105565b611d2c81612138565b840191505092915050565b611d40816120ec565b82525050565b611d4f816120ec565b82525050565b60006060820190508181036000830152611d6f8186611cfe565b9050611d7e6020830185611d46565b8181036040830152611d908184611cfe565b9050949350505050565b6000602082019050611daf6000830184611d46565b92915050565b600060c082019050611dca6000830189611d46565b8181036020830152611ddc8188611c67565b90508181036040830152611df08187611bf2565b90508181036060830152611e048186611c67565b90508181036080830152611e188185611c67565b905081810360a0830152611e2c8184611c67565b9050979650505050505050565b6000606082019050611e4e6000830186611d46565b8181036020830152611e608185611cfe565b90508181036040830152611e748184611cfe565b9050949350505050565b6000608082019050611e936000830187611d46565b8181036020830152611ea58186611cfe565b90508181036040830152611eb98185611cfe565b9050611ec86060830184611d46565b95945050505050565b600060e082019050611ee6600083018a611d46565b8181036020830152611ef88189611cfe565b9050611f076040830188611d46565b611f146060830187611d46565b611f216080830186611d46565b81810360a0830152611f338185611cfe565b905081810360c0830152611f478184611cfe565b905098975050505050505050565b600060c082019050611f6a6000830189611d46565b8181036020830152611f7c8188611cfe565b9050611f8b6040830187611d46565b611f986060830186611d46565b611fa56080830185611d46565b611fb260a0830184611d46565b979650505050505050565b6000606082019050611fd26000830186611d46565b611fdf6020830185611d46565b611fec6040830184611d46565b949350505050565b6000604051905081810181811067ffffffffffffffff8211171561201757600080fd5b8060405250919050565b600067ffffffffffffffff82111561203857600080fd5b601f19601f8301169050602081019050919050565b6000819050602082019050919050565b6000819050602082019050919050565b600081519050919050565b600081519050919050565b600081519050919050565b6000602082019050919050565b6000602082019050919050565b600082825260208201905092915050565b600082825260208201905092915050565b600082825260208201905092915050565b600082825260208201905092915050565b6000819050919050565b82818337600083830152505050565b60005b83811015612123578082015181840152602081019050612108565b83811115612132576000848401525b50505050565b6000601f19601f8301169050919050565b612152816120ec565b811461215d57600080fd5b5056fea26469706673582212200e8b7e64a733e29d795f0382a50b46e089dde4d666679ef136b89485bca9d67964736f6c63430007000033",
  "immutableReferences": {},
  "source": "// SPDX-License-Identifier: GPL-3.0\r\n\r\npragma solidity >=0.7.0 <0.9.0;\r\npragma experimental ABIEncoderV2;\r\n\r\ncontract StoreHistory {\r\n\r\n    struct PriceStatus{\r\n        uint status_id;\r\n        string name;\r\n        uint date;\r\n        uint avg_price;\r\n        uint category_id;\r\n        uint store_id;\r\n    }\r\n\r\n    struct Store {\r\n        string name;\r\n        uint store_id;\r\n        string url;\r\n    }\r\n\r\n    struct User {\r\n        string email;\r\n        string name;\r\n        string username;\r\n        string password;\r\n        uint level;\r\n        address user_address;\r\n        uint id_user;\r\n    }\r\n\r\n\r\n    struct Prize {\r\n        uint prize_id;\r\n        string name;\r\n        string description;\r\n        uint date;\r\n    }\r\n\r\n    struct PrizeUser{\r\n        uint prize_id;\r\n        uint user_id;\r\n        uint date;\r\n    }\r\n\r\n    struct Category {\r\n        uint category_id;\r\n        string name;\r\n        string description;\r\n    }\r\n\r\n    struct Product {\r\n        uint product_id;\r\n        string name;\r\n        uint price;\r\n        uint store_id;\r\n        uint price_date;\r\n        string description;\r\n        string url;\r\n    }\r\n\r\n    PriceStatus[] public allPriceStatus;\r\n    User[] allUsers;\r\n    Store[] public allStores;\r\n    Prize[] public allPrizes;\r\n    PrizeUser[] public allPrizeUsers;\r\n    Category[] public allCategories;\r\n    Product[] public allProducts;\r\n\r\n    uint public lastUserId;\r\n    uint public lastPriceStatusId;\r\n    uint public lastStoreId;\r\n    uint public lastPrizeId;\r\n    uint public lastCategoryId;\r\n    uint public lastProductId;\r\n\r\n    function getNewUserId() public returns (uint) {\r\n        return lastUserId++;\r\n    }\r\n\r\n    function getNewPriceStatusId() public returns (uint) {\r\n        return lastPriceStatusId++;\r\n    }\r\n\r\n    function getNewStoreId() public returns (uint) {\r\n        return lastStoreId++;\r\n    }\r\n\r\n    function getNewPrizeId() public returns (uint) {\r\n        return lastPrizeId++;\r\n    }\r\n\r\n\r\n    function getNewCategoryId() public returns (uint) {\r\n        return lastCategoryId++;\r\n    }\r\n\r\n    function getNewProductId() public returns (uint) {\r\n        return lastProductId++;\r\n    }\r\n\r\n\r\n    function createUser(string memory _email, string memory _name, string memory _username, string memory _password) public {\r\n        User memory user = User({\r\n          user_address: msg.sender,\r\n          name: _name,\r\n          email: _email,\r\n          username: _username,\r\n          password: _password,\r\n          level: 0,\r\n          id_user: getNewUserId()\r\n        });\r\n        allUsers.push(user);\r\n    }\r\n\r\n    function createPriceStatus(string memory _name, uint _date, uint _avg_price, uint _categoty, uint _store) public {\r\n        PriceStatus memory price = PriceStatus({\r\n          name: _name,\r\n          date: _date,\r\n          avg_price: _avg_price,\r\n          category_id: _categoty,\r\n          store_id: _store,\r\n          status_id: getNewPriceStatusId()\r\n        });\r\n        allPriceStatus.push(price);\r\n    }\r\n\r\n    function createStore(string memory _name, string memory _url) public {\r\n        Store memory store = Store({\r\n            name: _name,\r\n            url: _url,\r\n            store_id: getNewStoreId()\r\n        });\r\n        allStores.push(store);\r\n    }\r\n\r\n    function createPrize(string memory _name, string memory _description, uint _date) public {\r\n        Prize memory prize = Prize({\r\n            name: _name,\r\n            description: _description,\r\n            date: _date,\r\n            prize_id: getNewPrizeId()\r\n        });\r\n        allPrizes.push(prize);\r\n    }\r\n\r\n    function createPrizeUser(uint _prize_id, uint _user_id, uint _date) public {\r\n        PrizeUser memory prizeuser = PrizeUser({\r\n            prize_id: _prize_id,\r\n            user_id: _user_id,\r\n            date: _date\r\n        });\r\n        allPrizeUsers.push(prizeuser);\r\n    }\r\n\r\n    function createCategory(string memory _name, string memory _description) public {\r\n        Category memory category = Category({\r\n            category_id: getNewCategoryId(),\r\n            name: _name,\r\n            description: _description\r\n        });\r\n        allCategories.push(category);\r\n    }\r\n\r\n\r\n    function getAveragePriceByCategory(uint _category, uint _start_date) public view returns (uint) {\r\n\r\n        uint average_return;\r\n        uint total;\r\n\r\n        for (uint i = 0; i < allPriceStatus.length; i++) {\r\n            if( allPriceStatus[i].category_id == _category && allPriceStatus[i].date >= _start_date) {\r\n                average_return = average_return + allPriceStatus[i].avg_price;\r\n                total = total + 1;\r\n            }\r\n        }\r\n        average_return = average_return/total;\r\n        return average_return;\r\n\r\n    }\r\n\r\n    function getAveragePriceByStore(uint _store, uint _start_date) public view returns (uint, uint[] memory, string[] memory, uint[] memory, uint[] memory, uint[] memory) {\r\n\r\n        uint average_return;\r\n        uint[] memory status_id = new uint[](allPriceStatus.length);\r\n        string[] memory name = new string[](allPriceStatus.length);\r\n        uint[] memory date= new uint[](allPriceStatus.length);\r\n        uint[] memory avg_price = new uint[](allPriceStatus.length);\r\n        uint[] memory category_id = new uint[](allPriceStatus.length);\r\n\r\n        uint total;\r\n        for (uint i = 0; i < allPriceStatus.length; i++) {\r\n            if( allPriceStatus[i].store_id == _store && allPriceStatus[i].date >= _start_date) {\r\n                status_id[total] = allPriceStatus[i].status_id;\r\n                name[total] = allPriceStatus[i].name;\r\n                date[total] = allPriceStatus[i].date;\r\n                avg_price[total] = allPriceStatus[i].avg_price;\r\n                category_id[total] = allPriceStatus[i].category_id;\r\n                average_return = average_return + allPriceStatus[i].avg_price;\r\n                total = total + 1;\r\n\r\n            }\r\n        }\r\n        average_return = average_return/total;\r\n        return (average_return, status_id, name, date, avg_price, category_id);\r\n\r\n    }\r\n\r\n\r\n\r\n\r\n}\r\n",
  "sourcePath": "/home/larissagr/Documentos/UFSC2022/PriceTrace/truffle/contracts/PriceTraceV1.sol",
  "compiler": {
    "name": "solc",
    "version": "0.7.0+commit.9e61f92b.Emscripten.clang"
  },
  "schemaVersion": "3.4.11",
  "updatedAt": "2022-12-11T16:20:42.507Z",
  "devdoc": {
    "kind": "dev",
    "methods": {},
    "version": 1
  },
  "userdoc": {
    "kind": "user",
    "methods": {},
    "version": 1
  }
}